:100000000C9463000C948B000C948B000C94A70F41
:100010000C94A70F0C94A70F0C948B000C94740DE8
:100020000C948B000C948B000C948B000C949B0E06
:100030000C948B000C948B000C948B000C948B0014
:100040000C942A0D0C948B000C9442090C941C09FE
:100050000C948B000C948B000C948B000C948B00F4
:100060000C948B000C948B0000000008000201002F
:100070000003040700000000000000000000000072
:10008000240027002A0000000000250028002B0083
:1000900000000000230026002900040404040404D6
:1000A0000404020202020202030303030303010227
:1000B00004081020408001020408102001020408F6
:1000C0001020001AAC1311241FBECFEFD8E0DEBF02
:1000D000CDBF25E0A8E2B1E001C01D92A032B20779
:1000E000E1F711E0A0E0B1E0E6EFF1E402C0059035
:1000F0000D92A832B107D9F710E0C2E6D0E004C0F3
:100100002197FE010E94DC1EC136D107C9F70E946B
:10011000D4130C94EE200C9400002F923F924F9237
:100120005F926F927F928F929F92AF92BF92CF9287
:10013000DF92EF92FF920F931F93CF93DF9300D044
:1001400000D000D0CDB7DEB787E593E09093F20101
:100150008093F10180911F0490E09093F4018093CB
:10016000F30180915303853009F0A6C380915903B0
:1001700090915A03885891098D35910588F48091A2
:100180001F04843041F480915B0390915C0380975D
:10019000479708F40CC280911F04843408F0EEC124
:1001A00080911F048A3108F450C0809157039091C8
:1001B0005803843F914080F41092F0011092EF01B7
:1001C0008FEF9FEFDC018093EB019093EC01A09304
:1001D000ED01B093EE0157C08091590390915A03FD
:1001E00085974B9790F5EDE5F3E082E090E040E0F5
:1001F00050E0BA0120911F0430E0DC011196A217F3
:10020000B30754F4DF0112972D913C912750310927
:100210002730310508F403C201979595879590938F
:10022000F0018093EF010C972CF41092F0011092E2
:10023000EF010BC04093EB015093EC016093ED0193
:100240007093EE0182E090E02BC380911F048A310D
:1002500008F449C08091570390915803803293402D
:1002600008F4AACF8091590390915A03C6978697B4
:1002700008F4F1C138C04093EB015093EC01609356
:10028000ED017093EE0189E090E00AC32081318195
:10029000255231092B31310508F0EDC1440F551FAE
:1002A000661F771F41600296349620911F0430E04C
:1002B000DC011196A217B3074CF4DF0112972D91C0
:1002C0003C912C5031092B30310500F30197959565
:1002D00087959093F0018093EF010C9764F610924C
:1002E000F0011092EF0180911F04823208F44CC09B
:1002F0008091590390915A030697079708F044C0DC
:10030000EDE5F3E082E090E040E050E0BA018C01DE
:100310000F5F1F4F20911F0430E002171307DCF41A
:10032000DF0112972D913C9111972E513109273100
:10033000310508F0ADC1440F551F661F771F41609E
:10034000208131813496235031092530310510F454
:100350000296DDCFC8010197959587959093F0019E
:100360008093EF0140972CF41092F0011092EF016E
:100370000BC04093EB015093EC016093ED0170933F
:10038000EE018AE090E08CC280911F048D3048F429
:100390008091F3019091F401181619060CF483C0B2
:1003A0008FC081E090E09C838B831A82198249E799
:1003B00053E0BE016F5F7F4FCE0103960E9478121B
:1003C000892B21F080E090E0DC0167C049E753E031
:1003D000BE016F5F7F4FCE0103960E947812019796
:1003E00089F749E753E0BE016F5F7F4FCE01039667
:1003F0000E947812892B31F700E010E0C12CD12C3B
:10040000760180911F0490E02B813C8128173907E9
:1004100074F549E753E0BE016F5F7F4FCE0103964D
:100420000E9478125C0149E753E0BE016F5F7F4F85
:10043000CE0103960E947812B1E0AB16B10451F4DC
:10044000892B09F0BFCFCC0CDD1CEE1CFF1C68947F
:10045000C0F80AC0AB2809F0B5CF019709F0B2CFB8
:10046000CC0CDD1CEE1CFF1C0F5F1F4FCACF10937E
:10047000F0010093EF01C092EB01D092EC01E09209
:10048000ED01F092EE0183E090E09093E80180931B
:10049000E70181E090E0A0E0B0E0892B8A2B8B2B74
:1004A00009F002C275CF81E090E09C838B83E091DC
:1004B000F101F091F2018281938189974E9720F0AA
:1004C00080E090E0DC014AC082E090E09C838B8376
:1004D000848195810B970A9798F783E090E09C833D
:1004E0008B831A8219824CEB51E0BE016F5F7F4F04
:1004F000CE0103960E947812892B11F74CEB51E044
:10050000BE016F5F7F4FCE0103960E947812019764
:10051000B9F600E010E0C12CD12C76012B813C8192
:100520008091F3019091F401281739070CF4BDC0B4
:100530001093F0010093EF01C092EB01D092EC0117
:10054000E092ED01F092EE0184E090E09093E801FA
:100550008093E70181E090E0A0E0B0E0892B8A2B56
:100560008B2B09F0A1C1E091F101F091F2018281A0
:100570009381C697869708F4E9C03EC180915B03DA
:1005800090915C03825491098E9708F009CE20E087
:1005900030E080E090E0DC01F901E35AFC4F40815B
:1005A0005181495051094930510588F0F9CD809168
:1005B0005D0390915E030997099708F0ECCD1092C6
:1005C000F0011092EF018FEF9FEFDC0178C1F9018C
:1005D000E15AFC4F40815181475151094231510547
:1005E00088F4880F991FAA1FBB1F81602C5F3F4FA3
:1005F0002038310589F620E230E03093F001209375
:10060000EF015DC14081518146505109473051058C
:1006100008F0C6CD880F991FAA1FBB1FE7CF208106
:100620003181235131092F30310540F4440F551FDA
:10063000661F771F416002963496DCCD20813181A0
:100640002A5031092930310508F0FFCD440F551FDC
:10065000661F771FF0CF80915B0390915C03C69774
:10066000869708F040CEEFE5F3E083E090E040E0CD
:1006700050E0BA011ACE208131812C5031092A3044
:10068000310508F030CE440F551F661F771F0BCE83
:100690002D913C912C5031092B30310508F074CE4E
:1006A000440F551F661F771F4BCE4CEB51E0BE0128
:1006B0006F5F7F4FCE0103960E9478124C0103308A
:1006C000110571F04CEB51E0BE016F5F7F4FCE0121
:1006D00003960E9478125C0103301105D9F40DC015
:1006E0004CEB51E0BE016F5F7F4FCE0103960E943D
:1006F00078128816990631F3E3CE4CEB51E0BE0137
:100700006F5F7F4FCE0103960E947812A816B9063C
:1007100009F0D6CE8114910459F4AA94AB2809F0BB
:10072000CFCECC0CDD1CEE1CFF1C6894C0F80BC0B7
:100730008A94892809F0C4CEAB2809F0C1CECC0C2C
:10074000DD1CEE1CFF1C0F5F1F4FE8CE84819581DE
:100750004B97459708F050C0DF0116967F0126ECB5
:10076000E20EF11C20E030E040E050E060E070E09C
:1007700080E090E00D911C9111970950110908300B
:100780001105D0F512960D911C9113970151110985
:100790000D30110520F501E00E94911E2160149694
:1007A000AE15BF0539F72093EB013093EC01409370
:1007B000ED015093EE0100E20E94AC1E2093E9018E
:1007C0003093EA0187E090E09093E8018093E7019D
:1007D00080E390E09093F0018093EF0165C0129662
:1007E0000D911C911397045011090530110520F447
:1007F00001E00E94911ED3CF828193818957910994
:1008000083359105D0F480911F048933B0F0848141
:100810009581CA97899788F49F012A5F3F4FC12C21
:10082000D12C760143E050E0D9016D917C916A5062
:1008300071096930710508F407C180911F04823283
:1008400009F448C0828193818957910983359105C4
:1008500008F462C1828193818C549109C59708F094
:1008600045C080911F048430E1F584819581809793
:100870004797B8F5868197810997099790F5109267
:10088000F0011092EF018FEF9FEFDC018093EB01FD
:100890009093EC01A093ED01B093EE018BE090E01A
:1008A0009093E8018093E70181E090E033C282E019
:1008B0008093530310921F0480E090E02BC280933A
:1008C000EB019093EC01A093ED01B093EE0181E078
:1008D00090E0E6CF828193810A97099708F4FDC0E2
:1008E000B1CF80911F04843408F07BC180911F0434
:1008F000863460F1828193810C970B9708F4C2C112
:1009000025C0D90112966D917C9113976E51710992
:100910006731710508F0EEC1D701C601880F991F34
:10092000AA1FBB1F6C017D016894C0F84E5F5F4F2A
:100930002C5F3F4F4534510509F4BFC1D9016D917A
:100940007C916C5071096B307105D8F28091F30184
:100950009091F4019E838D8306970CF4A8CF8F01AC
:100960000A5F1F4F75ECC72E7DE9D72E7CE1E72E7D
:1009700071E8F72EE3E02E2E312CD8016D917C9199
:10098000F8013497A080B18080E090E00E94C61BFF
:100990002B013C01B50180E090E00E94C61B4B0199
:1009A0005C012DEC3CEC4CE45FE30E94271C9B01B6
:1009B000AC01C301B2010E94C11B87FD17C02DEC21
:1009C0003CEC4CE45FE3C301B2010E94271C9B0195
:1009D000AC01C501B4010E94C11BE82F880FFF0BB9
:1009E000EE27FF0FEE1FFF27319602C0E0E0F0E098
:1009F000A701960163E971E080E091E00E944B1E3F
:100A00006F01FF0FEE08FF08C626D726E826F92655
:100A1000BFEF2B1A3B0A0E5F1F4FED81FE812E1692
:100A20003F0609F0AACFC092EB01D092EC01E09210
:100A3000ED01F092EE0180E290E09093F00180935E
:100A4000EF018FEF9FEF2CCFD90112966D917C9122
:100A50001397665171096131710578F5D701C601A7
:100A6000880F991FAA1FBB1F6C017D016894C0F8F5
:100A70004E5F5F4F2C5F3F4F4B33510509F0D4CE93
:100A80009F012A583F4FD9012D913C912A5031099D
:100A90002930310508F0D1CE2CE130E03093F0015F
:100AA0002093EF01C092EB01D092EC01E092ED01B6
:100AB000F092EE018CE090E0F3CED90112966D91A8
:100AC0007C911397665071096730710508F0B5CEB7
:100AD000CC0CDD1CEE1CFF1CCBCF20911F04CF01E2
:100AE000820F911D820F911DDC0112978D919C91B7
:100AF0000A97099708F0A6CE1092F0011092EF0124
:100B00008FEF9FEFDC018093EB019093EC01A093BA
:100B1000ED01B093EE0162C080911F04813208F4B0
:100B200099CE84819581CA97899708F093CE9F01C9
:100B30002A5F3F4FC12CD12C760143E050E0D90110
:100B40006D917C916A5071096930710508F082CE0F
:100B5000D90112966D917C9113976651710961319B
:100B6000710560F5D701C601880F991FAA1FBB1F29
:100B70006C017D016894C0F84E5F5F4F2C5F3F4F62
:100B800043325105E1F69F012A5B3F4FD9012D9178
:100B90003C912A5031092930310508F05BCE20E123
:100BA00030E03093F0012093EF01C092EB01D0923E
:100BB000EC01E092ED01F092EE0110C0D901129625
:100BC0006D917C911397665071096730710508F03B
:100BD00041CECC0CDD1CEE1CFF1CCECF88E090E09B
:100BE0005FCE8481958189549109C39708F07ECEA8
:100BF0009F012A5F3F4FBF016A577F4FC12CD12C05
:100C00007601D9014D915C91495051094930510506
:100C100008F06CCED90112964D915C911397465114
:100C2000510941315105F0F4D701C601880F991FD0
:100C3000AA1FBB1F6C017D016894C0F82C5F3F4F59
:100C400026173707F1F620E230E03093F0012093C9
:100C5000EF01C092EB01D092EC01E092ED01F09235
:100C6000EE011CCED90112964D915C91139746501E
:100C700051094730510508F039CECC0CDD1CEE1C73
:100C8000FF1CDCCF848195810997099708F05ECE1F
:100C9000868197818C974F9708F058CE80859185F3
:100CA00089974D9708F052CE9F01265F3F4FC12C88
:100CB000D12C760145E050E041CE9F0126573F4FB1
:100CC000D9012D913C912C5031092B30310508F080
:100CD0003DCE20E230E03093F0012093EF01C0924E
:100CE000EB01D092EC01E092ED01F092EE018DE08B
:100CF00090E0D6CDD90112966D917C9113976950F1
:100D000071096930710508F021CECC0CDD1CEE1C98
:100D1000FF1C0CCE26960FB6F894DEBF0FBECDBFDB
:100D2000DF91CF911F910F91FF90EF90DF90CF90C7
:100D3000BF90AF909F908F907F906F905F904F90FB
:100D40003F902F900895CF92DF92EF92FF920F93F2
:100D50001F93CF93DF936C017A018B01C0E0D0E049
:100D6000CE15DF0589F0D8016D918D01D601ED9189
:100D7000FC910190F081E02DC6010995892B11F4B9
:100D80007E0102C02196ECCFC701DF91CF911F9168
:100D90000F91FF90EF90DF90CF900895FC01918D1F
:100DA000828D981761F0828DDF01A80FB11D5D96CD
:100DB0008C91928D9F5F9F73928F90E008958FEF3B
:100DC0009FEF0895FC01918D828D981731F0828DEF
:100DD000E80FF11D858D90E008958FEF9FEF089546
:100DE000FC01918D228D892F90E0805C9F4F821BAA
:100DF00091098F739927089585EF91E00E94F0067D
:100E000021E0892B09F420E0822F0895FC01848DD4
:100E1000DF01A80FB11DA35ABF4F2C91848D90E024
:100E200001968F739927848FA689B7892C93A089FF
:100E3000B1898C9180648C93938D848D981306C0B6
:100E40000288F389E02D80818F7D80830895EF9261
:100E5000FF920F931F93CF93DF93EC0181E0888F74
:100E60009B8D8C8D981305C0E889F989808185FD5B
:100E700024C0F62E0B8D10E00F5F1F4F0F7311274C
:100E8000E02E8C8DE8120CC00FB607FCFACFE88973
:100E9000F989808185FFF5CFCE010E940607F1CF49
:100EA0008B8DFE01E80FF11DE35AFF4FF0820B8F8F
:100EB000EA89FB898081806207C0EE89FF896083AF
:100EC000E889F98980818064808381E090E0DF9106
:100ED000CF911F910F91FF90EF900895CF93DF93E3
:100EE000EC01888D8823C9F0EA89FB89808185FD22
:100EF00005C0A889B9898C9186FD0FC00FB607FC83
:100F0000F5CF808185FFF2CFA889B9898C9185FFC3
:100F1000EDCFCE010E940607E7CFDF91CF91089574
:100F200080E090E0892B29F00E94FC0681110C944E
:100F300000000895833081F028F4813099F08230E8
:100F4000A1F008958730A9F08830B9F08430D1F449
:100F5000809180008F7D03C0809180008F77809387
:100F60008000089584B58F7702C084B58F7D84BDDD
:100F700008958091B0008F7703C08091B0008F7D7D
:100F80008093B00008958E3008F08E508770806492
:100F900080937C0080917A00806480937A008091B5
:100FA0007A0086FDFCCF809178002091790090E056
:100FB000922B08953FB7F894809175019091760136
:100FC000A0917701B091780126B5A89B05C02F3F6D
:100FD00019F00196A11DB11D3FBFBA2FA92F982F5F
:100FE0008827820F911DA11DB11DBC01CD0142E0DA
:100FF000660F771F881F991F4A95D1F70895209192
:101000007B0130917C012817390771F490917901A7
:1010100080917A01981741F0E0917901F0E0E25D6A
:10102000FE4F808190E008958FEF9FEF089508951F
:101030001F93CF93DF93DC015C962D913C915D97DC
:101040002115310539F481E090E013969C938E933D
:1010500012973DC05196ED91FC91529750969C91FC
:101060005097892F80951FB75E964C915E9741FBF4
:10107000772770F941FD6095F8944081772311F04E
:10108000492B01C048234083E9012197F1F748E04B
:10109000508160FF02C0592B01C058235083E901E1
:1010A0002197F1F76695415099F7772321F09081C8
:1010B0008923808303C08081982B90831FBF5C9617
:1010C0008D919C915D970197F1F721E030E0C90186
:1010D000DF91CF911F91089520917B0130917C0188
:1010E0002817390771F480917A012091790190E0F5
:1010F000805C9F4F821B910960E470E00E945B1E40
:10110000089580E090E0089520917B0130917C016A
:1011100028173907B9F49091790180917A019817CD
:1011200089F0E0917901F0E0E25DFE4F808120914D
:10113000790130E02F5F3F4F2F73332720937901E0
:1011400090E008958FEF9FEF08950895862F642F04
:10115000E0918901F0918A01309711F0A901099479
:1011600008950895862FE0918101F09182013097D2
:1011700011F0BA0109940895862FE0918301F0914E
:101180008401309711F0BA0109940895862FE091F7
:101190007D01F0917E01309711F0BA010994089514
:1011A000862FE0917F01F0918001309711F0BA0114
:1011B00009940895862FE0918501F091860130977A
:1011C00011F0BA0109940895862FE0918701F091FA
:1011D0008801309711F0BA0109940895009721F021
:1011E000805C9F4F0C94411208950F931F93CF93EF
:1011F000DF93EC0188819981009729F02A813B8156
:101200002617370788F48B016F5F7F4F0E940F20EE
:10121000009761F0998388831B830A832C813D8129
:10122000232B11F4FC01108281E001C080E0DF91EA
:10123000CF911F910F9108951F920F920FB60F92A9
:1012400011242F933F934F935F936F937F938F93CB
:101250009F93AF93BF93EF93FF9385EF91E00E942D
:101260000607FF91EF91BF91AF919F918F917F9171
:101270006F915F914F913F912F910F900FBE0F9003
:101280001F9018951F920F920FB60F9211242F9353
:101290008F939F93EF93FF93E0910502F0910602E5
:1012A0008081E0910B02F0910C0282FD12C09081CE
:1012B00080910E028F5F8F7320910F02821751F081
:1012C000E0910E02F0E0EB50FE4F958F80930E02FE
:1012D00001C08081FF91EF919F918F912F910F908D
:1012E0000FBE0F901F9018951F93CF93DF93282F59
:1012F00030E0F901E859FF4F8491F901E255FF4FC1
:10130000D491F901E656FF4FC491CC23C9F0162FB2
:1013100081110E949A07EC2FF0E0EE0FFF1FEA57B1
:10132000FF4FA591B4918FB7F894111105C09C910E
:10133000ED2FE095E92302C0EC91ED2BEC938FBFEC
:10134000DF91CF911F910895CF93DF9390E0FC013F
:10135000E255FF4F2491FC01E656FF4F849188230C
:1013600061F190E0880F991FFC01E458FF4FC5918F
:10137000D491FC01EA57FF4FA591B491611109C0C6
:101380009FB7F8948881209582238883EC912E233F
:101390000BC0623061F49FB7F8943881822F80953A
:1013A00083238883EC912E2B2C939FBF06C08FB78D
:1013B000F894E8812E2B28838FBFDF91CF91089579
:1013C000CF93DF9394E0899FF0011124E557FE4FFE
:1013D000208131812330310559F4D62FC82F61E0A7
:1013E0000E94A4096D2F8C2FDF91CF910C9474096A
:1013F000DF91CF9108951F93CF93DF93182FEB01C7
:1014000061E00E94A409209711F460E004C0CF3F7E
:10141000D10539F461E0812FDF91CF911F910C94B8
:101420007409E12FF0E0E859FF4FE491E330F9F05F
:1014300048F4E130B9F0E230A1F584B5806284BDB2
:10144000C8BD34C0E730E9F0E83019F1E43049F5BF
:1014500080918000806280938000D0938B00C09345
:101460008A0024C084B5806884BDC7BD1FC0809138
:101470008000806880938000D0938900C0938800AA
:1014800015C08091B00080688093B000C093B30015
:101490000DC08091B00080628093B000C093B40012
:1014A00005C0C038D1050CF0B5CFAFCFDF91CF91DB
:1014B0001F910895FF920F931F93CF93DF9394E0B2
:1014C000899FE0011124C557DE4F288139812230E0
:1014D000310561F48B01F82E61E00E94A409B80186
:1014E0008F2D0E94FB091B830A8305C02130310523
:1014F00011F47B836A83DF91CF911F910F91FF904D
:1015000008958F929F92AF92BF92CF92DF92EF9207
:10151000FF926B017C010E94DA074B015C01C11450
:10152000D104E104F104F1F00E94DA07DC01CB01FF
:1015300088199909AA09BB09883E9340A105B105FC
:1015400070F321E0C21AD108E108F10888EE880E94
:1015500083E0981EA11CB11CC114D104E104F10464
:1015600019F7DDCFFF90EF90DF90CF90BF90AF9055
:101570009F908F9008954F925F926F927F92BF924B
:10158000CF92DF92EF92FF920F931F93CF93DF934F
:101590008091E4018230A9F081E00E94C307BC0180
:1015A00081E00E94EC1282E00E94C307BC0182E04D
:1015B0000E94EC1283E00E94C307BC0183E00E94FA
:1015C000EC128091E401813061F413E0B12ECBE0A4
:1015D000D0E003E210E089E3C82ED12CE12CF12CFD
:1015E00018C061EE8DEF94E00E941808C1E08C2FC6
:1015F0000E94C30797FD0396BC0175956795759585
:1016000067958DEF94E00E941808CF5FC43079F79A
:10161000DCCFE0913604F091370490818091300462
:10162000892B8083E0913204F09133049081809182
:101630003004809589238083CE010197F1F7E091F2
:101640003204F0913304908180913004892B80839F
:10165000C8010197F1F7E0913204F09133049081D1
:1016600080913004809589238083E0913604F09145
:101670003704908180913004809589238083E091A4
:101680003404F0913504908180913104892309F06C
:1016900074C00E94DA07209138043091390429017E
:1016A000612C712C28EA420E26E1521E611C711C2D
:1016B000DC01CB01840D951DA61DB71D80933A0456
:1016C00090933B04A0933C04B0933D04E091340418
:1016D000F0913504908180913104892381F40E9436
:1016E000DA0740903A0450903B0460903C047090BC
:1016F0003D04461657066806790640F73EC00E942C
:10170000DA072091380430913904DC01CB01820FD3
:10171000931FA11DB11D80933A0490933B04A093A5
:101720003C04B0933D04E0913404F0913504908181
:1017300080913104892381F00E94DA0740903A04B5
:1017400050903B0460903C0470903D044616570650
:101750006806790640F711C00E94DA072091380424
:10176000309139042550310940913A0450913B049D
:10177000241B350B620F731F02C060E070E080E035
:1017800090E0A70196010E946F1E211531054105C9
:10179000510529F4BA94B1103CCF20E030E080919B
:1017A0002C0190912D010A971CF02115310521F093
:1017B00030932D0120932C0180912C0190912D01CB
:1017C0008115944034F08FEF93E090932D01809336
:1017D0002C018091E4018230D9F080EF0E946B12DD
:1017E00080912C0190912D0160E870E00E945B1EB9
:1017F0000E946B1280912C0190912D0197FF02C0E5
:1018000081589F4F880F892F881F990B0E946B1258
:101810008091E401813011F160EF8DEF94E00E943E
:101820001808D0912C01C0912D018D2F9C2F60E8BC
:1018300070E00E945B1E682F8DEF94E00E941808F4
:101840006D2F7C2F77FF02C061587F4F660F672F87
:10185000661F770B8DEF94E00E9418086AE070E035
:1018600080E090E00E94810A0E948D00892B09F49B
:10187000D7C08091E301882309F4D2C04091F101DF
:101880005091F20184E023E230E06AE070E0E82F5A
:10189000F0E0A091F301B091F401EA17FB07B4F472
:1018A000EE0FFF1FE40FF51FA081B1811A9718F406
:1018B0007183608309C0A081B181509728F0A08115
:1018C000B1815E9708F4A9C08F5FE1CF0E948D00BF
:1018D0008091EB019091EC01A091ED01B091EE01AE
:1018E0008F3F9F4FAF4FBF4F09F491C08091E401EC
:1018F0008230E9F181EF0E946B128091EB019091AF
:10190000EC01A091ED01B091EE0152E1B695A795E1
:10191000979587955A95D1F70E946B128091EB01AC
:101920009091EC01A091ED01B091EE016CE0B695C3
:10193000A795979587956A95D1F78F730E946B123B
:101940008091EB019091EC01A091ED01B091EE013D
:1019500076E0B695A795979587957A95D1F78F7389
:101960000E946B128091EB018F730E946B12809129
:10197000E401813009F44BC061EF8DEF94E00E94E7
:1019800018088091EB019091EC01A091ED01B091CC
:10199000EE01BC01CD0122E196958795779567957B
:1019A0002A95D1F78DEF94E00E9418088091EB0101
:1019B0009091EC01A091ED01B091EE013CE0B69563
:1019C000A795979587953A95D1F7682F6F738DEF07
:1019D00094E00E9418088091EB019091EC01A09195
:1019E000ED01B091EE0146E0B695A79597958795E4
:1019F0004A95D1F7682F6F738DEF94E00E94180815
:101A00006091EB016F738DEF94E00E94180882E003
:101A10008093530310921F0403C03183208354CF5B
:101A2000DF91CF911F910F91FF90EF90DF90CF90BA
:101A3000BF907F906F905F904F9008952FB7F8946C
:101A400060917101709172018091730190917401A4
:101A50002FBF08951F920F920FB60F9211242F934C
:101A60003F938F939F93AF93BF9380917101909118
:101A70007201A0917301B09174013091700123E063
:101A8000230F2D3720F40196A11DB11D05C026E8B6
:101A9000230F0296A11DB11D209370018093710147
:101AA00090937201A0937301B093740180917501BA
:101AB00090917601A0917701B09178010196A11DD6
:101AC000B11D8093750190937601A0937701B09337
:101AD0007801BF91AF919F918F913F912F910F907E
:101AE0000FBE0F901F9018951F920F920FB60F9276
:101AF00011242F933F934F935F936F937F938F9313
:101B00009F93AF93BF93EF93FF93E0916E01F0919A
:101B10006F010995FF91EF91BF91AF919F918F91C7
:101B20007F916F915F914F913F912F910F900FBED9
:101B30000F901F901895DC0170E0FB01E255FF4FFC
:101B4000E4911496EC93149750E0FA01E255FF4F9C
:101B5000E4911596EC93159766567F4FFB0184919F
:101B6000E82FF0E0EE0FFF1FEA57FF4F85919491A9
:101B700017969C938E931697FA01E656FF4F449161
:101B800050E0440F551F40575F4FFA0185919491E3
:101B900019969C938E931897FB016491E62FF0E0C1
:101BA000EE0FFF1FE458FF4F859194911B969C9375
:101BB0008E931A972F5F3F4F49E3429FC001439F87
:101BC000900D11248E38FFE69F0710F08DE89FE6F8
:101BD0001D969C938E931C970895CF92DF92EF925F
:101BE000FF92CF93DF93CDB7DEB762970FB6F8942D
:101BF000DEBF0FBECDBFFA018F35C1F58181928165
:101C0000A38120E8A29FD0011124A90FB11D9481C6
:101C1000258140E8249F90011124290F311DAD0139
:101C20000B2E000C660B770B6901032E000CEE08DF
:101C3000FF08AB2B29F4C701B6010E94810A02C03C
:101C40000E948911C701B6010E94810A8091E301B7
:101C5000811164C06091B9017091BA01611571057B
:101C600009F45CC08BE00E94FB0958C08E35E9F591
:101C70008081882359F060E070E08BE00E94FB09CE
:101C80000E946C1181E08093E30148C081EA809357
:101C9000800083E080938100109289001092880078
:101CA00010928B0010928A006091B1017091B20184
:101CB0006115710519F089E00E94FB096091B50179
:101CC0007091B6016115710519F08AE00E94FB0957
:101CD0006091B9017091BA016115710519F08BE03D
:101CE0000E94FB091092E30119C08D35B9F480817F
:101CF000218130E09AE0899F200D311D11244DE0B3
:101D00006CE0CE0101960E949B0D82E1FE013196AE
:101D1000ACE2B4E001900D928A95E1F762960FB6BD
:101D2000F894DEBF0FBECDBFDF91CF91FF90EF9053
:101D3000DF90CF9008951F920F920FB60F9211244B
:101D40002F933F934F935F936F937F938F939F93C3
:101D5000AF93BF93CF93DF93EF93FF932091520301
:101D600030E0F901E859FF4F8491F901E255FF4F46
:101D7000D491F901E656FF4FC491CC23A1F0811113
:101D80000E949A07EC2FF0E0EE0FFF1FE057FF4F85
:101D9000A591B491EC91ED2331E020E009F430E01D
:101DA000832F922F02C080E090E020915503309164
:101DB00056032F5F3F4F30935603209355032091D6
:101DC0001F04243618F025E0209353032091530379
:101DD0002330C1F018F4223039F059C0243069F1B1
:101DE000253009F44EC053C0009709F050C020912F
:101DF0005503309156032436310508F444C010923F
:101E00001F041DC08130910509F041C0E0911F04FD
:101E100021E02E0F20931F04F0E020915503309114
:101E20005603EE0FFF1FEE5AFC4F368325831092A8
:101E300056031092550324E021C00097B9F4E091B5
:101E40001F0421E02E0F20931F04F0E02091550382
:101E500030915603EE0FFF1FEE5AFC4F3683258359
:101E6000109256031092550323E008C020915503A9
:101E7000309156032536310550F025E02093530369
:101E800006C0009721F4109256031092550320913A
:101E90005403222329F0892B11F42D9A01C02D9887
:101EA000FF91EF91DF91CF91BF91AF919F918F9172
:101EB0007F916F915F914F913F912F910F900FBE46
:101EC0000F901F901895CF92DF92EF92FF92CF93D1
:101ED000DF93EC01072E000C880B990B0E94C81BA6
:101EE0006B017C0120E030E040E45FE30E94271CAE
:101EF00020E030E048E452E40E94A31D0E94151E39
:101F0000C617D707D4F020E030E040EA5FE3C7010E
:101F1000B6010E94271C20E030E048E452E40E9411
:101F2000A31D20E030E040E85FE30E94371D0E94DF
:101F3000151E21E06C177D070CF420E0822F90E045
:101F4000DF91CF91FF90EF90DF90CF9008951F9297
:101F50000F920FB60F9211242F933F934F935F93DD
:101F60006F937F938F939F93AF93BF93EF93FF9361
:101F7000E0917B01F0917C01309709F451C0968D7E
:101F8000A685B785858591FF04C09C91892329F496
:101F900047C09C91892309F043C0A389B4899C91CF
:101FA0008589809589238C93868997890197F1F794
:101FB000608D718DA685B785558538E020E0CB0111
:101FC0000197F1F7822F90E095958795282F4C91F6
:101FD000452309F02068315091F7868D81FD2095C9
:101FE00080917A0190E001968F7399273091790161
:101FF000381749F0A0917A01B0E0A25DBE4F2C9352
:1020000080937A0103C0868D8160868F828D938D47
:102010000197F1F7A389B4899C918589892B8C93C9
:10202000FF91EF91BF91AF919F918F917F916F91B0
:102030005F914F913F912F910F900FBE0F901F9086
:1020400018952F923F925F926F927F928F929F92FC
:10205000AF92BF92CF92DF92EF92FF920F931F93B6
:10206000CF93DF937C013901DA015C90232B19F4C3
:1020700066246A94762C8A011A01260E371EC0E067
:10208000D0E0812C912C87E0C82ED12C02151305AD
:1020900009F444C08614970408F068C05801F70199
:1020A00080819181FC01A081B181F80121918F0192
:1020B000E22F0C2E01C0EE0F0A94EAF7652D6E2B6D
:1020C0006F77ED91FC9109958FEF881A980AD501E9
:1020D0006C9170E0C6018C1B9D0B02C075956795D5
:1020E0008A95E2F7562E2196C730D10578F28614EC
:1020F000970461F2F70180819181DC01ED91FC91FF
:10210000652D6F770190F081E02D0995BFEF8B1A57
:102110009B0A551C5524551C2797E6CF209731F173
:102120008614970418F5F70180819181DC01ED9107
:10213000FC9161E070E001C0660FCA95EAF761505A
:1021400065210190F081E02DDF91CF911F910F91DA
:10215000FF90EF90DF90CF90BF90AF909F908F90C7
:102160007F906F905F903F902F900994DF91CF9177
:102170001F910F91FF90EF90DF90CF90BF90AF90A5
:102180009F908F907F906F905F903F902F900895D9
:10219000DF92EF92FF920F931F93CF93DF93FC0197
:1021A000E058FF4FD080DD2009F45CC031960081FB
:1021B0001181D8011196FC901197EC90EC01C05C54
:1021C000DF4F88819981009709F44CC0DC01ED91C3
:1021D000FC910190F081E02D60EF09958881998153
:1021E000DC01ED91FC910190F081E02D69E709950A
:1021F00088819981DC01ED91FC910190F081E02DC5
:102200006E2D099588819981DC01ED91FC910190F9
:10221000F081E02D6F2D09957801B2E0EB0EF11CF5
:102220000D0D111DE016F10661F020E030E0A70170
:1022300061E070E0CE010E942110EFEFEE1AFE0A7D
:10224000F1CF88819981DC01ED91FC910190F081C1
:10225000E02D67EFDF91CF911F910F91FF90EF90ED
:10226000DF900994DF91CF911F910F91FF90EF9034
:10227000DF900895009711F00C94C81008950E9403
:10228000D920EF92FF920F931F93CF93DF93EC012E
:102290007B018A01BA010E94F508288139818111E8
:1022A0000DC02115310519F0C9010E94771F19824F
:1022B00018821D821C821B821A8206C01D830C8319
:1022C000B701C9010E94E720CE01DF91CF911F9194
:1022D0000F91FF90EF900895F8941092800089E09C
:1022E0008093810080E293E090938900809388003E
:1022F000109285001092840082E080936F007894A1
:10230000E2E5F3E0818310921F04808160E00C9489
:10231000A4092F923F924F925F926F927F928F9279
:102320009F92AF92BF92CF92DF92EF92FF920F9364
:102330001F93CF93DF93CDB7DEB727970FB6F894EF
:10234000DEBF0FBECDBFB82E6A017B01890160E4FC
:1023500072E48FE090E0A70196010E946F1E8B2D22
:1023600090E0FC01E255FF4F6491698386569F4FD0
:10237000FC016491E62FF0E0EE0FFF1FEA57FF4FDC
:10238000659174917F836E83FC018491E82FF0E066
:10239000EE0FFF1FE458FF4FA591B4918C91F98186
:1023A0008F2B8C932C833D834A835B830E941E0D6D
:1023B0004B015C012C813D814A815B81DA01C901BD
:1023C000B695A795979587951C017C01EE0CFF1C8F
:1023D000EE0CFF1C65E0E61AF108281B390B6901B9
:1023E000CC0CDD1CCC0CDD1C75E0C71AD108280113
:1023F000612C712C198110952C833D830E941E0D38
:10240000DC01CB0188199909AA09BB092C813D81FE
:1024100084159505A605B705D8F4EE81FF81808166
:10242000F9818F2BEE81FF818083F2E02F1631043A
:1024300018F0C7010197F1F7EE81FF8180818123B8
:10244000808322303105C0F2C6010197F1F7D4CF65
:1024500027960FB6F894DEBF0FBECDBFDF91CF91A8
:102460001F910F91FF90EF90DF90CF90BF90AF90B2
:102470009F908F907F906F905F904F903F902F90A4
:102480000895CF93DF93FC01A081B181109701F1F2
:10249000EC01ED91FC9111970190F081E02D69EF35
:1024A000CD01099588819981DC01ED91FC91019024
:1024B000F081E02D62E0099588819981DC01ED9140
:1024C000FC910190F081E02D65E0DF91CF910994BE
:1024D000DF91CF910895A0911003B0911103ED9178
:1024E000FC9111970190F081E02D682FCD010994A6
:1024F0008F929F92AF92BF92CF92DF92EF92FF9214
:102500000F931F93CF93DF93FC01C081D181209162
:10251000F3013091F401C217D3070CF04BC09E01B8
:10252000220F331FE091F101F091F201E20FF31F4E
:1025300080809180C170DD27F1E0CF27209719F4CA
:1025400004E610E002C00CE91FEF7A015B016C01A8
:10255000040F151FB801C4010E94630F892B99F461
:102560000E0D1F1DB801C4010E94630F892B71F469
:10257000B8016E0D7F1DC4010E94630F892BE9F025
:1025800023E030E005C021E030E002C022E030E08E
:10259000F501808191810196821793073CF0F50146
:1025A00011821082F601808191810196918380834E
:1025B000CE0105C081E090E002C08FEF9FEFDF9178
:1025C000CF911F910F91FF90EF90DF90CF90BF9030
:1025D000AF909F908F9008951F93CF93DF9300D07B
:1025E000CDB7DEB7182F7A8369838091D20290919C
:1025F000D302009709F44EC0DC01ED91FC9110313B
:10260000A8F46115704490F4612F606E0190F08120
:10261000E02D099522E030E0AE014F5F5F4F62E0B0
:1026200070E082ED92E00E94211034C00190F081B0
:10263000E02D60EF09958091D2029091D302DC01E8
:10264000ED91FC910190F081E02D6FE6099580916C
:10265000D2029091D302DC01ED91FC910190F081C6
:10266000E02D612F099522E030E0AE014F5F5F4F12
:1026700062E070E082ED92E00E9421108091D2022F
:102680009091D302DC01ED91FC910190F081E02D5D
:1026900067EF09950F900F90DF91CF911F910895EB
:1026A000CF93DF93EC0140E050E066E271E00E94DE
:1026B0004111CE01DF91CF9108951F93CF93DF9306
:1026C000182FEB018091D7029091D80268177907F3
:1026D00048F46091D5027091D602C60FD71F1883B7
:1026E00080E018C0E0910403F0910503309711F4E5
:1026F00081E010C081E08093D4028091F00290913B
:10270000F10209958091D7029091D802C817D90794
:1027100078F7DFCFDF91CF911F910895CF93DF93AB
:10272000EC01FB0120E030E0CF01861B970B2C175A
:102730003D0778F4DB01A20FB31F9C9190831196A3
:102740004C91479544274795942B91932E5F3F4F8B
:10275000EBCFDF91CF9108958091200490912104D7
:102760000E94771F80912604909127040E94771F72
:102770008AE191E09093FE048093FD0480917B01B7
:1027800090917C018D5F944071F4E0911005F0917F
:102790001105908180911205809589238083109284
:1027A0007C0110927B010895CF93DF9300D01F929C
:1027B000CDB7DEB7789484B5826084BD84B581607E
:1027C00084BD85B5826085BD85B5816085BD8091FC
:1027D0006E00816080936E00109281008091810074
:1027E000826080938100809181008160809381006C
:1027F000809180008160809380008091B10084602E
:102800008093B1008091B00081608093B00080918E
:102810007A00846080937A0080917A00826080934D
:102820007A0080917A00816080937A0080917A00AA
:10283000806880937A001092C1001092180510925F
:102840001705109216051092150510921405109296
:10285000130582E490E090931A05809319059091F6
:102860000905963108F057C02FE030E03093140589
:102870002093130520E430E03093160520931505CE
:1028800027E230E030931805209317052091680067
:10289000983050F031E09E3008F430E081E001C023
:1028A000880F3A95EAF701C084E0822B8093680094
:1028B000983038F09E3040F0963148F020E030E01B
:1028C00008C02DE630E005C02BE630E002C02CE663
:1028D00030E03093110520931005983030F481E0FA
:1028E00001C0880F9A95EAF70EC0292F30E09E307C
:1028F00018F42850310902C02E50310981E001C07E
:10290000880F2A95EAF78093120580911905909116
:102910001A050197F1F78091170590911805892BF9
:1029200049F1E0917B01F0917C0184E0ED3FF807F3
:1029300009F1309739F0A389B4899C9185898095F4
:1029400089238C9380911B058E7F80931B051092A9
:102950007A01109279018DEF94E090937C0180933D
:102960007B01E0911005F091110590818091120595
:10297000892B80838AE59AE0909388018093870170
:1029800080EE99E090938601809385018DEE9DE025
:1029900090938A0180938901E0910502F0910602EB
:1029A00082E08083E0910502F09106021082E091BE
:1029B0000102F09102021082E0910302F091040200
:1029C00080E1808310920D02E0910902F0910A02E9
:1029D00086E08083E0910702F091080280818061A7
:1029E0008083E0910702F0910802808188608083F3
:1029F000E0910702F0910802808180688083E09175
:102A00000702F091080280818F7D808380915103BD
:102A1000811150C061E08DE00E94A40962ED70E078
:102A200080E090E00E94810A61E08DE00E947409DC
:102A300068E270E080E090E00E94810A60E08DE052
:102A40000E94740962ED70E080E090E00E94810ACB
:102A500061E08DE00E94740968E270E080E090E03F
:102A60000E94810A60E08DE00E9474096AEF70E0C4
:102A700080E090E00E94810A10E062ED70E080E06A
:102A800090E00E94810A61E08DE00E94740968E292
:102A900070E080E090E00E94810A60E08DE00E949A
:102AA00074091F5F153049F76DE770E080E090E032
:102AB0000E94810A85EF91E09093110380931003A7
:102AC0009093D3028093D20282ED92E00E94411251
:102AD00082E992E00E94C81084E090E090938C011B
:102AE00080938B019093900180938F019093940138
:102AF00080939301909398018093970143E050E075
:102B000050939C0140939B0122E030E03093A00160
:102B100020939F013093A4012093A3015093A80117
:102B20004093A7019093AC018093AB013093B00127
:102B30002093AF013093B4012093B3013093B801D7
:102B40002093B7015093BC014093BB011092C00188
:102B50001092BF0125E030E03093C4012093C301FF
:102B60001092C8011092C7011092CC011092CB01B3
:102B70001092D0011092CF019093D4018093D30191
:102B80009093D8018093D7019093DC018093DB016F
:102B90009093E0018093DF016BE8E62E61E0F62E72
:102BA00010E0AA24AA94B12CD701CD90DC90C601E4
:102BB0000297029720F0B5E0CB16D10459F461E0FA
:102BC000812F0E94A409F7011382128260E0812FF5
:102BD0000E947409F1E0CF16D10471F461E0812FF5
:102BE0000E94A409D7011396BC92AE92129760E09E
:102BF000812F0E94740906C0CD2821F460E0812F46
:102C00000E94A40961E08CE00E94A40960E08DE0CC
:102C10000E94A4091F5FB4E0EB0EF11C163121F6EF
:102C2000EFE3F4E080E090E0208121112DC023E16A
:102C3000289F8001299F100D1124015C1B4F81E00A
:102C4000F801808386E490E0A0E0B0E08183928385
:102C5000A383B4838FEF9FEF968385838BEB9AE0FA
:102C6000928781870E941E0DD8011B966D937D93DC
:102C70008D939C931E9750961C921E921F9752966E
:102C80001C921E92519705C0019673968A30910549
:102C900059F67724739442E0E42EF12CCC24C394AB
:102CA000D12C8091100390911103DC01ED91FC91E6
:102CB0000480F581E02D0995892B09F4D5C1809117
:102CC000100390911103DC01ED91FC910680F781D6
:102CD000E02D09959C018F3FBFEF9B0709F4BCC114
:102CE000982F8091DD02882309F493C0973F09F063
:102CF0007FC01092DD02A091D502B091D6026C91F6
:102D00006137C9F1693709F05DC0E0910A03F091BC
:102D10000B03309709F4A0C18091DE029091DF028D
:102D20008330910538F420E030E040E050E060E08E
:102D300070E01BC0BD016D5F7F4F03970E948E1333
:102D4000BC016D5F7F4F80E00E945D13E091D50272
:102D5000F091D6029F012D5F3F4F428150E061818B
:102D600070E0E0910A03F0910B038091EC029091E6
:102D7000ED02099571C18091060390910703892B9B
:102D800009F46AC1BD016F5F7F4F8091DE029091AF
:102D9000DF0201970E948E13BC016F5F7F4F80E0BE
:102DA0000E945D136091D5027091D6026F5F7F4FD4
:102DB000E0910603F09107038091F2029091F302F3
:102DC00009954AC1E0910803F0910903309709F48D
:102DD00043C19D012F5F3F4F4091DE025091DF02C2
:102DE000415051098091F4029091F502099534C146
:102DF0006091DE027091DF02822F0E945D1380914C
:102E0000DE029091DF0201969093DF028093DE0252
:102E100023C16091DB027091DC026115710509F438
:102E2000AFC027FDADC0615071097093DC026093A3
:102E3000DB02822F0E945D138091DB029091DC0205
:102E4000892B09F009C18091D902882309F404C1B2
:102E5000803D09F47FC030F4803939F1803C09F4B9
:102E600066C08BC0843FE1F1853F09F44DC0803ED0
:102E700009F083C0E091F802F091F902309709F46B
:102E80007CC0A091D502B091D6028C9111964C9144
:102E900050E090E8899F400D511D11246091DA02A5
:102EA0008091E0029091E10267C0E091FA02F09116
:102EB000FB02309709F461C0A091D502B091D6020F
:102EC0008C9111964C9150E0A0E88A9F400D511DC5
:102ED00011246091DA028091E2029091E3024CC0E9
:102EE000E0910003F0910103309709F446C0A091EE
:102EF000D502B091D6024C9150E011966C91809120
:102F0000E8029091E90238C0E0910203F0910303D6
:102F1000309799F1A091D502B091D6024C9150E032
:102F200011966C918091EA029091EB0225C0E0919C
:102F3000FC02F091FD02309701F1A091D502B09111
:102F4000D6024C9150E06091DA028091E4029091B7
:102F5000E50212C0E091FE02F091FF02309769F0A5
:102F6000A091D502B091D6024C9150E06091DA0266
:102F70008091E6029091E70209951092D9026CC007
:102F8000903F30F4822F8F708093DA02922F907FDF
:102F9000903F79F158F4903C29F118F49039E9F018
:102FA0005BC0903DF9F0903EC1F056C0993F09F4E6
:102FB00048C028F48CE0890F823078F04DC09F3FE4
:102FC00009F04AC01092DC021092DB021092D90282
:102FD0001092DA0280E090E013C0F092DC02E092FE
:102FE000DB0204C0D092DC02C092DB029093D902D3
:102FF00033C07092DD021092DF021092DE022CC00C
:103000002091D7023091D8028217930748F4E091BB
:10301000D502F091D602E80FF91F10820196F0CF89
:103020001092DD021092DF021092DE02E0910E0398
:10303000F0910F03309781F08091F6029091F702A2
:103040000AC0E0910C03F0910D03309729F08091B4
:10305000EE029091EF0209958091E401813009F42C
:1030600020CE7092E4011DCE37E4A32E34E0B32EBF
:103070000FE314E0F8018081882309F44DC00E9419
:103080001E0D1B012C01F80183859485A585B6854D
:10309000B201A101481B590B6A0B7B0B8181928104
:1030A000A381B481481759076A077B0730F18081F3
:1030B000813019F0823059F016C0D8010184F285B0
:1030C000E02D51968D919C91529709950CC061E02D
:1030D000F5019081911160E0D5016C93F501319774
:1030E00080810E947409F8012386348645865686BD
:1030F000878590890196908B8787D80115968D9149
:103100009C91169797FD08C01F962D913C91509762
:10311000281739070CF01C920D5E1F4FB3E1AB0E60
:10312000B11CE4E00D3F1E0709F0A4CF82E0682E39
:1031300091EA592E23E0422E8DEF94E00E946C0814
:10314000892B09F45AC18DEF94E00E948408909174
:10315000E401923011F06092E4019FEB980F9530FA
:1031600010F0883429F47092E6018093E501E4CFF1
:10317000893449F560912604709127046115710521
:1031800049F040912A0450912B0480E294E00E947F
:10319000411114C08091200490912104009711F0F6
:1031A0000E94771F1092210410922004109225048F
:1031B00010922404109223041092220486E294E0D8
:1031C0000E945013B9CF8A3409F0B3C02091E501B1
:1031D0008FEB820F823018F0283409F071C0809193
:1031E000200490912104009729F02B830E94851BD5
:1031F0002B8103C060E070E0CB011B0180912604AD
:1032000090912704009739F02B830E94851B4B0176
:103210005C012B8103C0812C912C54018401213449
:10322000A1F42114310411F461E004C02A9423288C
:1032300049F460E084E00E947409B40185E00E94D2
:10324000FB096CC060E070E0F9CF223491F42114E6
:10325000310411F461E004C02A94232839F460E0B9
:1032600087E00E947409B40186E0E9CF60E070E075
:10327000FBCFA101330C660B770B4115510561059E
:10328000710539F4C501B401882799270E94810A84
:1032900004C094018EE00E948911B801110F880BBF
:1032A000990B0E94810A8091E301811137C06091DE
:1032B000B9017091BA016115710581F18BE0BFCF41
:1032C0008DEB820F833050F5809126049091270476
:1032D000009729F02B830E94851B2B8101C060E0A1
:1032E000062F10E0B801233441F489E00E94FB0965
:1032F0001093B2010093B10111C0243441F48AE06B
:103300000E94FB091093B6010093B50107C08BE042
:103310000E94FB091093BA010093B90186E294E080
:103320000E94501380E294E00E9450131092E60134
:1033300003CF863451F460E070E08BE00E94FB091B
:103340000E946C117092E301F7CE873469F55092B8
:1033500080004092810010928900109288001092A3
:103360008B0010928A006091B1017091B2016115D9
:10337000710519F089E00E94FB096091B501709117
:10338000B6016115710519F08AE00E94FB09609190
:10339000B9017091BA016115710519F08BE00E94B5
:1033A000FB091092E301C8CE9091E601992309F43C
:1033B000C3CE89831A8200912A0410912B040F5FD7
:1033C0001F4FB80186E294E00E94F508882309F4B3
:1033D000B3CE209126043091270480912A04909145
:1033E0002B04BE016F5F7F4F820F931F0E94E72067
:1033F00010932B0400932A049FCE0E94900751CC77
:103400001092F8011092F70148EE53E060E070E08E
:103410004093F9015093FA016093FB017093FC0112
:103420008AE091E09093F6018093F50185EC90E0BD
:10343000909302028093010284EC90E09093040246
:103440008093030280EC90E0909306028093050243
:1034500081EC90E0909308028093070282EC90E068
:1034600090930A028093090286EC90E090930C02FC
:1034700080930B0210920E0210920F021092100213
:103480001092110282E992E01092D3021092D202BD
:103490009093D6028093D50220E430E03093D80296
:1034A0002093D7021092D9021092DA021092DC0215
:1034B0001092DB021092DD021092DF021092DE0207
:1034C0001092E1021092E0021092E3021092E202E6
:1034D0001092E5021092E4021092E7021092E602C6
:1034E0001092E9021092E8021092EB021092EA02A6
:1034F0001092F1021092F0021092F3021092F20276
:103500001092F5021092F4021092F7021092F60255
:1035100010920503109204031092D4021092120329
:1035200010921403109213031092510324EE38E00A
:103530003093F9022093F8022AED38E03093FB0231
:103540002093FA022CEB38E03093FD022093FC022A
:1035500022EB38E03093FF022093FE0220ED38E0AA
:10356000309301032093000326EC38E030930303EB
:103570002093020321EB38E03093070320930603E6
:1035800026EA38E030930903209308032AE331E167
:1035900030930B0320930A039093ED028093EC0287
:1035A0002EEE38E030930D0320930C039093EF023E
:1035B0008093EE0285EA98E090930F0380930E03C8
:1035C000109200051092FF044093010550930205EC
:1035D00060930305709304058AE191E09093FE04E3
:1035E0008093FD0410921405109213051092160595
:1035F00010921505109218051092170510921A05D1
:103600001092190560911B056E7F6D7F60931B05FD
:103610006695617081E0682782E00E94740961E02C
:1036200082E00E94A409E0EBF0E0E491E0930D0554
:10363000ECE9F0E0E491F0E0EE0FFF1FEA57FF4FF6
:103640008591949190930F0580930E0560E083E03F
:103650000E94A40980911B0581FD04C061E083E004
:103660000E94740983E080930905E1EBF0E0E491A6
:10367000E0930A05EDE9F0E0E491F0E0EE0FFF1FC2
:10368000E057FF4F8591949190930C0580930B0523
:10369000EFE3F4E01082739684E0ED3FF807D1F792
:1036A00088E0809352031092540320E931E04DE00A
:1036B0006CE08CE294E00E949B0D10922704109223
:1036C0002604109229041092280410922B041092C0
:1036D0002A0440E050E066E271E086E294E00E9455
:1036E0004111109221041092200410922304109290
:1036F0002204109225041092240440E050E066E277
:1037000071E080E294E00C9441111F93FC01992731
:103710008827BC01E89411911032E9F3193010F0B8
:103720001E30C8F31B3251F01D3249F4689406C0B4
:103730000E94AC1B610F711D811D911D11911053D1
:103740001A30B0F33EF490958095709561957F4F57
:103750008F4F9F4F1F910895592F482F372F262F96
:10376000660F771F881F991F660F771F881F991F85
:10377000620F731F841F951F660F771F881F991F85
:1037800008950E94031C08F481E00895E89409C09C
:1037900097FB3EF490958095709561957F4F8F4F84
:1037A0009F4F9923A9F0F92F96E9BB279395F6959A
:1037B000879577956795B795F111F8CFFAF4BB0F18
:1037C00011F460FF1BC06F5F7F4F8F4F9F4F16C07C
:1037D000882311F096E911C0772321F09EE8872F06
:1037E000762F05C0662371F096E8862F70E060E0C2
:1037F0002AF09A95660F771F881FDAF7880F96953B
:10380000879597F90895990F0008550FAA0BE0E8DE
:10381000FEEF16161706E807F907C0F01216130692
:10382000E407F50798F0621B730B840B950B39F4D2
:103830000A2661F0232B242B252B21F408950A2638
:1038400009F4A140A6958FEF811D811D08950E9466
:103850003A1C0C94AB1C0E949D1C38F00E94A41CC6
:1038600020F0952311F00C94941C0C949A1C1124B4
:103870000C94DF1C0E94BC1C70F3959FC1F3950F44
:1038800050E0551F629FF001729FBB27F00DB11DE4
:10389000639FAA27F00DB11DAA1F649F6627B00D74
:1038A000A11D661F829F2227B00DA11D621F739F5D
:1038B000B00DA11D621F839FA00D611D221F749F6B
:1038C0003327A00D611D231F849F600D211D822FB2
:1038D000762F6A2F11249F5750409AF0F1F08823D9
:1038E0004AF0EE0FFF1FBB1F661F771F881F915006
:1038F0005040A9F79E3F510580F00C94941C0C9405
:10390000DF1C5F3FE4F3983ED4F386957795679587
:10391000B795F795E7959F5FC1F7FE2B880F911D2F
:103920009695879597F9089597F99F6780E870E0D5
:1039300060E008959FEF80EC089500240A94161625
:10394000170618060906089500240A94121613068D
:10395000140605060895092E0394000C11F488231B
:1039600052F0BB0F40F4BF2B11F460FF04C06F5F37
:103970007F4F8F4F9F4F089557FD9058440F551F0D
:1039800059F05F3F71F04795880F97FB991F61F0E1
:103990009F3F79F087950895121613061406551F58
:1039A000F2CF4695F1DF08C0161617061806991FC4
:1039B000F1CF86957105610508940895E894BB27B9
:1039C00066277727CB0197F908950E94271DA59FA9
:1039D000900DB49F900DA49F800D911D112408950A
:1039E0002F923F924F925F926F927F928F929F920F
:1039F000AF92BF92CF92DF92EF92FF920F931F93FD
:103A0000CF93DF93CDB7DEB7CA1BDB0B0FB6F894AD
:103A1000DEBF0FBECDBF09942A88398848885F84ED
:103A20006E847D848C849B84AA84B984C884DF805E
:103A3000EE80FD800C811B81AA81B981CE0FD11D42
:103A40000FB6F894DEBF0FBECDBFED010895A29F63
:103A5000B001B39FC001A39F700D811D1124911D62
:103A6000B29F700D811D1124911D08955058BB27E0
:103A7000AA270E944E1D0C94AB1C0E949D1C38F07E
:103A80000E94A41C20F039F49F3F19F426F40C94F2
:103A90009A1C0EF4E095E7FB0C94941CE92F0E940D
:103AA000BC1C58F3BA17620773078407950720F008
:103AB00079F4A6F50C94DE1C0EF4E0950B2EBA2FCB
:103AC000A02D0B01B90190010C01CA01A001112424
:103AD000FF27591B99F0593F50F4503E68F11A16D0
:103AE000F040A22F232F342F4427585FF3CF469561
:103AF00037952795A795F0405395C9F77EF41F1683
:103B0000BA0B620B730B840BBAF09150A1F0FF0F4C
:103B1000BB1F661F771F881FC2F70EC0BA0F621F38
:103B2000731F841F48F4879577956795B795F79528
:103B30009E3F08F0B0CF9395880F08F09927EE0FBD
:103B40009795879508950E94B71D0C94AB1C0E9411
:103B5000A41C58F00E949D1C40F029F45F3F29F0FE
:103B60000C94941C51110C94DF1C0C949A1C0E9410
:103B7000BC1C68F39923B1F3552391F3951B550BA6
:103B8000BB27AA2762177307840738F09F5F5F4F30
:103B9000220F331F441FAA1FA9F335D00E2E3AF06F
:103BA000E0E832D091505040E695001CCAF72BD087
:103BB000FE2F29D0660F771F881FBB1F26173707D8
:103BC0004807AB07B0E809F0BB0B802DBF01FF270A
:103BD00093585F4F3AF09E3F510578F00C94941C37
:103BE0000C94DF1C5F3FE4F3983ED4F38695779501
:103BF0006795B795F7959F5FC9F7880F911D9695C3
:103C0000879597F90895E1E0660F771F881FBB1F1E
:103C1000621773078407BA0720F0621B730B840BCB
:103C2000BA0BEE1F88F7E09508950E941C1E689459
:103C3000B1110C94DF1C08950E94C41C88F09F579A
:103C400098F0B92F9927B751B0F0E1F0660F771FC0
:103C5000881F991F1AF0BA95C9F714C0B13091F0B6
:103C60000E94DE1CB1E008950C94DE1C672F782FB3
:103C70008827B85F39F0B93FCCF38695779567957B
:103C8000B395D9F73EF490958095709561957F4FE7
:103C90008F4F9F4F0895DB018F939F930E94E51CE8
:103CA000BF91AF91A29F800D911DA39F900DB29FD8
:103CB000900D1124089597FB072E16F4009407D059
:103CC00077FD09D00E94C81E07FC05D03EF49095F0
:103CD00081959F4F0895709561957F4F0895A1E25A
:103CE0001A2EAA1BBB1BFD010DC0AA1FBB1FEE1F76
:103CF000FF1FA217B307E407F50720F0A21BB30BC1
:103D0000E40BF50B661F771F881F991F1A9469F73C
:103D100060957095809590959B01AC01BD01CF0198
:103D200008950F93083090F0982F872F762F652FE6
:103D3000542F432F322F22270850F4CF220F331F46
:103D4000441F551F661F771F881F991F0A95B2F7DA
:103D50000F91089597FB10F8169400080F93083000
:103D600098F00850232F342F452F562F672F782F88
:103D7000892F902DF4CF0594979587957795679522
:103D800057954795379527950A95AAF70F91089566
:103D9000AA1BBB1B51E107C0AA1FBB1FA617B70771
:103DA00010F0A61BB70B881F991F5A95A9F780958D
:103DB0009095BC01CD010895EE0FFF1F0590F49181
:103DC000E02D0994CF93DF938230910510F482E0C7
:103DD00090E0E0911E05F0911F0520E030E0C0E08A
:103DE000D0E0309711F14081518148175907C0F058
:103DF0004817590761F482819381209719F09B83BA
:103E00008A832BC090931F0580931E0526C0211521
:103E1000310519F04217530718F49A01BE01DF016A
:103E2000EF010280F381E02DDCCF2115310509F18E
:103E3000281B390B2430310590F412968D919C91FA
:103E400013976115710521F0FB019383828304C0F0
:103E500090931F0580931E05FD01329644C0FD011D
:103E6000E20FF31F81939193225031092D933C93DC
:103E70003AC020911C0530911D05232B41F420915F
:103E800002013091030130931D0520931C05209100
:103E90000001309101012115310541F42DB73EB7E4
:103EA0004091040150910501241B350BE0911C0544
:103EB000F0911D05E217F307A0F42E1B3F0B281706
:103EC000390778F0AC014E5F5F4F2417350748F093
:103ED0004E0F5F1F50931D0540931C0581939193D6
:103EE00002C0E0E0F0E0CF01DF91CF9108950F93A1
:103EF0001F93CF93DF93009709F48CC0FC01329796
:103F00001382128200911E0510911F0501151105E3
:103F100081F420813181820F931F20911C05309103
:103F20001D052817390779F5F0931D05E0931C0549
:103F300071C0D80140E050E0AE17BF0750F41296B0
:103F40002D913C911397AD012115310509F1D9014E
:103F5000F3CF9D01DA013383228360817181860F63
:103F6000971F8217930769F4EC0128813981260F86
:103F7000371F2E5F3F4F318320838A819B8193833C
:103F80008283452B29F4F0931F05E0931E0542C060
:103F90001396FC93EE931297ED01499159919E016E
:103FA000240F351FE217F30771F480819181840F8C
:103FB000951F029611969C938E93828193811396FE
:103FC0009C938E931297E0E0F0E0D80112968D91C9
:103FD0009C911397009719F0F8018C01F6CF8D9101
:103FE0009C9198012E5F3F4F820F931F20911C05DB
:103FF00030911D052817390769F4309729F410927C
:104000001F0510921E0502C01382128210931D0517
:1040100000931C05DF91CF911F910F910895A0E0AF
:10402000B0E0E5E1F0E20C94F41CEC01009721F41F
:10403000CB010E94E21EB8C0FC01E60FF71F9C01F5
:1040400022503109E217F30708F4ACC0D9010D91F1
:104050001C91119706171707B0F00530110508F4E9
:104060009FC0C80104978617970708F499C00250AB
:104070001109061B170B019311936D937C93CF01CC
:104080000E94771F8DC05B01A01AB10A4C01800EFF
:10409000911EA0911E05B0911F0540E050E0E12C5B
:1040A000F12C109709F44AC0A815B905D1F56D9007
:1040B0007C901197630182E0C80ED11CCA14DB0406
:1040C00080F1A3014A195B096A0182E0C80ED11C84
:1040D0001296BC9012971396AC91B5E0CB16D10412
:1040E00040F0B282A38351834083D9016D937C93C6
:1040F0000AC00E5F1F4FC301800F911FF90191830A
:104100008083EB2DFA2FE114F10431F0D7011396DF
:10411000FC93EE93129744C0F0931F05E0931E05A5
:104120003FC08D919C9111974817590708F4AC0135
:104130007D0112960D90BC91A02DB3CF80911C05EE
:1041400090911D0588159905E1F446175707C8F4A5
:104150008091000190910101009741F48DB79EB7C5
:104160004091040150910501841B950BE817F90754
:10417000C8F4F0931D05E0931C05F9017183608379
:104180000FC0CB010E94E21E7C01009759F0A801EC
:10419000BE010E94DE20CE010E94771FC70104C02D
:1041A000CE0102C080E090E0CDB7DEB7EEE00C9427
:1041B000101D81E090E0F8940C94EE20FB01DC01EE
:1041C00002C001900D9241505040D8F70895FB0174
:1041D000DC0101900D920020E1F7089510E0C2E6A5
:1041E000D0E004C0FE010E94DC1E2196C336D10738
:0641F000C9F7F894FFCFAF
:1041F600000020058000000000002707A306F00647
:10420600CE06E2066E07000000001808A3066C083A
:084216008408FF0717080000EF
:00000001FF
