:100000000C9462000C948A000C948A000C94FB0BF4
:100010000C94FB0B0C94FB0B0C948A000C948A0040
:100020000C948A000C948A000C948A000C94180B8F
:100030000C948A000C948A000C948A000C948A0018
:100040000C9431160C948A000C9495140C946F1433
:100050000C948A000C948A000C948A000C948A00F8
:100060000C947B160C948A000000000024002700EA
:100070002A0000000000250028002B0000000000DE
:1000800023002600290004040404040404040202DA
:100090000202020203030303030301020408102007
:1000A0004080010204081020010204081020000012
:1000B0000008000201000003040700000000000027
:1000C0000000DC1C11241FBECFEFD8E0DEBFCDBF87
:1000D00011E0A0E0B1E0E2EFF6E402C005900D927D
:1000E000AE35B107D9F725E0AEE5B1E001C01D920C
:1000F000AC38B207E1F710E0C2E6D0E004C02197C7
:10010000FE010E946521C136D107C9F70E949918E6
:100110000C9477230C9400002F923F924F925F92A1
:100120006F927F928F929F92AF92BF92CF92DF9207
:10013000EF92FF920F931F93CF93DF9300D000D0E5
:1001400000D0CDB7DEB787EE93E090937602809330
:1001500075028091AF0490E09093780280937702CB
:100160008091E303853009F0A6C38091E903909163
:10017000EA03885891098D35910588F48091AF0480
:10018000843041F48091EB039091EC038097479782
:1001900008F40CC28091AF04843408F0EEC1809161
:1001A000AF048A3108F450C08091E7039091E803CE
:1001B000843F914080F410927402109273028FEF8A
:1001C0009FEFDC0180936F0290937002A093710205
:1001D000B093720257C08091E9039091EA0385972A
:1001E0004B9790F5EDEEF3E082E090E040E050E0D8
:1001F000BA012091AF0430E0DC011196A217B307D9
:1002000054F4DF0112972D913C912750310927308A
:10021000310508F403C20197959587959093740270
:10022000809373020C972CF4109274021092730254
:100230000BC040936F0250937002609371027093F1
:10024000720282E090E02BC38091AF048A3108F4FF
:1002500049C08091E7039091E8038032934008F40D
:10026000AACF8091E9039091EA03C697869708F494
:10027000F1C138C040936F025093700260937102D5
:100280007093720289E090E00AC320813181255287
:1002900031092B31310508F0EDC1440F551F661FA0
:1002A000771F4160029634962091AF0430E0DC0164
:1002B0001196A217B3074CF4DF0112972D913C91D0
:1002C0002C5031092B30310500F301979595879516
:1002D00090937402809373020C9764F610927402E8
:1002E000109273028091AF04823208F44CC0809166
:1002F000E9039091EA030697079708F044C0EDEEF2
:10030000F3E082E090E040E050E0BA018C010F5F42
:100310001F4F2091AF0430E002171307DCF4DF0118
:1003200012972D913C9111972E51310927313105AA
:1003300008F0ADC1440F551F661F771F4160208133
:1003400031813496235031092530310510F402965D
:10035000DDCFC8010197959587959093740280939E
:10036000730240972CF410927402109273020BC027
:1003700040936F0250937002609371027093720207
:100380008AE090E08CC28091AF048D3048F4809177
:10039000770290917802181619060CF483C08FC06A
:1003A00081E090E09C838B831A82198249E753E0B5
:1003B000BE016F5F7F4FCE0103960E942518892BE7
:1003C00021F080E090E0DC0167C049E753E0BE0126
:1003D0006F5F7F4FCE0103960E942518019789F722
:1003E00049E753E0BE016F5F7F4FCE0103960E9445
:1003F0002518892B31F700E010E0C12CD12C7601B3
:100400008091AF0490E02B813C812817390774F567
:1004100049E753E0BE016F5F7F4FCE0103960E9414
:1004200025185C0149E753E0BE016F5F7F4FCE01A5
:1004300003960E942518B1E0AB16B10451F4892B44
:1004400009F0BFCFCC0CDD1CEE1CFF1C6894C0F87B
:100450000AC0AB2809F0B5CF019709F0B2CFCC0C98
:10046000DD1CEE1CFF1C0F5F1F4FCACF10937402E0
:1004700000937302C0926F02D0927002E0927102F8
:10048000F092720283E090E090936C0280936B0292
:1004900081E090E0A0E0B0E0892B8A2B8B2B09F063
:1004A00002C275CF81E090E09C838B83E09175025E
:1004B000F09176028281938189974E9720F080E0B7
:1004C00090E0DC014AC082E090E09C838B838481D1
:1004D00095810B970A9798F783E090E09C838B8334
:1004E0001A8219824CEB51E0BE016F5F7F4FCE0143
:1004F00003960E942518892B11F74CEB51E0BE01A1
:100500006F5F7F4FCE0103960E9425180197B9F6C1
:1005100000E010E0C12CD12C76012B813C81809130
:10052000770290917802281739070CF4BDC0109318
:10053000740200937302C0926F02D0927002E09234
:100540007102F092720284E090E090936C028093CA
:100550006B0281E090E0A0E0B0E0892B8A2B8B2B2E
:1005600009F0A1C1E0917502F09176028281938138
:10057000C697869708F4E9C03EC18091EB0390913D
:10058000EC03825491098E9708F009CE20E030E008
:1005900080E090E0DC01F901E351FC4F40815181A2
:1005A000495051094930510588F0F9CD8091ED034A
:1005B0009091EE030997099708F0ECCD1092740220
:1005C000109273028FEF9FEFDC0178C1F901E151C6
:1005D000FC4F40815181475151094231510588F406
:1005E000880F991FAA1FBB1F81602C5F3F4F2038C7
:1005F000310589F620E230E03093740220937302D3
:100600005DC140815181465051094730510508F084
:10061000C6CD880F991FAA1FBB1FE7CF208131814C
:10062000235131092F30310540F4440F551F661F07
:10063000771F416002963496DCCD208131812A50AB
:1006400031092930310508F0FFCD440F551F661FD1
:10065000771FF0CF8091EB039091EC03C6978697BC
:1006600008F040CEEFEEF3E083E090E040E050E0B1
:10067000BA011ACE208131812C5031092A3031053E
:1006800008F030CE440F551F661F771F0BCE2D91FB
:100690003C912C5031092B30310508F074CE440FB9
:1006A000551F661F771F4BCE4CEB51E0BE016F5FAD
:1006B0007F4FCE0103960E9425184C01033011058F
:1006C00071F04CEB51E0BE016F5F7F4FCE0103969E
:1006D0000E9425185C0103301105D9F40DC04CEBC4
:1006E00051E0BE016F5F7F4FCE0103960E94251837
:1006F0008816990631F3E3CE4CEB51E0BE016F5FF3
:100700007F4FCE0103960E942518A816B90609F05E
:10071000D6CE8114910459F4AA94AB2809F0CFCE17
:10072000CC0CDD1CEE1CFF1C6894C0F80BC08A9436
:10073000892809F0C4CEAB2809F0C1CECC0CDD1C51
:10074000EE1CFF1C0F5F1F4FE8CE848195814B97F5
:10075000459708F050C0DF0116967F0126ECE20EA7
:10076000F11C20E030E040E050E060E070E080E02C
:1007700090E00D911C911197095011090830110555
:10078000D0F512960D911C911397015111090D305E
:10079000110520F501E00E941A2121601496AE1582
:1007A000BF0539F720936F023093700240937102B6
:1007B0005093720200E20E94352120936D02309323
:1007C0006E0287E090E090936C0280936B0280E36E
:1007D00090E0909374028093730265C012960D911D
:1007E0001C911397045011090530110520F401E004
:1007F0000E941A21D3CF8281938189579109833531
:100800009105D0F48091AF048933B0F08481958153
:10081000CA97899788F49F012A5F3F4FC12CD12C3A
:10082000760143E050E0D9016D917C916A507109E5
:100830006930710508F407C18091AF04823209F470
:1008400048C082819381895791098335910508F4C5
:1008500062C1828193818C549109C59708F045C08B
:100860008091AF048430E1F584819581809747972A
:10087000B8F5868197810997099790F510927402CF
:10088000109273028FEF9FEFDC0180936F029093C1
:100890007002A0937102B09372028BE090E090938B
:1008A0006C0280936B0281E090E033C282E080931F
:1008B000E3031092AF0480E090E02BC280936F02BC
:1008C00090937002A0937102B093720281E090E065
:1008D000E6CF828193810A97099708F4FDC0B1CFD2
:1008E0008091AF04843408F07BC18091AF048634DA
:1008F00060F1828193810C970B9708F4C2C125C0E7
:10090000D90112966D917C9113976E5171096731DF
:10091000710508F0EEC1D701C601880F991FAA1F03
:10092000BB1F6C017D016894C0F84E5F5F4F2C5F68
:100930003F4F4534510509F4BFC1D9016D917C91F8
:100940006C5071096B307105D8F2809177029091EB
:1009500078029E838D8306970CF4A8CF8F010A5FDF
:100960001F4F75ECC72E7DE9D72E7CE1E72E71E88D
:10097000F72EE3E02E2E312CD8016D917C91F801F9
:100980003497A080B18080E090E00E944F1E2B0140
:100990003C01B50180E090E00E944F1E4B015C01DC
:1009A0002DEC3CEC4CE45FE30E94B01E9B01AC01DB
:1009B000C301B2010E944A1E87FD17C02DEC3CEC1A
:1009C0004CE45FE3C301B2010E94B01E9B01AC0185
:1009D000C501B4010E944A1EE82F880FFF0BEE27C5
:1009E000FF0FEE1FFF27319602C0E0E0F0E0A70105
:1009F000960163E971E080E091E00E94F6206F01CA
:100A0000FF0FEE08FF08C626D726E826F926BFEF17
:100A10002B1A3B0A0E5F1F4FED81FE812E163F06FB
:100A200009F0AACFC0926F02D0927002E0927102D8
:100A3000F092720280E290E09093740280937302CD
:100A40008FEF9FEF2CCFD90112966D917C91139768
:100A5000665171096131710578F5D701C601880FBA
:100A6000991FAA1FBB1F6C017D016894C0F84E5FDF
:100A70005F4F2C5F3F4F4B33510509F0D4CE9F01A0
:100A80002A583F4FD9012D913C912A5031092930E4
:100A9000310508F0D1CE2CE130E030937402209380
:100AA0007302C0926F02D0927002E0927102F092D3
:100AB00072028CE090E0F3CED90112966D917C9198
:100AC0001397665071096730710508F0B5CECC0CEC
:100AD000DD1CEE1CFF1CCBCF2091AF04CF01820F99
:100AE000911D820F911DDC0112978D919C910A97A7
:100AF000099708F0A6CE10927402109273028FEF3D
:100B00009FEFDC0180936F0290937002A0937102BB
:100B1000B093720262C08091AF04813208F499CE22
:100B200084819581CA97899708F093CE9F012A5FA7
:100B30003F4FC12CD12C760143E050E0D9016D919B
:100B40007C916A5071096930710508F082CED90133
:100B500012966D917C9113976651710961317105FF
:100B600060F5D701C601880F991FAA1FBB1F6C0132
:100B70007D016894C0F84E5F5F4F2C5F3F4F43325A
:100B80005105E1F69F012A5B3F4FD9012D913C9120
:100B90002A5031092930310508F05BCE20E130E0E0
:100BA0003093740220937302C0926F02D09270024D
:100BB000E0927102F092720210C0D90112966D910A
:100BC0007C911397665071096730710508F041CE2A
:100BD000CC0CDD1CEE1CFF1CCECF88E090E05FCE7D
:100BE0008481958189549109C39708F07ECE9F0135
:100BF0002A5F3F4FBF016A577F4FC12CD12C76012E
:100C0000D9014D915C91495051094930510508F085
:100C10006CCED90112964D915C91139746515109B2
:100C200041315105F0F4D701C601880F991FAA1F61
:100C3000BB1F6C017D016894C0F82C5F3F4F2617E5
:100C40003707F1F620E230E030937402209373020C
:100C5000C0926F02D0927002E0927102F092720222
:100C60001CCED90112964D915C91139746505109B3
:100C70004730510508F039CECC0CDD1CEE1CFF1CB2
:100C8000DCCF848195810997099708F05ECE868133
:100C900097818C974F9708F058CE808591858997DA
:100CA0004D9708F052CE9F01265F3F4FC12CD12CAB
:100CB000760145E050E041CE9F0126573F4FD901D4
:100CC0002D913C912C5031092B30310508F03DCE4F
:100CD00020E230E03093740220937302C0926F02DE
:100CE000D0927002E0927102F09272028DE090E078
:100CF000D6CDD90112966D917C91139769507109E7
:100D00006930710508F021CECC0CDD1CEE1CFF1CF7
:100D10000CCE26960FB6F894DEBF0FBECDBFDF9186
:100D2000CF911F910F91FF90EF90DF90CF90BF90E8
:100D3000AF909F908F907F906F905F904F903F907B
:100D40002F900895089508952F923F925F926F9289
:100D50007F928F929F92AF92BF92CF92DF92EF924B
:100D6000FF920F931F93CF93DF937C013901DA0138
:100D70005C90232B19F466246A94762C8A011A015C
:100D8000260E371EC0E0D0E0812C912C87E0C82EC3
:100D9000D12C0215130509F444C08614970408F0F9
:100DA00068C05801F70180819181FC01A081B18167
:100DB000F80121918F01E22F0C2E01C0EE0F0A9451
:100DC000EAF7652D6E2B6F77ED91FC9109958FEF0A
:100DD000881A980AD5016C9170E0C6018C1B9D0B96
:100DE00002C0759567958A95E2F7562E2196C73011
:100DF000D10578F28614970461F2F7018081918120
:100E0000DC01ED91FC91652D6F770190F081E02D73
:100E10000995BFEF8B1A9B0A551C5524551C279723
:100E2000E6CF209731F18614970418F5F7018081F9
:100E30009181DC01ED91FC9161E070E001C0660FF1
:100E4000CA95EAF7615065210190F081E02DDF91AC
:100E5000CF911F910F91FF90EF90DF90CF90BF90B7
:100E6000AF909F908F907F906F905F903F902F906A
:100E70000994DF91CF911F910F91FF90EF90DF9038
:100E8000CF90BF90AF909F908F907F906F905F902A
:100E90003F902F9008950895862F642FE0917C0154
:100EA000F0917D01309711F0A901099408950895FA
:100EB000862FE0917401F0917501309711F0BA011D
:100EC00009940895862FE0917601F091770130978B
:100ED00011F0BA0109940895862FE0917001F09104
:100EE0007101309711F0BA0109940895862FE091AD
:100EF0007201F0917301309711F0BA0109940895CD
:100F0000862FE0917801F0917901309711F0BA01C4
:100F100009940895862FE0917A01F0917B01309732
:100F200011F0BA01099408950F931F93CF93DF93A3
:100F3000EC01423018F08C8188608C834F83688785
:100F4000222329F0413019F48C8184608C8364E67B
:100F500070E080E090E00E94EB156C8164FD31C090
:100F6000E881F9810284F385E02D42E063E0CE015F
:100F700009958BE496E40197F1F7E881F981028401
:100F8000F385E02D42E063E0CE01099503E512E030
:100F9000C8010197F1F7E881F9810284F385E02D1A
:100FA00042E063E0CE010995C8010197F1F7E881BD
:100FB000F9810284F385E02D42E062E0CE010995DB
:100FC00017C06062CE010E9408188BE496E4019776
:100FD000F1F76C816062CE010E94081803E512E00F
:100FE000C8010197F1F76C816062CE010E94081878
:100FF000C8010197F1F76C816062CE010E94081868
:101000008BEE90E00197F1F784E08D836CE0CE01E8
:101010000E940818CE010E94101882E08E8366E0BC
:10102000CE010E940818E881F9810084F185E02D45
:101030006FEFCE01DF91CF911F910F91099400972F
:1010400021F0805C9F4F0C94ED100895CF93DF93B7
:1010500094E0899FF0011124E258FE4F20813181F4
:101060002330310559F4D62FC82F61E00E94201596
:101070006D2F8C2FDF91CF910C94F014DF91CF91D5
:1010800008956115710551F494E0899FF0011124D0
:10109000E258FE4F1182108260E019C06130710584
:1010A00049F494E0899FF0011124E258FE4F83E057
:1010B00090E01AC06230710561F494E0899FF001FC
:1010C0001124EA54FE4F1182108260E0825F0C947A
:1010D00020156430710551F494E0899FF0011124CA
:1010E000E258FE4F81E090E09183808308954F9213
:1010F0005F926F927F92AF92BF92CF92DF92EF9208
:10110000FF920F931F93CF93DF9300D000D0CDB702
:10111000DEB74EE7E42E41E0F42E670110E0D60181
:101120008D919C911197019709F512968D919C9143
:10113000139761E0863F994021F4812F0E9420158A
:1011400011C0812F0E942015F601A280B380F8EA19
:10115000AF1AFDEFBF0A61E0812F0E94F014C501B4
:101160000E94BB1560E0812F0E94F0141F5F24E0F5
:10117000C20ED11C1E3099F636EBC32E31E0D32EB1
:1011800010E0D6018D919C91892B09F065C0812FCB
:10119000806480937C0080917A00806480937A00E0
:1011A00080917A0086FDFCCF2091780080917900B3
:1011B00030E0382B3C832B83809162039091630352
:1011C000009709F449C0DC01ED91FC910190F08198
:1011D000E02D2115304478F4612F606E099522E0EE
:1011E00030E0AE014D5F5F4F62E070E082E693E079
:1011F0000E94A40631C060EF09958091620390912E
:101200006303DC01ED91FC910190F081E02D6FE62C
:1012100009958091620390916303DC01ED91FC914B
:101220000190F081E02D612F099522E030E0AE01C0
:101230004D5F5F4F62E070E082E693E00E94A4069B
:101240008091620390916303DC01ED91FC91019028
:10125000F081E02D67EF09951F5FB4E0CB0ED11C44
:10126000163009F08ECF10E0F70180819181892B33
:1012700019F5812F0E94C714009711F08FEF93E0AA
:101280009A83898380916203909163030097A1F010
:10129000DC01ED91FC910190F081E02D612F6069FE
:1012A000099522E030E0AE014F5F5F4F62E070E0F1
:1012B00082E693E00E94A4061F5FB4E0EB0EF11CEF
:1012C0001E3091F680916C018F5F80936C018132AA
:1012D00009F0C3C010926C0110926701109268016E
:1012E0001092690110926A0110926B0161E084E032
:1012F0000E94201560E084E00E94F01464E170E038
:1013000080E090E00E94EB1561E084E00E94F01420
:101310008BE990E00197F1F760E084E00E942015EE
:1013200001E117E284E00E94C714892B21F40150E7
:101330001109C1F775C001E117E284E00E94C714EA
:10134000019721F401501109C1F76AC098E2E92E12
:10135000F12C17E000E0CC24C394D12C81E1A82E1D
:1013600087E2B82E84E00E94C714892B29F4E1E0BB
:10137000AE1AB108B9F754C00E94C6152B013C0142
:10138000B1E1AB2EB7E2BB2E84E00E94C7140197F7
:1013900029F4F1E0AF1AB108B9F742C00E94C615AE
:1013A000DC01CB0184199509A609B7098997A10524
:1013B000B10568F0E02FF0E0E15AFE4F2085C6014C
:1013C000012E01C0880F0A94EAF7822B8087111141
:1013D00003C00F5F17E001C0115021E0E21AF108CD
:1013E00009F0BCCF6091670170E080E090E00E945E
:1013F0004F1E60935F017093600180936101909331
:1014000062016091690170E080E090E00E944F1EEF
:10141000609363017093640180936501909366010A
:1014200080EF0E94181860915F01709160018091B7
:101430006101909162010E94C720862F0E941818B6
:1014400060916301709164018091650190916601E2
:101450000E94C720862F0E9418186AE070E080E082
:1014600090E00E94EB150E948C00892B09F482C049
:1014700080915E01882309F47DC0409175025091EE
:10148000760284E023E230E06AE070E0E82FF0E0EA
:10149000A0917702B0917802EA17FB07B4F4EE0F3F
:1014A000FF1FE40FF51FA081B1811A9718F4718313
:1014B000608309C0A081B181509728F0A081B181DB
:1014C0005E9708F454C08F5FE1CF0E948C0080913A
:1014D0006F0290917002A0917102B09172028F3FE1
:1014E0009F4FAF4FBF4FE9F181EF0E9418188091D5
:1014F0006F0290917002A0917102B091720222E18C
:10150000B695A795979587952A95D1F70E941818B3
:1015100080916F0290917002A0917102B09172025D
:101520003CE0B695A795979587953A95D1F78F7337
:101530000E94181880916F0290917002A091710220
:10154000B091720246E0B695A795979587954A9512
:10155000D1F78F730E94181880916F028F730E94C9
:10156000181882E08093E3031092AF0403C0318324
:101570002083A9CF0F900F900F900F90DF91CF9104
:101580001F910F91FF90EF90DF90CF90BF90AF90A1
:101590007F906F905F904F900895FF920F931F93ED
:1015A000CF93DF9394E0899FE0011124C258DE4F6E
:1015B000288139812230310561F48B01F82E61E0F8
:1015C0000E942015B8018F2D0E945C151B830A8391
:1015D00005C02130310511F47B836A83DF91CF91FF
:1015E0001F910F91FF900895FC0123812223B9F0F0
:1015F0009181909569236083828191E09093F501B8
:10160000809317021092F6011092180286E193E07F
:101610000E947A130E944D10282F30E002C020E073
:1016200030E081E090E0232B11F080E090E008951D
:101630001F920F920FB60F9211242F933F934F9347
:101640005F936F937F938F939F93AF93BF93EF932A
:10165000FF938091E2030E94C7142091E50330912B
:10166000E6032F5F3F4F3093E6032093E50390910D
:10167000AF04943618F095E09093E3039091E30360
:101680009330B9F018F4923039F057C0943059F1D2
:10169000953009F44CC051C081114FC02091E50331
:1016A0003091E6032436310508F443C01092AF04AC
:1016B0001CC0813009F041C0E091AF0491E09E0F61
:1016C0009093AF04F0E02091E5033091E603EE0F34
:1016D000FF1FEE51FC4F368325831092E6031092D4
:1016E000E50394E021C0811117C0E091AF0491E0BF
:1016F0009E0F9093AF04F0E02091E5033091E60354
:10170000EE0FFF1FEE51FC4F368325831092E60348
:101710001092E50393E008C02091E5033091E603C1
:101720002536310550F095E09093E30306C0811112
:1017300004C01092E6031092E5039091E40399230C
:1017400029F0811102C02D9A01C02D98FF91EF91CF
:10175000BF91AF919F918F917F916F915F914F91C9
:101760003F912F910F900FBE0F901F901895CF9221
:10177000DF92EF92FF92CF93DF93EC01072E000CE4
:10178000880B990B0E94511E6B017C0120E030E018
:1017900040E45FE30E94B01E20E030E048E452E401
:1017A0000E944E200E94C020C617D707D4F020E028
:1017B00030E040EA5FE3C701B6010E94B01E20E0BE
:1017C00030E048E452E40E944E2020E030E040E85F
:1017D0005FE30E94E21F0E94C02021E06C177D079A
:1017E0000CF420E0822F90E0DF91CF91FF90EF90FA
:1017F000DF90CF9008951F920F920FB60F92112491
:101800000F900FBE0F901F901895DF92EF92FF92EE
:101810000F931F93CF93DF93FC01E058FF4FD080CD
:10182000DD2009F45CC0319600811181D801119648
:10183000FC901197EC90EC01C05CDF4F888199819E
:10184000009709F44CC0DC01ED91FC910190F0810E
:10185000E02D60EF099588819981DC01ED91FC9183
:101860000190F081E02D69E7099588819981DC017B
:10187000ED91FC910190F081E02D6E2D099588810C
:101880009981DC01ED91FC910190F081E02D6F2DAB
:1018900009957801B2E0EB0EF11C0D0D111DE0165B
:1018A000F10661F020E030E0A70161E070E0CE01D8
:1018B0000E94A406EFEFEE1AFE0AF1CF888199810B
:1018C000DC01ED91FC910190F081E02D67EFDF915B
:1018D000CF911F910F91FF90EF90DF900994DF91CE
:1018E000CF911F910F91FF90EF90DF900895009797
:1018F00011F00C94050C0895FF920F931F93CF9352
:10190000DF93CDB7DEB769970FB6F894DEBF0FBE91
:10191000CDBF10926D0110921A021092190210920E
:10192000F601109218020E94A91718E000E0FF24A7
:10193000F394F092F501109317021092F6011092B1
:1019400018020E944D1081110CC080916D018F5FB3
:1019500080936D0161E070E080E090E00E94EB1503
:10196000012F1F5F183729F780916D01813051F5E4
:10197000073241F11C821B8222E431E03A83298341
:10198000198A9FEF988B1F861A8A0C871D861E86E0
:101990001B861A8694E09B8B92E09C8B8D8B80E15A
:1019A0008E8B80E28F8B80E4888F80E8898F40E087
:1019B00050E063E0CE0101960E94A913CE0101968A
:1019C0000E94FC0F802F69960FB6F894DEBF0FBE01
:1019D000CDBFDF91CF911F910F91FF9008952F926E
:1019E0003F924F925F926F927F928F929F92AF92AF
:1019F000BF92CF92DF92EF92FF920F931F93CF93FC
:101A0000DF93CDB7DEB7AD970FB6F894DEBF0FBE4C
:101A1000CDBF8A018F3509F0C0C0DA0111967C90E4
:101A2000119712962C91129713968C91B0E88B9F78
:101A3000C0011124820F911DFA0124810581F0E873
:101A40000F9F80011124020F111D9C01092E000C13
:101A5000440B550B6801012E000CEE08FF08892B82
:101A600029F4C701B6010E94EB155EC060E472E480
:101A70008FE090E00E94B01F49015A01B694A794EC
:101A800097948794872D90E0FC01E656FF4F649170
:101A90006EA38A579F4FFC016491E62FF0E0EE0F92
:101AA000FF1FEE58FF4F25903490FC018491E82FE2
:101AB000F0E0EE0FFF1FE859FF4FA591B4918C9114
:101AC000FEA18F2B8C932DA73AA74BA75CA70E9452
:101AD00025162B013C016EA160956FA32DA53AA59B
:101AE000C9018819990999A788A70E942516DC01C0
:101AF000CB0184199509A609B7098C159D05AE057A
:101B0000BF0590F4D1018C912EA1822B8C93C4013E
:101B10000E94BB15D1018C912FA182238C9388A5A3
:101B200099A50E94BB15E1CF083E33E0130774F47A
:101B3000C80168EE73E00E9406210097F1F0BC0135
:101B4000990F880B990B0E94EB1517C0C80168EE1E
:101B500073E00E9406216B01F12C8F2D90E08C1513
:101B60009D0534F768EE73E080E090E00E94EB158D
:101B700080E00E941818F394F0CF80915E018111EB
:101B8000D1C16091AC017091AD016115710509F48D
:101B9000C9C18BE00E945C15C5C18E3509F059C0E2
:101BA000DA018C91882331F160E070E08BE00E94D3
:101BB0005C15F8941092800089E08093810080E2A7
:101BC00093E0909389008093880010928500109292
:101BD000840082E080936F0078948093E3031092F6
:101BE000AF048091E20360E00E94201581E08093C1
:101BF0005E0198C181EA8093800083E08093810038
:101C0000109289001092880010928B0010928A0026
:101C10006091A4017091A5016115710519F089E029
:101C20000E945C156091A8017091A9016115710570
:101C300019F08AE00E945C156091AC017091AD01D1
:101C40006115710519F08BE00E945C1510925E0120
:101C500069C18C3509F031C16CE571E0CE014A965D
:101C60000E943414F8012081222319F0233009F056
:101C700048C0D80111964C9111971296AC901297CA
:101C80001396BC9084E0982E50E07A01B3E0EB0EFE
:101C9000F11C492D50E0E416F50624F1F801E40F9B
:101CA000F51F808189831A82CE8CDF8CEFEFCE1AEC
:101CB000DE0AB601CE014A962DA70E9417112DA566
:101CC000882371F04A8D5B8D8E8D9F8DBE016F5F75
:101CD0007F4F840F951F0E947023DF8ECE8E2DA51F
:101CE0009394D7CF211104C080EB94E00E94101888
:101CF0006A2D8B2D0E94B310CE014A960E94AA1025
:101D0000D7C0213049F4E091B004F091B1040084CF
:101D1000F185E02D6FEF0AC0223061F4E091B0044C
:101D2000F091B1040084F185E02D60E080EB94E057
:101D30000995BEC0243029F480EB94E00E9410186D
:101D4000B7C0253011F468E103C0263031F46CE1EE
:101D500080EB94E00E940818ABC0273009F0A8C0BF
:101D6000F18002810E947C0C182F90916D0101304E
:101D700009F046C09130D1F0B7E2FB1609F470C00B
:101D80001C821B8282E491E09A838983198A8FEFF7
:101D9000888B1F861A8AFC861D861E861B861A86DD
:101DA00084E08B8B82E08C8B0D8B47C01C821B8266
:101DB00022E431E03A832983198A8FEF888B1F86CA
:101DC0001A8A1C871D861E861B861A8684E08B8BCA
:101DD00082E08C8B9D8B80E18E8B80E28F8B80E408
:101DE000888F80E8898F40E050E063E0CE01019663
:101DF0000E94A913CE0101960E94FC0FF12E30C063
:101E0000913009F455C0E7E2FE1609F451C01C8276
:101E10001B8282E491E09A838983198A8FEF888BF1
:101E20001F861A8AFC861D861E861B861A8684E0FB
:101E30008B8B82E08C8B81E08D8B80E18E8B80E2BE
:101E40008F8B80E4888F80E8898F40E050E063E0EA
:101E5000CE0101960E94A913CE0101960E94FC0FAB
:101E600020E042E060E180EB94E00E94C71760E070
:101E700080E00E94B31040E16F2DCE0180960E9459
:101E800087116EE471E0CE0101960E943414BE0108
:101E9000605E7F4FCE0101960E9450110E94AA10F1
:101EA000CE0101960E948211CE0180960E9482117D
:101EB000CE014A960E94821135C0863599F5DA0125
:101EC000FC9011968C9111971296EC90811113C091
:101ED000B4E0FB9EF0011124E258FE4F8081918115
:101EE000039701F561E08F2D0E9420156E2D8F2D37
:101EF0000E94F01417C08130A9F424E0F29EF00192
:101F00001124E258FE4F80819181019759F4DA0142
:101F100013968C9190E0BAE0EB9E800D911D1124F8
:101F200093838283AD960FB6F894DEBF0FBECDBF0C
:101F3000DF91CF911F910F91FF90EF90DF90CF90A5
:101F4000BF90AF909F908F907F906F905F904F90D9
:101F50003F902F9008951F93CF93DF93182FEB019D
:101F600080916703909168036817790748F460913E
:101F7000650370916603C60FD71F188380E018C0F1
:101F8000E0919403F0919503309711F481E010C033
:101F900081E080936403809180039091810309958F
:101FA0008091670390916803C817D90778F7DFCF4E
:101FB000DF91CF911F910895CF93DF93EC01FB0147
:101FC00020E030E0CF01861B970B2C173D0778F4FB
:101FD000DB01A20FB31F9C91908311964C91479502
:101FE00044274795942B91932E5F3F4FEBCFDF9182
:101FF000CF9108950E946223DC0112968D919C91ED
:102000001397E0EBF4E09383828314968C911497FA
:10201000848315968C911597858316968C911697C7
:10202000868317968C911797878318968C911897AB
:10203000808719968D919C911A97928781871B961C
:102040008C911B9783871C968C911C9784871D9677
:102050008C911D9785871E964D915D916D917C9118
:10206000519746875787608B718B52968C91529708
:10207000828B53968C915397838B54968C91549763
:10208000848B55968D919D910D90BC91A02D858B43
:10209000968BA78BB08FCF01089520911802909155
:1020A0001702213208F04AC08091F4018111FCCF5F
:1020B00032E03093F40131E03093F3013FEF30939D
:1020C000F2011092F1012093F001A7EFB1E040ED91
:1020D00051E0FA013E2F341B321718F43D91319331
:1020E000F9CF1092CF012091CF01990F922B9093AD
:1020F000CF019091CE01913061F41092CE01909178
:10210000CF019093BB009091BC0093FDF8CF95EC6C
:1021100001C095EE9093BC009091F4019230E1F3F0
:102120009091F2019F3F79F08091F201803241F06D
:102130008091F201803331F084E005C081E003C07A
:1021400082E001C083E01092F60110921802109212
:10215000F5010895FC01448155816081718180EB16
:1021600094E00C94D211CF93DF93CDB7DEB72897CC
:102170000FB6F894DEBF0FBECDBF1D8290E49E83E4
:1021800024E12F8324E5288719829A8390E19B8399
:1021900090E59C839091B704691710F06FEF690F79
:1021A0004091B804262F30E0FE01E20FF31F4031CA
:1021B00021F4943011F4918101C09581682F690F49
:1021C000606880EB94E028960FB6F894DEBF0FBEEF
:1021D000CDBFDF91CF910C940818CF93DF93FC0112
:1021E000A081B181109701F1EC01ED91FC91119763
:1021F0000190F081E02D69EFCD01099588819981E9
:10220000DC01ED91FC910190F081E02D62E00995F7
:1022100088819981DC01ED91FC910190F081E02DA4
:1022200065E0DF91CF910994DF91CF9108950F93ED
:102230001F93CF93DF93EC0188819981009729F058
:102240002A813B812617370788F48B016F5F7F4F08
:102250000E949822009761F0998388831B830A83E8
:102260002C813D81232B11F4FC01108281E001C0FF
:1022700080E0DF91CF911F910F910895CF93DF936D
:10228000EC0188819981009711F00E940022198247
:1022900018821D821C821B821A82DF91CF910895C1
:1022A000EF92FF920F931F93CF93DF93EC01FB010B
:1022B00084819581E080F1800C811D81E114F1041D
:1022C000B1F00097B9F0080F191FB801CE010E94B4
:1022D0001711882361F0288139818C819D81B70194
:1022E000820F931F0E9470231D830C8303C0CE01B5
:1022F0000E943E11CE01DF91CF911F910F91FF906F
:10230000EF900895FC01808191810C940022CF927E
:10231000DF92EF92FF920F931F93CF93DF93CDB78E
:10232000DEB729970FB6F894DEBF0FBECDBF8C0184
:10233000862FF80111821082138212821582148274
:1023400050E09E012F5F3F4F6901B90190E00E946C
:10235000151EF60101900020E9F731977F01EC1876
:10236000FD08B701C8010E941711811104C0C801FE
:102370000E943E1108C0F801F582E482B601808116
:1023800091810E94702329960FB6F894DEBF0FBE8C
:10239000CDBFDF91CF911F910F91FF90EF90DF9014
:1023A000CF900895CF92DF92EF92FF920F931F93F9
:1023B000CF93DF936C017A018B01C0E0D0E0CE15A2
:1023C000DF0589F0D8016D918D01D601ED91FC9169
:1023D0000190F081E02DC6010995892B11F47E0151
:1023E00002C02196ECCFC701DF91CF911F910F91D1
:1023F000FF90EF90DF90CF900895FC01918D828D3A
:10240000981761F0828DDF01A80FB11D5D968C9148
:10241000928D9F5F9F73928F90E008958FEF9FEF53
:102420000895FC01918D828D981731F0828DE80F0F
:10243000F11D858D90E008958FEF9FEF0895FC01C9
:10244000918D228D892F90E0805C9F4F821B910996
:102450008F739927089589E792E00E941F1221E067
:10246000892B09F420E0822F0895FC01848DDF017F
:10247000A80FB11DA35ABF4F2C91848D90E00196F7
:102480008F739927848FA689B7892C93A089B189E6
:102490008C9180648C93938D848D981306C00288F0
:1024A000F389E02D80818F7D80830895EF92FF92E4
:1024B0000F931F93CF93DF93EC0181E0888F9B8D67
:1024C0008C8D981305C0E889F989808185FD24C029
:1024D000F62E0B8D10E00F5F1F4F0F731127E02EAC
:1024E0008C8DE8120CC00FB607FCFACFE889F98989
:1024F000808185FFF5CFCE010E943512F1CF8B8D03
:10250000FE01E80FF11DE35AFF4FF0820B8FEA89BD
:10251000FB898081806207C0EE89FF896083E8893A
:10252000F98980818064808381E090E0DF91CF91A0
:102530001F910F91FF90EF900895CF93DF93EC01DF
:10254000888D8823C9F0EA89FB89808185FD05C0D3
:10255000A889B9898C9186FD0FC00FB607FCF5CF0D
:10256000808185FFF2CFA889B9898C9185FFEDCF55
:10257000CE010E943512E7CFDF91CF91089580E020
:1025800090E0892B29F00E942B1281110C940000FD
:102590000895833081F028F4813099F08230A1F0E1
:1025A00008958730A9F08830B9F08430D1F4809153
:1025B00080008F7D03C0809180008F7780938000A2
:1025C000089584B58F7702C084B58F7D84BD08954A
:1025D0008091B0008F7703C08091B0008F7D809391
:1025E000B000089585ED8093BC008091BC0084FD0F
:1025F000FCCF1092F401089540913D02262F30E067
:10260000240F311D21323105DCF42091F4012430F6
:10261000C9F4FC0180E090E0861758F430913D0247
:102620002191DC01A55EBD4FA30FB11D2C93019636
:10263000F3CF80913D02680F60933D0280E00895E2
:1026400081E0089582E00895089581E090E030915E
:102650001A0220911902321710F480E090E091954F
:1026600081959109089580911A0290911902891714
:1026700030F48F5F80931A0280E090E008958FEF2E
:102680009FEF08958091190290E020911A02821B19
:1026900091090895CF92DF92EF92FF920F931F93CB
:1026A000CF93DF937C01262F972F8A018091F5012C
:1026B000882391F0C62FD72F6E01C40ED51ECC15DE
:1026C000DD0571F06991D701ED91FC910190F081E8
:1026D000E02DC7010995F3CF642F822F0E94FC12D1
:1026E000C801DF91CF911F910F91FF90EF90DF9084
:1026F000CF900895CF93DF931F92CDB7DEB7698354
:102700002091F5012223D1F020911802203240F0CF
:1027100021E030E0FC013383228380E090E015C0AB
:102720008091F601E82FF0E0E950FE4F9981908307
:102730008F5F8093F6018093180205C061E0CE019F
:1027400001960E94FC1281E090E00F90DF91CF9102
:10275000089521E001C0220F6A95EAF7DC011C967A
:102760002C931C971A965C934E931997ED91FC91BC
:102770000084F185E02D60E00994DC01ED91FC918D
:102780000284F385E02D41E0099581E090E0089511
:10279000EF92FF920F931F93CF938C01FC017596DC
:1027A00084E0C0E060FF02C09081C92B6695815033
:1027B00031968111F7CF413011F4F8014489F801C5
:1027C0008585C82BC42B7801FEE0EF0EF11CF801C3
:1027D00062896C2BC7010E94F40AF8016289609536
:1027E0006C23C701CF911F910F91FF90EF900C9434
:1027F000F40A0F931F93CF93DF93062F0F7042308D
:1028000019F440E0602F10C0142F262FEC0130E0A7
:10281000B90184E0759567958A95E1F7CE010E942C
:10282000C813412F602FCE01DF91CF911F910F91DF
:102830000C94C813FC0184858823A9F02185328576
:102840002115310519F4611106C007C02130310589
:1028500021F4611102C0858701C015866585CF010D
:102860000E960C94F40A0895EF92FF920F931F9323
:10287000CF93DF93EC01198218821B821A821D828A
:102880001C826115710521F18B01FB010190002073
:10289000E9F731977F01E61AF70AB7010E9417118D
:1028A000811109C0CE01DF91CF911F910F91FF904F
:1028B000EF900C943E11FD82EC82B80188819981E1
:1028C000DF91CF911F910F91FF90EF900C947023A7
:1028D000DF91CF911F910F91FF90EF9008951F927C
:1028E0000F920FB60F9211242F933F934F935F9344
:1028F0006F937F938F939F93AF93BF93EF93FF93C8
:1029000089E792E00E943512FF91EF91BF91AF915C
:102910009F918F917F916F915F914F913F912F91F7
:102920000F900FBE0F901F9018951F920F920FB629
:102930000F9211242F938F939F93EF93FF93E09126
:102940008902F0918A028081E0918F02F0919002D9
:1029500082FD12C09081809192028F5F8F732091CF
:102960009302821751F0E0919202F0E0E758FD4F98
:10297000958F8093920201C08081FF91EF919F918A
:102980008F912F910F900FBE0F901F901895CF939E
:10299000DF93282F30E0F901E255FF4F8491F901D0
:1029A000E656FF4FD491F901EA57FF4FC491CC236B
:1029B00091F081110E94C912EC2FF0E0EE0FFF1F81
:1029C000E458FF4FA591B491EC91ED2381E090E0A4
:1029D00021F480E002C080E090E0DF91CF91089583
:1029E0001F93CF93DF93282F30E0F901E255FF4F7B
:1029F0008491F901E656FF4FD491F901EA57FF4F50
:102A0000C491CC23C9F0162F81110E94C912EC2F5A
:102A1000F0E0EE0FFF1FEE58FF4FA591B4918FB776
:102A2000F894111105C09C91ED2FE095E92302C0A7
:102A3000EC91ED2BEC938FBFDF91CF911F91089517
:102A4000CF93DF9390E0FC01E656FF4F2491FC0109
:102A5000EA57FF4F8491882361F190E0880F991F16
:102A6000FC01E859FF4FC591D491FC01EE58FF4F8E
:102A7000A591B491611109C09FB7F8948881209500
:102A800082238883EC912E230BC0623061F49FB7C0
:102A9000F8943881822F809583238883EC912E2BA4
:102AA0002C939FBF06C08FB7F894E8812E2B288304
:102AB0008FBFDF91CF9108951F93CF93DF93182F8E
:102AC000EB0161E00E942015209711F460E004C042
:102AD000CF3FD10539F461E0812FDF91CF911F9174
:102AE0000C94F014E12FF0E0E255FF4FE491E33055
:102AF000F9F048F4E130B9F0E230A1F584B5806234
:102B000084BDC8BD34C0E730E9F0E83019F1E430E5
:102B100049F580918000806280938000D0938B0083
:102B2000C0938A0024C084B5806884BDC7BD1FC01F
:102B300080918000806880938000D0938900C0934A
:102B4000880015C08091B00080688093B000C09369
:102B5000B3000DC08091B00080628093B000C0933C
:102B6000B40005C0C038D1050CF0B5CFAFCFDF91B0
:102B7000CF911F9108958230910538F0880F991FE9
:102B8000880F991F05970197F1F708953FB7F894BB
:102B90008091670290916802A0916902B0916A02E7
:102BA00026B5A89B05C02F3F19F00196A11DB11DA8
:102BB0003FBFBA2FA92F982F8827820F911DA11DE3
:102BC000B11DBC01CD0142E0660F771F881F991F20
:102BD0004A95D1F708958F929F92AF92BF92CF926C
:102BE000DF92EF92FF926B017C010E94C6154B01B0
:102BF0005C01C114D104E104F104F1F00E94C61596
:102C0000DC01CB0188199909AA09BB09883E9340C8
:102C1000A105B10570F321E0C21AD108E108F1085D
:102C200088EE880E83E0981EA11CB11CC114D1044B
:102C3000E104F10419F7DDCFFF90EF90DF90CF9022
:102C4000BF90AF909F908F9008952FB7F8946091A8
:102C500063027091640280916502909166022FBFB9
:102C600008951F920F920FB60F9211242F933F9346
:102C70008F939F93AF93BF9380916302909164026F
:102C8000A0916502B09166023091620223E0230FA9
:102C90002D3720F40196A11DB11D05C026E8230F94
:102CA0000296A11DB11D209362028093630290934E
:102CB0006402A0936502B0936602809167029091CE
:102CC0006802A0916902B0916A020196A11DB11D2E
:102CD0008093670290936802A0936902B0936A029E
:102CE000BF91AF919F918F913F912F910F900FBE08
:102CF0000F901F9018951F920F920FB60F921124EC
:102D00002F933F934F935F936F937F938F939F93F3
:102D1000AF93BF93EF93FF938091B900887F803684
:102D200009F49CC068F5883209F45BC090F48031E6
:102D300009F454C038F4882309F4F6C0883009F443
:102D40004DC0F6C0883109F44CC0803209F45DC032
:102D5000EFC0803409F468C048F4803309F455C0EA
:102D6000883309F0E5C08093F201D8C0803509F4BA
:102D70004FC0883509F45DC0883409F0D9C0D6C089
:102D8000883909F4C7C0A8F4883709F467C038F453
:102D9000883609F463C0803709F460C0C9C0883838
:102DA00009F4B8C0803909F45FC0803809F0C0C0A8
:102DB0005BC0803B09F486C038F4803A09F466C0F1
:102DC000883A09F47FC0B4C0803C09F4A7C0883CAD
:102DD00009F4A4C0883B09F48AC0AAC08091CF013D
:102DE00010C09091F1018091F001981770F5E09179
:102DF000F10181E08E0F8093F101F0E0E053FE4F8E
:102E000080818093BB0085EC86C08093F2018EC0E8
:102E1000E091F10181E08E0F8093F1018091BB0080
:102E2000F0E0E053FE4F80839091F1018091F0013A
:102E30006EC0E091F10181E08E0F8093F1018091ED
:102E4000BB00F0E0E053FE4F80838091F3018111DD
:102E50006DC081E08093CE0184EA61C083E08093FD
:102E6000F40110926102CFCF80916102803208F0AC
:102E700051C0E091610281E08E0F809361028091E8
:102E8000BB00F0E0EF5BFD4F8083BDCF85EC80930E
:102E9000BC001092F40180916102803230F4E09124
:102EA0006102F0E0EF5BFD4F10826091610270E023
:102EB000E0913F02F091400281E492E00995109286
:102EC000610236C084E08093F40110923E021092B9
:102ED0003D02E0913B02F0913C02099580913D0258
:102EE000811105C081E080933D0210921B02E091A8
:102EF0003E0281E08E0F80933E02F0E0E55EFD4FE2
:102F000080818093BB0090913E0280913D02981792
:102F100008F479CF85E88093BC000AC085EC8093E3
:102F2000BC001092F40104C01092F2010E94F2124F
:102F3000FF91EF91BF91AF919F918F917F916F9191
:102F40005F914F913F912F910F900FBE0F901F9067
:102F500018951092F40181E08093F3011092CE0154
:102F600061E082E10E94F01461E083E10E94F014CC
:102F7000E9EBF0E080818E7F808380818D7F80838C
:102F800088E48093B80085E48093BC000895FF92A4
:102F90000F931F93CF93DF93EC01162F042FF22E84
:102FA0008B85888B10921A02109219021092F601EA
:102FB000109218020E94A917888991E09093F50158
:102FC000809317021092F601109218020E944D1081
:102FD00091E0811190E0998B992329F086E193E0AB
:102FE0000E9433138E878989882339F01F861C82BB
:102FF00060E0CE010E960E94F40A2F2D402F612F23
:10300000CE01DF91CF911F910F91FF900C94940707
:10301000DC01ED91FC910284F385E02D40E0099400
:1030200061E00E9408188BE39FE10197F1F7089592
:10303000A091A003B091A103ED91FC911197019093
:10304000F081E02D682FCD0109948F929F92AF926D
:10305000BF92CF92DF92EF92FF920F931F93CF9385
:10306000DF93FC01C081D1812091770230917802F9
:10307000C217D3070CF04BC09E01220F331FE09103
:103080007502F0917602E20FF31F80809180C1708B
:10309000DD27F1E0CF27209719F404E610E002C005
:1030A0000CE91FEF7A015B016C01040F151FB801D9
:1030B000C4010E94B70B892B99F40E0D1F1DB80196
:1030C000C4010E94B70B892B71F4B8016E0D7F1DEE
:1030D000C4010E94B70B892BE9F023E030E005C062
:1030E00021E030E002C022E030E0F50180819181F2
:1030F0000196821793073CF0F50111821082F601C8
:1031000080819181019691838083CE0105C081E009
:1031100090E002C08FEF9FEFDF91CF911F910F9151
:10312000FF90EF90DF90CF90BF90AF909F908F90E7
:103130000895CF93DF93CDB7DEB72C970FB6F894F1
:10314000DEBF0FBECDBF789484B5826084BD84B5E8
:10315000816084BD85B5826085BD85B5816085BD92
:1031600080916E00816080936E001092810080914A
:1031700081008260809381008091810081608093D2
:103180008100809180008160809380008091B100F7
:1031900084608093B1008091B00081608093B00022
:1031A00080917A00846080937A0080917A008260B6
:1031B00080937A0080917A00816080937A00809178
:1031C0007A00806880937A001092C1008DEC9AE0BA
:1031D00090937B0180937A0186E298E09093790145
:1031E0008093780181E498E0909373018093720159
:1031F0008FEE9CE090937D0180937C01E0918902A9
:10320000F0918A0282E08083E0918902F0918A0243
:103210001082E0918502F09186021082E09187028F
:10322000F091880280E1808310929102E0918D02FA
:10323000F0918E0286E08083E0918B02F0918C0207
:10324000808180618083E0918B02F0918C0280818B
:1032500088608083E0918B02F0918C02808180688D
:103260008083E0918B02F0918C0280818F7D80833E
:103270008091E103811150C061E08DE00E94201532
:1032800062ED70E080E090E00E94EB1561E08DE07F
:103290000E94F01468E270E080E090E00E94EB157C
:1032A00060E08DE00E94F01462ED70E080E090E05C
:1032B0000E94EB1561E08DE00E94F01468E270E07E
:1032C00080E090E00E94EB1560E08DE00E94F01439
:1032D0006AEF70E080E090E00E94EB1510E062ED94
:1032E00070E080E090E00E94EB1561E08DE00E94CC
:1032F000F01468E270E080E090E00E94EB1560E07E
:103300008DE00E94F0141F5F153049F76DE770E003
:1033100080E090E00E94EB1589E792E09093A10392
:103320008093A003909363038093620382E693E00B
:103330000E94ED1082E293E00E94050C0E947C0C3A
:10334000182F20E042E060E180EB94E00E94C71774
:1033500060E080E00E94B31040E1612FCE01019651
:103360000E9487116EE471E0CE0107960E9434142A
:10337000BE016F5F7F4FCE0107960E9450110E94E1
:10338000AA10CE0107960E948211CE0101960E94DA
:10339000821184E090E090937F0180937E0190936E
:1033A000830180938201109287011092860110920E
:1033B0008B0110928A0190938F0180938E0125E0FA
:1033C00030E0309393012093920190939701809382
:1033D000960190939B0180939A0190939F01809313
:1033E0009E0122E030E03093A3012093A2013093AC
:1033F000A7012093A6013093AB012093AA0123E0FB
:1034000030E03093AF012093AE013093B3012093AD
:10341000B2011092B7011092B6011092BB01109246
:10342000BA011092BF011092BE019093C301809324
:10343000C2019093C7018093C6019093CB01809302
:10344000CA013EE7E32E31E0F32E10E0CC24CA940B
:10345000D12CD7018D919C919C01225031092230B1
:10346000310518F08530910541F461E0812F0E940B
:103470002015F701138212820CC08130910571F47E
:1034800061E0812F0E942015D7011396DC92CE9225
:10349000129760E0812F0E94F01406C0892B21F45E
:1034A00060E0812F0E9420151F5FB4E0EB0EF11C3D
:1034B000143179F6EAECF4E080E090E0208121110B
:1034C0002DC023E1289F8001299F100D1124065350
:1034D0001B4F81E0F801808384E190E0A0E0B0E040
:1034E00081839283A383B4838FEF9FEF9683858339
:1034F00087E798E0928781870E942516D8011B965E
:103500006D937D938D939C931E9750961C921E9263
:103510001F9752961C921E92519705C00196739662
:103520008A30910559F6BB24B39492E0E92EF12C30
:10353000CC24C394D12C8091A0039091A103DC01F1
:10354000ED91FC910480F581E02D0995892B09F41A
:10355000CEC18091A0039091A103DC01ED91FC917B
:103560000680F781E02D09959C018F3FBFEF9B07F7
:1035700011F3982F80916D03882309F492C0973F2F
:1035800009F07EC010926D03A0916503B0916603AF
:103590006C916137C1F1693709F05CC0E0919A0321
:1035A000F0919B03309739F280916E0390916F03F5
:1035B0008330910538F420E030E040E050E060E0F6
:1035C00070E01BC0BD016D5F7F4F03970E94DC0F51
:1035D000BC016D5F7F4F80E00E94AB0FE0916503FF
:1035E000F09166039F012D5F3F4F428150E0618162
:1035F00070E0E0919A03F0919B0380917C0390919D
:103600007D03099598CF8091960390919703892B1C
:1036100009F491CFBD016F5F7F4F80916E03909150
:103620006F0301970E94DC0FBC016F5F7F4F80E04A
:103630000E94AB0F60916503709166036F5F7F4FCF
:10364000E0919603F0919703809182039091830318
:10365000099571CFE0919803F0919903309709F49F
:103660006ACF9D012F5F3F4F40916E0350916F03D2
:1036700041505109809184039091850309955BCF56
:1036800060916E0370916F03822F0E94AB0F809147
:103690006E0390916F03019690936F0380936E0376
:1036A0004ACF60916B0370916C036115710509F449
:1036B000AFC027FDADC06150710970936C0360937A
:1036C0006B03822F0E94AB0F80916B0390916C0370
:1036D000892B09F030CF80916903882309F42BCF1F
:1036E000803D09F47FC030F4803939F1803C09F421
:1036F00066C08BC0843FE1F1853F09F44DC0803E38
:1037000009F083C0E0918803F0918903309709F4B0
:103710007CC0A0916503B09166038C9111964C9189
:1037200050E090E8899F400D511D112460916A037B
:10373000809170039091710367C0E0918A03F091CA
:103740008B03309709F461C0A0916503B0916603C3
:103750008C9111964C9150E0A0E88A9F400D511D2C
:10376000112460916A0380917203909173034CC09D
:10377000E0919003F0919103309709F446C0A09135
:103780006503B09166034C9150E011966C91809165
:1037900078039091790338C0E0919203F0919303FC
:1037A000309799F1A0916503B09166034C9150E078
:1037B00011966C9180917A0390917B0325C0E091E2
:1037C0008C03F0918D03309701F1A0916503B091C6
:1037D00066034C9150E060916A038091740390916C
:1037E000750312C0E0918E03F0918F03309769F05A
:1037F000A0916503B09166034C9150E060916A031B
:10380000809176039091770309951092690393CE86
:10381000903F30F4822F8F7080936A03922F907FB5
:10382000903F79F158F4903C29F118F49039E9F07F
:1038300082CE903DF9F0903EC1F07DCE993F09F4E3
:1038400049C028F48CE0890F823078F074CE9F3F15
:1038500009F071CE10926C0310926B031092690301
:1038600010926A0380E090E013C0F0926C03E09243
:103870006B0304C0D0926C03C0926B0390936903F6
:103880005ACEB0926D0310926F0310926E0353CE16
:1038900020916703309168038217930748F4E09101
:1038A0006503F0916603E80FF91F10820196F0CFCF
:1038B00010926D0310926F0310926E03E0919E03BD
:1038C000F0919F03309709F436CE80918603909152
:1038D00087030BC0E0919C03F0919D03309709F49E
:1038E0002ACE80917E0390917F03099524CE82EDAC
:1038F000882E84E0982E0AEC14E0F8018081882359
:1039000009F44DC00E9425162B013C01F801838566
:103910009485A585B685B301A201481B590B6A0B96
:103920007B0B81819281A381B481481759076A0773
:103930007B0730F18081813019F0823059F016C058
:10394000D8010184F285E02D51968D919C9152977A
:1039500009950CC061E0F4019081911160E0D401FF
:103960006C93F401319780810E94F014F801438632
:10397000548665867686878590890196908B8787A1
:10398000D80115968D919C91169797FD08C01F96AA
:103990002D913C915097281739070CF01C920D5E21
:1039A0001F4FB3E18B0E911CE5E008381E0709F0AC
:1039B000A4CF0E94BF12BFCD10927C0210927B0256
:1039C00088EE93E0A0E0B0E080937D0290937E02C9
:1039D000A0937F02B09380022AE031E030937A0214
:1039E0002093790225EC30E0309386022093850203
:1039F00024EC30E0309388022093870220EC30E002
:103A000030938A022093890221EC30E030938C02BB
:103A100020938B0222EC30E030938E0220938D02B3
:103A200026EC30E03093900220938F0210929202A5
:103A30001092930210929402109295021092190320
:103A40001092180380931A0390931B03A0931C03F6
:103A5000B0931D038AE191E09093170380931603BE
:103A600082E293E0109263031092620390936603E4
:103A70008093650320E430E030936803209367036C
:103A80001092690310926A0310926C0310926B03F8
:103A900010926D0310926F0310926E0310927103D7
:103AA00010927003109273031092720310927503B8
:103AB0001092740310927703109276031092790398
:103AC0001092780310927B0310927A031092810374
:103AD0001092800310928303109282031092850348
:103AE000109284031092870310928603109295031C
:103AF00010929403109264031092A2031092A403F4
:103B00001092A3031092E1032AE837E0309389036F
:103B10002093880320E837E030938B0320938A03B7
:103B200022E637E030938D0320938C0328E537E0BD
:103B300030938F0320938E0326E737E03093910371
:103B4000209390032CE637E0309393032093920365
:103B500027E537E030939703209396032CE437E072
:103B6000309399032093980327E73CE030939B031D
:103B700020939A0390937D0380937C032FE138E098
:103B800030939D0320939C0390937F0380937E0347
:103B90008BE497E090939F0380939E03EAECF4E01C
:103BA0001082739685E0E838F807D1F786E08093B5
:103BB000E2031092E4031092B3041092B20482E480
:103BC00091E09093B1048093B0041092C0048FEF01
:103BD0008093BF041092BE041092C10487E28093C8
:103BE000BB041092BC041092BD041092BA0410924F
:103BF000B90484E08093C20482E08093C30481E02E
:103C00008093C40480E18093C50480E28093C6045D
:103C100080E48093C70480E88093C80440E050E0CB
:103C200063E080EB94E00C94A9134532510520F435
:103C3000423010F00C94201EFB011082CB0108953D
:103C4000BB27FB015527AA27880F991FAA1FA41776
:103C500010F0A41B83955051B9F7A05DAA3308F06A
:103C6000A95DA193009779F7B111B1931192CB019E
:103C70000C943A1EDC01FC01672F71917723E1F768
:103C8000329704C07C916D9370836291AE17BF0729
:103C9000C8F308950E948C1E08F481E00895E8940A
:103CA00009C097FB3EF490958095709561957F4F84
:103CB0008F4F9F4F9923A9F0F92F96E9BB27939532
:103CC000F695879577956795B795F111F8CFFAF442
:103CD000BB0F11F460FF1BC06F5F7F4F8F4F9F4F73
:103CE00016C0882311F096E911C0772321F09EE8D1
:103CF000872F762F05C0662371F096E8862F70E037
:103D000060E02AF09A95660F771F881FDAF7880F10
:103D10009695879597F90895990F0008550FAA0B66
:103D2000E0E8FEEF16161706E807F907C0F01216CE
:103D30001306E407F50798F0621B730B840B950BD1
:103D400039F40A2661F0232B242B252B21F4089526
:103D50000A2609F4A140A6958FEF811D811D0895C3
:103D60000E94C31E0C94341F0E94261F38F00E942C
:103D70002D1F20F0952311F00C941D1F0C94231F70
:103D800011240C94681F0E94451F70F3959FC1F386
:103D9000950F50E0551F629FF001729FBB27F00DF9
:103DA000B11D639FAA27F00DB11DAA1F649F66274E
:103DB000B00DA11D661F829F2227B00DA11D621F9D
:103DC000739FB00DA11D621F839FA00D611D221F57
:103DD000749F3327A00D611D231F849F600D211D3B
:103DE000822F762F6A2F11249F5750409AF0F1F0BE
:103DF00088234AF0EE0FFF1FBB1F661F771F881F27
:103E000091505040A9F79E3F510580F00C941D1F22
:103E10000C94681F5F3FE4F3983ED4F38695779542
:103E20006795B795F795E7959F5FC1F7FE2B880FCC
:103E3000911D9695879597F9089597F99F6780E862
:103E400070E060E008959FEF80EC089500240A94EC
:103E50001616170618060906089500240A94121665
:103E60001306140605060895092E0394000C11F498
:103E7000882352F0BB0F40F4BF2B11F460FF04C045
:103E80006F5F7F4F8F4F9F4F089557FD9058440F9E
:103E9000551F59F05F3F71F04795880F97FB991FA9
:103EA00061F09F3F79F08795089512161306140666
:103EB000551FF2CF4695F1DF08C0161617061806F3
:103EC000991FF1CF86957105610508940895E894CE
:103ED000BB2766277727CB0197F908950E94D21F49
:103EE000A59F900DB49F900DA49F800D911D11244E
:103EF00008952F923F924F925F926F927F928F928E
:103F00009F92AF92BF92CF92DF92EF92FF920F9368
:103F10001F93CF93DF93CDB7DEB7CA1BDB0B0FB672
:103F2000F894DEBF0FBECDBF09942A88398848882F
:103F30005F846E847D848C849B84AA84B984C884C5
:103F4000DF80EE80FD800C811B81AA81B981CE0FBC
:103F5000D11D0FB6F894DEBF0FBECDBFED010895A1
:103F6000A1E21A2EAA1BBB1BFD010DC0AA1FBB1F7D
:103F7000EE1FFF1FA217B307E407F50720F0A21BEF
:103F8000B30BE40BF50B661F771F881F991F1A945C
:103F900069F760957095809590959B01AC01BD0186
:103FA000CF010895A29FB001B39FC001A39F700DE0
:103FB000811D1124911DB29F700D811D1124911D31
:103FC00008955058BB27AA270E94F91F0C94341F4C
:103FD0000E94261F38F00E942D1F20F039F49F3FC9
:103FE00019F426F40C94231F0EF4E095E7FB0C94CF
:103FF0001D1FE92F0E94451F58F3BA176207730768
:104000008407950720F079F4A6F50C94671F0EF449
:10401000E0950B2EBA2FA02D0B01B90190010C01D8
:10402000CA01A0011124FF27591B99F0593F50F4F0
:10403000503E68F11A16F040A22F232F342F442748
:10404000585FF3CF469537952795A795F040539540
:10405000C9F77EF41F16BA0B620B730B840BBAF010
:104060009150A1F0FF0FBB1F661F771F881FC2F77B
:104070000EC0BA0F621F731F841F48F4879577958F
:104080006795B795F7959E3F08F0B0CF9395880F49
:1040900008F09927EE0F9795879508950E94622062
:1040A0000C94341F0E942D1F58F00E94261F40F0D0
:1040B00029F45F3F29F00C941D1F51110C94681FC7
:1040C0000C94231F0E94451F68F39923B1F35523D5
:1040D00091F3951B550BBB27AA276217730784071B
:1040E00038F09F5F5F4F220F331F441FAA1FA9F3B1
:1040F00035D00E2E3AF0E0E832D091505040E6959F
:10410000001CCAF72BD0FE2F29D0660F771F881FFF
:10411000BB1F261737074807AB07B0E809F0BB0BF2
:10412000802DBF01FF2793585F4F3AF09E3F510506
:1041300078F00C941D1F0C94681F5F3FE4F3983EC9
:10414000D4F3869577956795B795F7959F5FC9F7EF
:10415000880F911D9695879597F90895E1E0660F70
:10416000771F881FBB1F621773078407BA0720F0E9
:10417000621B730B840BBA0BEE1F88F7E095089552
:104180000E94C7206894B1110C94681F08950E9482
:104190004D1F88F09F5798F0B92F9927B751B0F06D
:1041A000E1F0660F771F881F991F1AF0BA95C9F7BB
:1041B00014C0B13091F00E94671FB1E008950C94D3
:1041C000671F672F782F8827B85F39F0B93FCCF386
:1041D000869577956795B395D9F73EF49095809538
:1041E000709561957F4F8F4F9F4F0895DB018F939F
:1041F0009F930E946E1FBF91AF91A29F800D911D52
:10420000A39F900DB29F900D1124089597FB072E48
:1042100016F4009407D077FD09D00E94512107FCC5
:1042200005D03EF4909581959F4F089570956195C6
:104230007F4F08950F93083090F0982F872F762F97
:10424000652F542F432F322F22270850F4CF220FEF
:10425000331F441F551F661F771F881F991F0A951C
:10426000B2F70F91089597FB10F8169400080F937A
:10427000083098F00850232F342F452F562F672FE2
:10428000782F892F902DF4CF059497958795779562
:10429000679557954795379527950A95AAF70F91F2
:1042A0000895AA1BBB1B51E107C0AA1FBB1FA6177D
:1042B000B70710F0A61BB70B881F991F5A95A9F7CF
:1042C00080959095BC01CD010895EE0FFF1F0590DC
:1042D000F491E02D0994CF93DF938230910510F48F
:1042E00082E090E0E0918A05F0918B0520E030E0DB
:1042F000C0E0D0E0309711F1408151814817590753
:10430000C0F04817590761F482819381209719F012
:104310009B838A832BC090938B0580938A0526C04C
:104320002115310519F04217530718F49A01BE01FF
:10433000DF01EF010280F381E02DDCCF2115310593
:1043400009F1281B390B2430310590F412968D9118
:104350009C9113976115710521F0FB019383828372
:1043600004C090938B0580938A05FD01329644C06A
:10437000FD01E20FF31F81939193225031092D9398
:104380003C933AC02091880530918905232B41F454
:104390002091020130910301309389052093880513
:1043A00020910001309101012115310541F42DB713
:1043B0003EB74091040150910501241B350BE0915B
:1043C0008805F0918905E217F307A0F42E1B3F0B37
:1043D0002817390778F0AC014E5F5F4F2417350777
:1043E00048F04E0F5F1F50938905409388058193D5
:1043F000919302C0E0E0F0E0CF01DF91CF9108950A
:104400000F931F93CF93DF93009709F48CC0FC01A7
:1044100032971382128200918A0510918B05011543
:10442000110581F420813181820F931F209188052D
:10443000309189052817390779F5F0938905E093BC
:10444000880571C0D80140E050E0AE17BF0750F4B6
:1044500012962D913C911397AD012115310509F16B
:10446000D901F3CF9D01DA01338322836081718109
:10447000860F971F8217930769F4EC012881398111
:10448000260F371F2E5F3F4F318320838A819B8108
:1044900093838283452B29F4F0938B05E0938A055F
:1044A00042C01396FC93EE931297ED0149915991F6
:1044B0009E01240F351FE217F30771F4808191816B
:1044C000840F951F029611969C938E9382819381FF
:1044D00013969C938E931297E0E0F0E0D801129629
:1044E0008D919C911397009719F0F8018C01F6CFEC
:1044F0008D919C9198012E5F3F4F820F931F2091C9
:104500008805309189052817390769F4309729F40F
:1045100010928B0510928A0502C0138212821093AA
:10452000890500938805DF91CF911F910F91089520
:10453000A0E0B0E0EEE9F2E20C947D1FEC01009700
:1045400021F4CB010E946B21B8C0FC01E60FF71FDC
:104550009C0122503109E217F30708F4ACC0D901DD
:104560000D911C91119706171707B0F00530110532
:1045700008F49FC0C80104978617970708F499C0EC
:1045800002501109061B170B019311936D937C9335
:10459000CF010E9400228DC05B01A01AB10A4C011C
:1045A000800E911EA0918A05B0918B0540E050E0ED
:1045B000E12CF12C109709F44AC0A815B905D1F5E2
:1045C0006D907C901197630182E0C80ED11CCA14D3
:1045D000DB0480F1A3014A195B096A0182E0C80E7D
:1045E000D11C1296BC9012971396AC91B5E0CB16E5
:1045F000D10440F0B282A38351834083D9016D93EB
:104600007C930AC00E5F1F4FC301800F911FF901F9
:1046100091838083EB2DFA2FE114F10431F0D7015F
:104620001396FC93EE93129744C0F0938B05E0939E
:104630008A053FC08D919C9111974817590708F43E
:10464000AC017D0112960D90BC91A02DB3CF80914D
:1046500088059091890588159905E1F44617570753
:10466000C8F48091000190910101009741F48DB749
:104670009EB74091040150910501841B950BE817EA
:10468000F907C8F4F0938905E0938805F90171836F
:1046900060830FC0CB010E946B217C01009759F011
:1046A000A801BE010E946723CE010E940022C7011B
:1046B00004C0CE0102C080E090E0CDB7DEB7EEE0EE
:1046C0000C94991F81E090E0F8940C947723FB01FF
:1046D000DC0102C001900D9241505040D8F708957E
:1046E000FB01DC0101900D920020E1F70895F894A0
:0246F000FFCFFA
:1046F20000008C058000000000005612D2111F122B
:10470200FD1111129D12000000007A134A13421388
:1047120033132513241300000000BD13D211940794
:10472200A306A206FA0F00000000FA0FD211000041
:104732000000BD13D211C717A9131A14F913693255
:0E4742006320616464726573733A307800001E
:00000001FF
