:100000000C9463000C94420D0C941B0D0C94581529
:100010000C9458150C9458150C948B000C94D21514
:100020000C948B000C948B000C948B000C944B164E
:100030000C948B000C948B000C948B000C948B0014
:100040000C94D10C0C948B000C947D0B0C94570BDE
:100050000C948B000C948B000C948B000C948B00F4
:100060000C9496170C948B000000000024002700CD
:100070002A0000000000250028002B0000000000DE
:1000800023002600290004040404040404040202DA
:100090000202020203030303030301020408102007
:1000A0004080010204081020010204081020000012
:1000B0000008000201000003040700000000000027
:1000C0000000E224DE2411241FBECFEFD8E0DEBF03
:1000D000CDBF11E0A0E0B1E0EEEAF4E502C005908A
:1000E0000D92AC38B107D9F726E0ACE8B1E001C019
:1000F0001D92AF36B207E1F710E0C2E6D0E004C0CF
:100100002197FE010E943128C136D107C9F70E940C
:1001100055200C944A2A0C940000DF92EF92FF9233
:100120000F931F93CF93DF93F82ED62F082F10E055
:10013000F801EE0FFF1FE00FF11FED55FE4F80811C
:10014000833079F461E08F2D0E94080C6D2F8F2D84
:10015000DF91CF911F910F91FF90EF90DF900C9462
:10016000D80B81E08F1508F45AC0EF2CEE0CEE0C82
:10017000EE0C0F5F1F4F93E0000F111F9A95E1F7F0
:10018000C0E0DD24D3942E2D30E020173107F4F4A5
:100190008DE08E15C0F0F901EE0FFF1F2E0F3F1FEF
:1001A000F901ED55FE4F8081833069F4CD2961E07E
:1001B0008E2D0E94080C61E08D2D8D2309F460E0E6
:1001C0008E2D0E94D80BDD0CE394DDCF8C2F0E9486
:1001D0006C1CF1100AC0CC7FF8948BB16C2F609529
:1001E0006823CD23C62BCBB919C06C2F6D23F8948F
:1001F00095B18C2F8F7380958923962F9F73892BB0
:1002000085B988B16295669566956370C295C69505
:10021000C695C370C095C8236C2B68B97894DF91DC
:10022000CF911F910F91FF90EF90DF900895FF9273
:100230000F931F93CF93DF93F82E8B01C82FD0E03D
:10024000FE01EE0FFF1FEC0FFD1FED55FE4F8081ED
:10025000823009F05DC061E08F2D0E94080C61E0E2
:100260008F2D0E94080C0115110511F460E004C0E7
:100270000F3F110549F461E08F2DDF91CF911F9160
:100280000F91FF900C94D80BFE01E255FF4FE491C3
:10029000E330F9F048F4E130B9F0E230A1F584B58B
:1002A000806284BD08BD3EC0E730E9F0E83019F156
:1002B000E43049F580918000806280938000109343
:1002C0008B0000938A002EC084B5806884BD07BD72
:1002D00029C08091800080688093800010938900FD
:1002E000009388001FC08091B00080688093B000A8
:1002F0000093B30017C08091B00080628093B0007B
:100300000093B4000FC0003811050CF0B4CFAECF8D
:10031000813041F42AE0269FC001279F900D1124CF
:1003200092838183DF91CF911F910F91FF90089568
:100330000F931F93CF93DF936115710569F4282FF5
:1003400030E0F901EE0FFF1F2E0F3F1FF901ED55B1
:10035000FE4F108260E028C06130710561F490E0CA
:100360009C01220F331F820F931FFC01ED55FE4F9E
:1003700023E0208385C062307105E1F49091A201F1
:100380004091A101292F30E0280F311D241B310994
:10039000F901EE0FFF1F2E0F3F1FF901ED55FE4F24
:1003A0001082941B60E0890FDF91CF911F910F9114
:1003B0000C94080C6330710559F490E0FC01EE0FC9
:1003C000FF1F8E0F9F1FFC01ED55FE4F82E00DC0F9
:1003D0006430710561F490E0FC01EE0FFF1F8E0F99
:1003E0009F1FFC01ED55FE4F81E0808349C06530C1
:1003F000710531F06630710589F06730710559F487
:1004000090E0FC01EE0FFF1F8E0F9F1FFC01ED55CA
:10041000FE4F86E0EACF6830710559F490E0FC01A8
:10042000EE0FFF1F8E0F9F1FFC01ED55FE4F87E063
:10043000DCCF6930710559F490E0FC01EE0FFF1F2D
:100440008E0F9F1FFC01ED55FE4F85E0CECF6A3029
:100450007105B1F4C82FD0E08E01000F111FF80113
:10046000EC0FFD1FED55FE4F9081992319F060E0D0
:100470000E94D80BC00FD11FCD55DE4F84E088837A
:10048000DF91CF911F910F9108952F923F924F923C
:100490005F926F927F928F929F92AF92BF92CF9214
:1004A000DF92EF92FF920F931F93CF93DF93CDB71D
:1004B000DEB7AF970FB6F894DEBF0FBECDBF7A019F
:1004C0002DB73EB73BA72AA78F3509F0C3C0DA0185
:1004D00011968C9111979C919111A2C6082F10E052
:1004E000F801EE0FFF1FE00FF11FED55FE4F908159
:1004F000953009F095C661E00E94080CF701228151
:100500008381F0E88F9FC0011124820F911DD701D4
:1005100014962C9114971596EC90B0E8EB9E700110
:100520001124E20EF11C9C01092E000C440B550B0A
:1005300047010F2C000CAA08BB08892B29F4C50120
:10054000B4010E948B0C5BC060E472E48FE090E029
:100550000E94B827CA01B901969587957795679546
:100560006EA37FA388A799A7F801E656FF4F3490A2
:100570000A571F4FF8018491E82FF0E0EE0FFF1F9C
:10058000EE58FF4FC590D490F8010491E02FF0E0B1
:10059000EE0FFF1FE859FF4FA591B4918C9183296D
:1005A0008C932FA73CA74DA75EA70E94C50C2B01DB
:1005B0003C01232C20942FA53CA589016EA17FA18D
:1005C000061B170B0E94C50CDC01CB018419950991
:1005D000A609B70988159905AA05BB0580F4D601B7
:1005E0008C9183298C938EA19FA10E945B0CF601B4
:1005F000808182218083C8010E945B0CE3CFF8EEEA
:10060000EF16F3E0FF067CF4C70168EE73E00E948A
:100610000928009709F404C6BC01990F880B990BAF
:100620000E948B0CFDC5C70168EE73E00E9409288B
:100630006B0110E0812F90E08C159D052CF768EE82
:1006400073E080E090E00E948B0C80E00E946C1CC4
:100650001F5FF0CF8E35C9F5DA01DC90D0929201A0
:1006600011968C9111978093640612969C91129723
:1006700013962C9130E08901BAE09B9F000D111D6B
:100680001124482F50E0FA01EE0FFF1F4E0F5F1F9D
:10069000FA01ED55FE4F94E0908360E00E94080C53
:1006A00081E0809365069801409164066D2DCE012E
:1006B00001960E94F91582E1FE013196A6E7B5E0A8
:1006C00001900D928A95E1F7ABC58D35A9F4FA0139
:1006D000808180935F0690E0FC01EE0FFF1F8E0F7C
:1006E0009F1FFC01ED55FE4F84E08083DA011196D7
:1006F0008C918093600694C58C3509F02BC16AE813
:1007000071E0CE014A960E94ED09F7011081112394
:1007100019F0133009F044C0D7011196CC9011970D
:1007200012969C90129713960C91E4E08E2ED12C89
:10073000B3E0CB0ED11C282D30E0C216D3060CF14D
:10074000F701E20FF31F808189831A82AE8CBF8C80
:10075000EFEFAE1ABE0AB501CE014A960E944409D7
:10076000882369F02A8D3B8D8E8D9F8DBE016F5F32
:100770007F4F820F931F0E94432ABF8EAE8E8394B9
:10078000DACF111104C086E496E00E941812692D98
:10079000802F0E94301ACE014A960E94271AD5C097
:1007A000113049F4E0914606F09147060084F18546
:1007B000E02D6FEF0AC0123061F4E0914606F0912F
:1007C00047060084F185E02D60E086E496E0099517
:1007D000BCC0143029F486E496E00E941812B5C01B
:1007E000153011F468E103C0163031F46CE186E491
:1007F00096E00E941012A9C0173009F0A6C011811E
:10080000F2800E94E21F082F90916606B1E0FB1271
:1008100045C09130C9F0173209F46FC01C821B82A9
:1008200080E791E09A838983198A8FEF888B1F86EE
:100830001A8A1C871D861E861B861A8684E08B8B6F
:1008400082E08C8BFD8A46C01C821B8220E731E04F
:100850003A832983198A8FEF888B1F861A8A0C871F
:100860001D861E861B861A8684E08B8B82E08C8B0D
:100870009D8B80E18E8B80E28F8B80E4888F80E877
:10088000898F40E050E063E0CE0101960E94831022
:10089000CE0101960E94C81C102F2FC0913009F480
:1008A00054C0173209F451C01C821B8280E791E0CA
:1008B0009A838983198A8FEF888B1F861A8A1C87EF
:1008C0001D861E861B861A8684E08B8B82E08C8BAD
:1008D00081E08D8B80E18E8B80E28F8B80E4888F2E
:1008E00080E8898F40E050E063E0CE0101960E94ED
:1008F0008310CE0101960E94C81C20E042E060E116
:1009000086E496E00E94AB1260E080E00E94301A1C
:1009100040E1612FCE0180960E94A2096CE771E050
:10092000CE0101960E94ED09BE01605E7F4FCE01AF
:1009300001960E946B090E94271ACE0101960E941F
:100940009D09CE0180960E949D09CE014A960E9483
:100950009D0966C48A3509F07FC0ADB6BEB6FA01FE
:10096000C080D12CC601880F991F2DB73EB7281B18
:10097000390B0FB6F8943EBF0FBE2DBF0DB71EB793
:100980000F5F1F4F41E097012C0D3D1D842F90E01C
:10099000C816D906C4F0F701E80FF91F5081FC0111
:1009A0003197EE0FFF1FE00FF11FD901A80FB91FFC
:1009B0008C9190E068EC569F800D911D11249183DD
:1009C00080834F5FE3CF1092700061E083E00E946C
:1009D000080C60E083E00E94D80B81E08093B000B7
:1009E00089E08093B10082ED8093B30086E4809328
:1009F000B400E12CF12CEC14FD04ECF4E0FE07C093
:100A0000D8012D913C919091B0009F7D06C0F801D6
:100A1000208131819091B00090629093B0002115B7
:100A2000310519F0C9010E945B0CFFEFEF1AFF0AB4
:100A30000E5F1F4FE0CF8091B0008F7D8093B0009C
:100A400062E370E080E090E00E948B0C0FB6F894B7
:100A5000BEBE0FBEADBEE4C3893561F5DA011196A5
:100A60001C910E94C50C28EE33E040E050E00E944B
:100A7000B827812F90E0280F391F3093620620930A
:100A8000610680912F028111CBC381E080932F02F8
:100A900083EE91E1909301018093000180916900C0
:100AA0008C7F816080936900E89A60E082E00E9418
:100AB000080CB6C3873509F06FC0FA018081811137
:100AC00025C0818180933E02928190933F0261E034
:100AD0000E94080C61E080913F020E94080C0E9475
:100AE000671480E40E940A140E944F140E94671445
:100AF00080EC0E940A148FE30E940A148FE30E9484
:100B00000A148FE30E940A148FE338C0823029F45C
:100B1000818181508093910183C3813009F080C32A
:100B200080913E02882309F47BC390913F02992370
:100B300009F476C361E00E94080C61E080913F02F5
:100B40000E94080C0E94671480E40E940A140E940C
:100B50004F140E94671480EC0E940A14F7018181EF
:100B60000E940A14D70112968C910E940A14F70170
:100B700083810E940A14D70114968C910E940A1452
:100B80000E944F140E9467148091910188570E941F
:100B90000A140E944F1444C38635C9F5FA01108126
:100BA00081810281811117C0812F90E0FC01EE0F3D
:100BB000FF1F8E0F9F1FFC01ED55FE4F808183307C
:100BC00009F02EC361E0812F0E94080C602F812F55
:100BD0000E94D80B25C3813009F022C3812F90E0F9
:100BE000FC01EE0FFF1FE80FF91FED55FE4F80814E
:100BF000813009F015C3DA0113968C9190E0BAE0C8
:100C00000B9F800D911D11249283818309C385352B
:100C100009F048C0FA01C080D1800381000F8481AF
:100C2000080F828110E0882309F1E12CF12CB80132
:100C30000E2C02C0759567950A94E2F761707727CC
:100C40008C2D0E94D80B61E08D2D0E94D80B60E0A6
:100C50008D2D0E94D80BFFEFEF1AFF0A28E0E21655
:100C6000F10429F78C2D0E946C1CDAC277E0E72E84
:100C7000F12CB8010E2C02C0759567950A94E2F725
:100C8000617077278C2D0E94D80B61E08D2D0E941A
:100C9000D80B60E08D2D0E94D80B31E0E31AF108EB
:100CA00040F7E0CF843509F010C1DA012C9111969C
:100CB000BC90C22ED12CF601EE0FFF1FEC0DFD1DD6
:100CC000ED55FE4F84E08083EB2CF12CF701EE0F05
:100CD000FF1FEE0DFF1DED55FE4F80838FE190E06D
:100CE0002FA70E9437288C01FC011382128288EE04
:100CF00093E0A0E0B0E084839583A683B7838EE081
:100D000091E091838083178A168A118E108E138E3C
:100D1000128E158E148E668D6E7F6D7F668F669532
:100D2000617081E068278B2D0E94D80B61E08B2DCC
:100D30000E94080CF701E656FF4FE491D801509647
:100D4000EC93F701EA57FF4FE491F0E0EE0FFF1F3D
:100D5000EE58FF4F85919491F801928B818B60E062
:100D60002FA5822F0E94080CD8015E968C912FA58A
:100D700081FD05C061E0822F0E94D80B2FA5F801EC
:100D80002487F601E656FF4FE491D8011D96EC93B7
:100D9000F601EA57FF4FE491F0E0EE0FFF1FE45831
:100DA000FF4F85919491F801978786871093EF0103
:100DB0000093EE01138E128E118E108E178A168AF2
:100DC0008DE991E0958F848F263108F04CC08DEB32
:100DD00090E0978B868B8BE991E0918F808F8CE2EE
:100DE00091E0938F828F90916800283050F031E02D
:100DF0002E3008F430E081E001C0880F3A95EAF720
:100E000001C084E0892B80936800283028F02E30C0
:100E100030F08CE690E005C08DE690E002C08BE6F5
:100E200090E0D80154969C938E935397283030F4D9
:100E300081E001C0880F2A95EAF70EC02E3020F419
:100E4000B8E0CB1AD10803C0EEE0CE1AD10881E099
:100E500001C0880FCA94EAF7D80155968C938DE9A2
:100E600091E00197F1F7F801828D938D892B49F17B
:100E7000E0914402F0914502E017F10711F130973B
:100E800039F0A389B4899C918589809589238C93B5
:100E9000D8015E968C915E978E7F5E968C935E975E
:100EA00010924202109243021093450200934402B2
:100EB0005396ED91FC915497908155968C91892B86
:100EC000808381E080933002ABC1833509F0E0C0BC
:100ED000FA018081882309F4D8C001811281802F12
:100EE00090E0FC01EE0FFF1F8E0F9F1FFC01ED55E0
:100EF000FE4F84E08083212F30E0F901EE0FFF1FC9
:100F00002E0F3F1FF901ED55FE4F8083FFB6F89479
:100F100080919001811127C0E0E9F0E09491E4EA2A
:100F2000F0E08491E92FF0E0EE0FFF1FE859FF4F4A
:100F3000A591B491EC91E82321F461E08AE00E944C
:100F4000D80B61E08AE00E94080C8CB580618CBDF2
:100F50008CB580648CBD61E08DE00E94080C61E07E
:100F60008BE00E94080C809190018F5F809390012C
:100F7000FFBE8CE0FE013396A8E6B5E001900D922D
:100F80008A95E1F7009374051093750561E0802F51
:100F90000E94080C61E0809174050E94D80B80913A
:100FA00075058F3FA9F061E00E94080C80917505DE
:100FB0000E94AF0B892B61F461E0809175050E945E
:100FC000D80B62E370E080E090E00E948B0C13C0CD
:100FD0004FE062E086E695E00E94090E62E370E071
:100FE00080E090E00E948B0C62E086E695E00E9433
:100FF000E90D84FDF9CF40E064E286E695E00E94C9
:10100000090E40E066E286E695E00E94090E46E29F
:1010100068E486E695E00E94090E40E864E586E60D
:1010200095E00E94090E49EA66E586E695E00E9491
:10103000090E43E068E586E695E00E94090E48EE59
:101040006AE586E695E00E94090E40E46AE286E6DB
:1010500095E00E94090E4DE362E286E695E00E946B
:10106000090E68E286E695E00E94E90D982F9370DC
:10107000933039F0482F436068E286E695E00E949D
:10108000090E81E080936306CBC010926306C8C04E
:10109000823509F0C5C0DA018C9181113CC01196EE
:1010A0001C91119712968C91682F70E01A82188605
:1010B0001A8619861F86188A198A1A8A21E02E87AD
:1010C0002B871C8632E03D872983CE0101960E9442
:1010D0009B0D612FCE0101960E94690D85E1FE01F5
:1010E0003196A1E5B5E001900D928A95E1F7CE0128
:1010F00001960E94D50D8091570587FD08C061E0DB
:101100000E94080C60E0809157050E94D80B81E096
:101110008093520583C0813009F074C0FA01848144
:101120009581638172815181252F30E0E0915305D3
:10113000F09154052E173F0708F070C0E92F92FB7D
:10114000442740F9A0E84A9F80191124B0E89B9FEA
:101150007019112490E0A0E0B0E0A72BE1FB442738
:1011600040F9E0E84E9F60191124962B4D01AA2406
:10117000BB24C92EDA2EEB2EFF247C2D682F409144
:101180005805442391F0E42FF0E0E89DB001E99D7B
:10119000700DF89D700D1124872EC49E60011124DE
:1011A0007D2D849FC0011124692F40915E05E0913F
:1011B0005B058091590590915A054E1306C0F3E0E6
:1011C0005F9F800D911D11240AC0220F331F220F33
:1011D000331F820F931FFC01E40FF11D1082209139
:1011E0005B05FC01E20FF11D808220915C05FC0192
:1011F000E20FF11D708320915D05FC01E20FF11DEE
:1012000060830CC0409155055091560560E070E038
:101210008091590590915A050E943C2A0E946719B5
:101220002AA53BA50FB6F8943EBF0FBE2DBFAF96C3
:101230000FB6F894DEBF0FBECDBFDF91CF911F91E7
:101240000F91FF90EF90DF90CF90BF90AF909F9065
:101250008F907F906F905F904F903F902F90089568
:101260000E942E2ACF93DF93EC0188819981009709
:1012700011F00E94CC28198218821D821C821B82C8
:101280001A82DF91CF9108950F931F93CF93DF932D
:10129000EC0188819981009729F02A813B812617EA
:1012A000370788F48B016F5F7F4F0E946429009796
:1012B00061F0998388831B830A832C813D81232BD2
:1012C00011F4FC01108281E001C080E0DF91CF9138
:1012D0001F910F910895EF92FF920F931F93CF9359
:1012E000DF93EC01FB0184819581E080F1800C812A
:1012F0001D81E114F104B1F00097B9F0080F191F36
:10130000B801CE010E944409882361F02881398107
:101310008C819D81B701820F931F0E94432A1D83F8
:101320000C8303C0CE010E943209CE01DF91CF9120
:101330001F910F91FF90EF900895FC0180819181A2
:101340000C94CC28CF92DF92EF92FF920F931F93D1
:10135000CF93DF93CDB7DEB729970FB6F894DEBFF2
:101360000FBECDBF8C01862FF8011182108213822F
:1013700012821582148250E09E012F5F3F4F690157
:10138000B90190E00E945126F60101900020E9F792
:1013900031977F01EC18FD08B701C8010E9444098C
:1013A000811104C0C8010E94320908C0F801F58209
:1013B000E482B601808191810E94432A29960FB66A
:1013C000F894DEBF0FBECDBFDF91CF911F910F917B
:1013D000FF90EF90DF90CF900895EF92FF920F93E0
:1013E0001F93CF93DF93EC01198218821B821A821C
:1013F0001D821C826115710521F18B01FB01019099
:101400000020E9F731977F01E61AF70AB7010E9439
:101410004409811109C0CE01DF91CF911F910F9135
:10142000FF90EF900C943209FD82EC82B801888124
:101430009981DF91CF911F910F91FF90EF900C94C4
:10144000432ADF91CF911F910F91FF90EF90089564
:10145000CF92DF92EF92FF920F931F93CF93DF9380
:101460006C017A018B01C0E0D0E0CE15DF0589F078
:10147000D8016D918D01D601ED91FC910190F08123
:10148000E02DC6010995892B11F47E0102C0219639
:10149000ECCFC701DF91CF911F910F91FF90EF909B
:1014A000DF90CF900895FC01918D828D981761F0A7
:1014B000828DDF01A80FB11D5D968C91928D9F5F8B
:1014C0009F73928F90E008958FEF9FEF0895FC0136
:1014D000918D828D981731F0828DE80FF11D858DE9
:1014E00090E008958FEF9FEF0895FC01918D228D7C
:1014F000892F90E0805C9F4F821B91098F73992701
:10150000089588EE93E00E94750A21E0892B09F482
:1015100020E0822F0895FC01848DDF01A80FB11D0A
:10152000A35ABF4F2C91848D90E001968F73992719
:10153000848FA689B7892C93A089B1898C91806406
:101540008C93938D848D981306C00288F389E02DC7
:1015500080818F7D80830895EF92FF920F931F9378
:10156000CF93DF93EC0181E0888F9B8D8C8D981356
:1015700005C0E889F989808185FD24C0F62E0B8D90
:1015800010E00F5F1F4F0F731127E02E8C8DE812B4
:101590000CC00FB607FCFACFE889F989808185FF76
:1015A000F5CFCE010E948B0AF1CF8B8DFE01E80FA3
:1015B000F11DE35AFF4FF0820B8FEA89FB8980818E
:1015C000806207C0EE89FF896083E889F98980819C
:1015D0008064808381E090E0DF91CF911F910F9133
:1015E000FF90EF900895CF93DF93EC01888D8823CF
:1015F000C9F0EA89FB89808185FD05C0A889B98980
:101600008C9186FD0FC00FB607FCF5CF808185FF5A
:10161000F2CFA889B9898C9185FFEDCFCE010E94C8
:101620008B0AE7CFDF91CF91089580E090E0892B7E
:1016300029F00E94810A81110C94000008958330E2
:1016400081F028F4813099F08230A1F0089587303C
:10165000A9F08830B9F08430D1F4809180008F7D7A
:1016600003C0809180008F7780938000089584B5B7
:101670008F7702C084B58F7D84BD08958091B000BE
:101680008F7703C08091B0008F7D8093B000089564
:101690000895DC01ED91FD91BD010190F081E02DF7
:1016A00040E0099591E0811190E0892F08951F9203
:1016B0000F920FB60F9211242F933F934F935F9386
:1016C0006F937F938F939F93AF93BF93EF93FF930A
:1016D00088EE93E00E948B0AFF91EF91BF91AF914A
:1016E0009F918F917F916F915F914F913F912F913A
:1016F0000F900FBE0F901F9018951F920F920FB66C
:101700000F9211242F938F939F93EF93FF93E09168
:10171000F803F091F9038081E091FE03F091FF035B
:1017200082FD12C09081809101048F5F8F732091A0
:101730000204821751F0E0910104F0E0E851FC4FFF
:10174000958F8093010401C08081FF91EF919F915B
:101750008F912F910F900FBE0F901F901895CF93E0
:10176000DF93282F30E0F901E255FF4F8491F90112
:10177000E656FF4FD491F901EA57FF4FC491CC23AD
:1017800091F081110E941F0BEC2FF0E0EE0FFF1F74
:10179000E458FF4FA591B491EC91ED2381E090E0E6
:1017A00021F480E002C080E090E0DF91CF910895C5
:1017B0001F93CF93DF93282F30E0F901E255FF4FBD
:1017C0008491F901E656FF4FD491F901EA57FF4F92
:1017D000C491CC23C9F0162F81110E941F0BEC2F4E
:1017E000F0E0EE0FFF1FEE58FF4FA591B4918FB7B9
:1017F000F894111105C09C91ED2FE095E92302C0EA
:10180000EC91ED2BEC938FBFDF91CF911F91089559
:10181000CF93DF9390E0FC01E656FF4F2491FC014B
:10182000EA57FF4F8491882361F190E0880F991F58
:10183000FC01E859FF4FC591D491FC01EE58FF4FD0
:10184000A591B491611109C09FB7F8948881209542
:1018500082238883EC912E230BC0623061F49FB702
:10186000F8943881822F809583238883EC912E2BE6
:101870002C939FBF06C08FB7F894E8812E2B288346
:101880008FBFDF91CF9108958E3008F08E50877012
:10189000806480937C0080917A00806480937A00D9
:1018A00080917A0086FDFCCF8091780020917900AC
:1018B00090E0922B08958230910538F0880F991F9F
:1018C000880F991F05970197F1F708953FB7F8948E
:1018D0008091360290913702A0913802B09139027E
:1018E00026B5A89B05C02F3F19F00196A11DB11D7B
:1018F0003FBFBA2FA92F982F8827820F911DA11DB6
:10190000B11DBC01CD0142E0660F771F881F991FF2
:101910004A95D1F708958F929F92AF92BF92CF923E
:10192000DF92EF92FF926B017C010E94660C4B01EB
:101930005C01C114D104E104F104F1F00E94660CD1
:10194000DC01CB0188199909AA09BB09883E93409B
:10195000A105B10570F321E0C21AD108E108F10830
:1019600088EE880E83E0981EA11CB11CC114D1041E
:10197000E104F10419F7DDCFFF90EF90DF90CF90F5
:10198000BF90AF909F908F9008952FB7F89460917B
:1019900032027091330280913402909135022FBF50
:1019A00008951F920F920FB60F9211242F933F9319
:1019B0008F939F93AF93BF938091320290913302A4
:1019C000A0913402B09135023091310223E0230F0F
:1019D0002D3720F40196A11DB11D05C026E8230F67
:1019E0000296A11DB11D2093310280933202909383
:1019F0003302A0933402B093350280913602909165
:101A00003702A0913802B09139020196A11DB11D93
:101A10008093360290933702A0933802B093390234
:101A2000BF91AF919F918F913F912F910F900FBEDA
:101A30000F901F9018951F920F920FB60F921124BE
:101A40002F933F934F935F936F937F938F939F93C6
:101A5000AF93BF93EF93FF93E0910201F0910301E5
:101A60000995FF91EF91BF91AF919F918F917F91D8
:101A70006F915F914F913F912F910F900FBE0F90FB
:101A80001F9018951F920F920FB60F9211242F934B
:101A90003F934F935F936F937F938F939F93AF93F6
:101AA000BF93EF93FF93E0910001F091010109953D
:101AB000FF91EF91BF91AF919F918F917F916F9126
:101AC0005F914F913F912F910F900FBE0F901F90FC
:101AD00018951F93CF93DF93EC01162F89818823EC
:101AE00031F08E8187FD03C060E00E94080C1E83E8
:101AF0008981882341F061E0812F0E94080C60E019
:101B0000812F0E94D80B812F90E0FC01EA57FF4FF4
:101B1000E491F0E0EE0FFF1FEE58FF4F2591349156
:101B20003B8B2A8BFC01E656FF4FE491EC8BDF9157
:101B3000CF911F910895EF92FF920F931F93CF9330
:101B4000DF93EC017B0188859985009711F00E9455
:101B5000CC289D858A85981719F084E090E002C012
:101B600083E090E08E9D80018F9D100D9E9D100D55
:101B700011241D830C83C8010E9437289987888708
:101B8000009741F0A80160E070E00E943C2AFB82CF
:101B9000EA8204C01D821C821B821A82DF91CF91CF
:101BA0001F910F91FF90EF900895CF93DF93EC0179
:101BB00088859985009711F00E94CC288E8187FD39
:101BC00005C060E0DF91CF910C94080CDF91CF91BC
:101BD00008951F93CF93DF93EC01162F83E590E0D8
:101BE0000E94551560E08E850E94D80B812F806879
:101BF0000E944E1580E00E944E15182F61E08E85E0
:101C00000E94D80B0E944D15812FDF91CF911F911B
:101C10000895EF92FF921F93CF93DF931F92CDB75A
:101C2000DEB77C01162F83E590E049830E945515AD
:101C300060E0F70186850E94D80B812F0E944E1527
:101C40004981842F0E944E1561E0F70186850E942C
:101C5000D80B0F90DF91CF911F91FF90EF900C94D4
:101C60004D158F929F92AF92CF92EF92FF920F936A
:101C70001F93CF93DF9300D000D01F92CDB7DEB774
:101C80004C0182E08D8340E064E2C4010E94090EB1
:101C900040E066E2C4010E94090E46E268E4C40125
:101CA0000E94090E86E28C838D81823040F16CE1C6
:101CB000C4010E94E90D482F4F776CE1C4010E94D6
:101CC000090E87E08B83A12CC12CCE0103967C01E9
:101CD0008E010B5F1F4F9E012F5F3F4F41E0BE0102
:101CE0006C5F7F4FC4010E94CF1A81110BC08D81A0
:101CF000823039F481E09B81911104C008C084E0F6
:101D000001C081E091E0823019F090E001C091E0E3
:101D1000892F0F900F900F900F900F90DF91CF9120
:101D20001F910F91FF90EF90CF90AF909F908F9069
:101D30000895CF92DF92EF92FF920F931F93CF936C
:101D4000DF93EC016B01142F790140E062E00E9407
:101D5000090E44E06AE0CE010E94090E40E864E109
:101D6000CE010E94090EA601612FCE010E94941A95
:101D700043E062E0CE010E94090E08E813E16AE048
:101D8000CE010E94E90D82FF13C040E062E0CE0167
:101D90000E94090E64E4CE010E94E90DF7018083E0
:101DA00062E4CE010E94E90DF701818380E004C066
:101DB0000150110921F783E0DF91CF911F910F911D
:101DC000FF90EF90DF90CF9008952F923F924F9227
:101DD0005F926F927F928F929F92AF92BF92CF92BB
:101DE000DF92EF92FF920F931F93CF93DF93CDB7C4
:101DF000DEB72D970FB6F894DEBF0FBECDBF4135CD
:101E000008F010C1342E3B014C016CE10E94E90D39
:101E1000482F4F776CE1C4010E94090EBB24B39494
:101E200022E0B21691F033E0B316E1F041E0B412D3
:101E3000FDC083E989833320D1F081E0F3019081F3
:101E4000953008F480E0D12C17C085E989833320D0
:101E500081F081E0F3019081983008F480E053E054
:101E6000D52E0AC087E9898346E0D42E04C0D12C40
:101E700002C033E0D32E80E0532DF8EFDF9E500DEB
:101E8000112457FD50E0882321F098E89B8343E01C
:101E900001C042E021E0952F977009F420E0952FD2
:101EA000959595959595290F21F4882311F1585F03
:101EB00020C0811102C094E001C093E0291708F40A
:101EC000922F20E030E06D2D70E0E42FE20FA1E0D2
:101ED000B0E0AC0FBD1FAE0FB11DF901E60FF71F4B
:101EE000E60DF71DE181EC932F5F3F4F291768F353
:101EF000DCCF23E0222E5032FCF020E72A839C81A5
:101F00008B8189279D8189279E8189278F839E01C7
:101F1000285F3F4F47E0BE016F5F7F4FC4015D8781
:101F20000E94990E5D858111CDC01B862A86CE0147
:101F300007962C0179E01EC0952F97709B87252F5F
:101F400025952595259582E0820F392FE0E18E9F1A
:101F5000300D11243A8371E0911101C070E0780FC7
:101F600044244394512C4C0E5D1E480E511C87E0B6
:101F7000821B8A87CB844C2D4295407F4C0D6AE1B1
:101F8000C4015D877C870E94090EA12C9E01255FFC
:101F90003F4F79018E01065F1F4F92017C85472FCD
:101FA000BE016F5F7F4FC4010E94CF1A5D858230F2
:101FB00099F56CE1C4010E94E90D5D8585FD34C091
:101FC0008F7109F480E2282F30E0452F550F550B13
:101FD000421753075CF5582FC9010197877099275D
:101FE00025952595259531E0320F21E0009709F4DC
:101FF00020E0230FE1E0F0E0EC0FFD1FE20FF11D08
:1020000021E030E002C0220F331F8A95E2F7C901B8
:102010009081892B80836FCF811154C0503244F45A
:1020200050E26BCF86E04EC082E04CC085E04AC0F3
:102030008B81883809F043C033E023E080E090E0F2
:102040006D2D70E0FC01E60FF71FE60DF71D432F25
:10205000480FA1E0B0E0AC0FBD1FA40FB11D4C9123
:1020600041830196821770F38A85833021F58B8531
:10207000811121C09E012D5F3F4F41E0B201C4019B
:102080000E94990E81111EC09B81F20181819813DB
:1020900014C09C818281981310C0808182FF02C08D
:1020A000B394BECEF30183878B2D880FB80EB39403
:1020B000B08280E007C081E005C087E003C032E065
:1020C00024E0BCCF2D960FB6F894DEBF0FBECDBF77
:1020D000DF91CF911F910F91FF90EF90DF90CF9004
:1020E000BF90AF909F908F907F906F905F904F9038
:1020F0003F902F9008958091400290E020914102FE
:10210000821B9109089521E001C0220F6A95EAF728
:10211000DC011C962C931C971A965C934E9319978E
:10212000ED91FC910084F185E02D60E00994DC01E3
:10213000ED91FC910284F385E02D41E0099581E069
:1021400090E00895089508950895862F642FE091F2
:102150009F01F091A001309711F0A9010994089511
:102160000895862FE0919701F0919801309711F032
:10217000BA0109940895862FE0919901F0919A018E
:10218000309711F0BA0109940895862FE0919301D8
:10219000F0919401309711F0BA0109940895862FB7
:1021A000E0919501F0919601309711F0BA010994F0
:1021B0000895862FE0919B01F0919C01309711F0DA
:1021C000BA0109940895862FE0919D01F0919E0136
:1021D000309711F0BA0109940895CF92DF92EF92EF
:1021E000FF920F931F93CF93DF937C01262F972F9E
:1021F0008A018091C403882391F0C62FD72F6E01E6
:10220000C40ED51ECC15DD0571F06991D701ED9195
:10221000FC910190F081E02DC7010995F3CF642F67
:10222000822F0E94C418C801DF91CF911F910F9196
:10223000FF90EF90DF90CF900895CF93DF931F92A0
:10224000CDB7DEB769832091C4032223D1F020915A
:10225000E703203240F021E030E0FC0133832283A9
:1022600080E090E015C08091C503E82FF0E0EA53CC
:10227000FC4F998190838F5F8093C5038093E70320
:1022800005C061E0CE0101960E94C41881E090E093
:102290000F90DF91CF910895FC0123812223B9F0A3
:1022A0009181909569236083828191E09093C4032A
:1022B0008093E6031092C5031092E70385E894E04B
:1022C0000E941D110E940A19282F30E002C020E050
:1022D00030E081E090E0232B11F080E090E0089561
:1022E000EF92FF920F931F93CF938C01FC01759691
:1022F00084E0C0E060FF02C09081C92B66958150E8
:1023000031968111F7CF413011F4F8014489F80179
:102310008585C82BC42B7801FEE0EF0EF11CF80177
:1023200062896C2BC7010E944C11F801628960958B
:102330006C23C701CF911F910F91FF90EF900C94E8
:102340004C110F931F93CF93DF93062F0F704230E2
:1023500019F440E0602F10C0142F262FEC0130E05C
:10236000B90184E0759567958A95E1F7CE010E94E1
:102370007011412F602FCE01DF91CF911F910F91EE
:102380000C947011FC0184858823A9F02185328585
:102390002115310519F4611106C007C0213031053E
:1023A00021F4611102C0858701C015866585CF01C2
:1023B0000E960C944C110895009721F0805C9F4F6D
:1023C0000C946A1A0895CF93DF9380912C02909118
:1023D0002D024F9710F5C0912C02D0912D02CE0105
:1023E000019690932D0280932C020E94660CCC0FD4
:1023F000DD1FC051DE4F7983688380912C0290915C
:102400002D02892B51F00E94C50C60933A02709303
:102410003B0280933C0290933D02DF91CF9108955F
:10242000DC01ED91FC910284F385E02D40E00994FC
:1024300061E00E9410128BE39FE10197F1F708958C
:102440000F931F93CF93DF93EC01423018F08C81F0
:1024500088608C834F836887222329F0413019F4E8
:102460008C8184608C8364E670E080E090E00E9460
:102470008B0C6C8164FD31C0E881F9810284F385A5
:10248000E02D42E063E0CE0109958BE496E40197EC
:10249000F1F7E881F9810284F385E02D42E063E001
:1024A000CE01099503E512E0C8010197F1F7E88133
:1024B000F9810284F385E02D42E063E0CE010995C5
:1024C000C8010197F1F7E881F9810284F385E02DD5
:1024D00042E062E0CE01099517C06062CE010E9421
:1024E00010128BE496E40197F1F76C816062CE01E3
:1024F0000E94101203E512E0C8010197F1F76C8108
:102500006062CE010E941012C8010197F1F76C8140
:102510006062CE010E9410128BEE90E00197F1F7FD
:1025200084E08D836CE0CE010E941012CE010E94E7
:10253000181282E08E8366E0CE010E941012E881BC
:10254000F9810084F185E02D6FEFCE01DF91CF910D
:102550001F910F910994FF920F931F93CF93DF93D5
:10256000EC01162F042FF22E8B85888B10924102DE
:10257000109240021092C5031092E7030E94EC18DB
:10258000888991E09093C4038093E6031092C50379
:102590001092E7030E940A1991E0811190E0998B53
:1025A000992329F085E894E00E943E158E87898959
:1025B000882339F01F861C8260E0CE010E960E94AF
:1025C0004C112F2D402F612FCE01DF91CF911F9104
:1025D0000F91FF900C9420122F923F925F926F9276
:1025E0007F928F929F92AF92BF92CF92DF92EF92A3
:1025F000FF920F931F93CF93DF937C013901DA0190
:102600005C90232B19F466246A94762C8A011A01B3
:10261000260E371EC0E0D0E0812C912C87E0C82E1A
:10262000D12C0215130509F444C08614970408F050
:1026300068C05801F70180819181FC01A081B181BE
:10264000F80121918F01E22F0C2E01C0EE0F0A94A8
:10265000EAF7652D6E2B6F77ED91FC9109958FEF61
:10266000881A980AD5016C9170E0C6018C1B9D0BED
:1026700002C0759567958A95E2F7562E2196C73068
:10268000D10578F28614970461F2F7018081918177
:10269000DC01ED91FC91652D6F770190F081E02DCB
:1026A0000995BFEF8B1A9B0A551C5524551C27977B
:1026B000E6CF209731F18614970418F5F701808151
:1026C0009181DC01ED91FC9161E070E001C0660F49
:1026D000CA95EAF7615065210190F081E02DDF9104
:1026E000CF911F910F91FF90EF90DF90CF90BF900F
:1026F000AF909F908F907F906F905F903F902F90C2
:102700000994DF91CF911F910F91FF90EF90DF908F
:10271000CF90BF90AF909F908F907F906F905F9081
:102720003F902F900895DF92EF92FF920F931F93A7
:10273000CF93DF93FC01E058FF4FD080DD2009F4F8
:102740005CC0319600811181D8011196FC901197DF
:10275000EC90EC01C05CDF4F88819981009709F40F
:102760004CC0DC01ED91FC910190F081E02D60EF17
:10277000099588819981DC01ED91FC910190F081AE
:10278000E02D69E7099588819981DC01ED91FC9143
:102790000190F081E02D6E2D099588819981DC01F1
:1027A000ED91FC910190F081E02D6F2D099578015C
:1027B000B2E0EB0EF11C0D0D111DE016F10661F0FB
:1027C00020E030E0A70161E070E0CE010E94EC1251
:1027D000EFEFEE1AFE0AF1CF88819981DC01ED91CD
:1027E000FC910190F081E02D67EFDF91CF911F9177
:1027F0000F91FF90EF90DF900994DF91CF911F919F
:102800000F91FF90EF90DF900895009711F00C94D6
:10281000931308951F93CF93DF93182FC8E0D0919F
:102820003F0260E08D2F0E94D80B10FF02C061E0D4
:1028300001C060E080913E020E94D80B169561E0D5
:102840008D2F0E94D80BC15051F760E08D2F0E9450
:10285000D80BC0913E0261E08C2F0E94D80B61E042
:102860008D2F0E94D80B60E08C2F0E94080CD8ECB2
:102870008C2F0E94AF0B892B59F0D150C9F761E022
:102880008C2F0E94080C60E08C2F0E94D80BEFCF99
:1028900061E08C2FDF91CF911F910C94080CCF93A6
:1028A000DF93D0913F0260E08D2F0E94D80BC09142
:1028B0003E0260E08C2F0E94D80B61E08D2F0E94B9
:1028C000D80B61E08C2FDF91CF910C94D80BCF9374
:1028D000DF93C0913F0261E08C2F0E94D80BD09112
:1028E0003E0261E08D2F0E94D80B60E08D2F0E9488
:1028F000D80B60E08C2FDF91CF910C94D80B2091F6
:102900004402309145022817390771F4909143022F
:1029100080914202981741F0E0914302F0E0E35ABF
:10292000FC4F808190E008958FEF9FEF0895089508
:102930001F93CF93DF93DC015C962D913C915D97C3
:102940002115310539F481E090E013969C938E9324
:1029500012973DC05196ED91FC91529750969C91E3
:102960005097892F80951FB75E964C915E9741FBDB
:10297000772770F941FD6095F8944081772311F035
:10298000492B01C048234083E9012197F1F748E032
:10299000508160FF02C0592B01C058235083E901C8
:1029A0002197F1F76695415099F7772321F09081AF
:1029B0008923808303C08081982B90831FBF5C96FE
:1029C0008D919C915D970197F1F721E030E0C9016D
:1029D000DF91CF911F9108952091440230914502DB
:1029E0002817390771F4809142022091430290E048
:1029F000805C9F4F821B910960E470E00E9409286F
:102A0000089580E090E008952091440230914502BD
:102A100028173907B9F49091430280914202981720
:102A200089F0E0914302F0E0E35AFC4F808120916D
:102A3000430230E02F5F3F4F2F7333272093430231
:102A400090E008958FEF9FEF089585ED8093BC008F
:102A50008091BC0084FDFCCF1092C30308950895BB
:102A600081E090E03091410220914002321710F451
:102A700080E090E0919581959109089580914102BF
:102A800090914002891730F48F5F8093410280E07B
:102A900090E008958FEF9FEF089508958EBD000098
:102AA0000DB407FEFDCF8EB508958CBD9DBD089574
:102AB0001F920F920FB60F9211242F933F934F93B3
:102AC0005F936F937F938F939F93AF93BF93EF9396
:102AD000FF93E0914402F0914502309709F451C010
:102AE000968DA685B785858591FF04C09C91892325
:102AF00029F447C09C91892309F043C0A389B48974
:102B00009C918589809589238C93868997890197E3
:102B1000F1F7608D718DA685B785558538E020E089
:102B2000CB010197F1F7822F90E095958795282F9B
:102B30004C91452309F02068315091F7868D81FD35
:102B400020958091420290E001968F7399273091F1
:102B50004302381749F0A0914202B0E0A35ABC4F9B
:102B60002C938093420203C0868D8160868F828D74
:102B7000938D0197F1F7A389B4899C918589892B5D
:102B80008C93FF91EF91BF91AF919F918F917F9126
:102B90006F915F914F913F912F910F900FBE0F90CA
:102BA0001F9018951F920F920FB60F9211242F931A
:102BB0003F934F935F936F937F938F939F93AF93C5
:102BC000BF93EF93FF93E0915B03F0915C03099552
:102BD000FF91EF91BF91AF919F918F917F916F91F5
:102BE0005F914F913F912F910F900FBE0F901F90CB
:102BF0001895DC0170E0FB01E656FF4FE491149656
:102C0000EC93149750E0FA01E656FF4FE4911596C5
:102C1000EC9315976A577F4FFB018491E82FF0E002
:102C2000EE0FFF1FEE58FF4F8591949117969C93DE
:102C30008E931697FA01EA57FF4F449150E0440FE4
:102C4000551F44585F4FFA018591949119969C93B2
:102C50008E931897FB016491E62FF0E0EE0FFF1FB3
:102C6000E859FF4F859194911B969C938E931A97E8
:102C70002F5F3F4F49E3429FC001439F900D1124B6
:102C80008E38FFE69F0710F08DE89FE61D969C9317
:102C90008E931C9708951F920F920FB60F921124D6
:102CA0002F933F934F935F936F937F938F939F9354
:102CB000AF93BF93EF93FF9380918D020E94AF0B70
:102CC00020919002309191022F5F3F4F30939102FB
:102CD0002093900290915A03943618F095E09093C7
:102CE0008E0290918E029330B9F018F4923039F040
:102CF00057C0943059F1953009F44CC051C081113E
:102D00004FC020919002309191022436310508F491
:102D100043C010925A031CC0813009F041C0E091B9
:102D20005A0391E09E0F90935A03F0E02091900295
:102D300030919102EE0FFF1FE357FD4F368325833D
:102D4000109291021092900294E021C0811117C05C
:102D5000E0915A0391E09E0F90935A03F0E0209186
:102D6000900230919102EE0FFF1FE357FD4F368323
:102D70002583109291021092900293E008C0209156
:102D80009002309191022536310550F095E09093F4
:102D90008E0206C0811104C010929102109290021E
:102DA00090918F02992329F0811102C02D9A01C0C0
:102DB0002D98FF91EF91BF91AF919F918F917F914E
:102DC0006F915F914F913F912F910F900FBE0F9098
:102DD0001F9018954F925F926F927F928F929F9261
:102DE000BF92CF92DF92EF92FF920F931F93CF93F8
:102DF000DF938C01C62FFC01108611861286138684
:102E0000148661E08C2F0E94080C60E08C2F0E94D9
:102E1000D80B64E170E080E090E00E948B0C61E0F0
:102E20008C2F0E94D80B8BE990E00197F1F760E0BE
:102E30008C2F0E94080C51E1E52E57E2F52E8C2FC5
:102E40000E94AF0B892B39F4F1E0EF1AF108B9F7C2
:102E50008EEF9FEF5BC041E1E42E47E2F42E8C2F12
:102E60000E94AF0B019729F481E0E81AF108B9F745
:102E7000EFCF28E2E22EF12CB12CD7E0CC24C39482
:102E8000D12C91E1892E97E2992E8C2F0E94AF0BC5
:102E9000892B29F4E1E08E1A9108B9F7D9CF0E9465
:102EA000660C2B013C0181E1882E87E2982E8C2F45
:102EB0000E94AF0B019729F4F1E08F1A9108B9F73E
:102EC000C7CF0E94660CDC01CB0184199509A609C5
:102ED000B7098997A105B10560F0F801EB0DF11D67
:102EE0002085C6010D2E01C0880F0A94EAF7822BB7
:102EF0008087D11103C0B394D7E001C0D15081E0E5
:102F0000E81AF10809F0BDCF80E090E0DF91CF91A1
:102F10001F910F91FF90EF90DF90CF90BF909F9007
:102F20008F907F906F905F904F9008951F920F92B7
:102F30000FB60F9211242F933F934F935F936F938C
:102F40007F938F939F93AF93BF93EF93FF93809162
:102F5000B900887F803609F49CC068F5883209F48E
:102F60005BC090F4803109F454C038F4882309F42C
:102F7000F6C0883009F44DC0F6C0883109F44CC061
:102F8000803209F45DC0EFC0803409F468C048F4B1
:102F9000803309F455C0883309F0E5C08093C1033C
:102FA000D8C0803509F44FC0883509F45DC0883435
:102FB00009F0D9C0D6C0883909F4C7C0A8F4883749
:102FC00009F467C038F4883609F463C0803709F41F
:102FD00060C0C9C0883809F4B8C0803909F45FC03E
:102FE000803809F0C0C05BC0803B09F486C038F46B
:102FF000803A09F466C0883A09F47FC0B4C0803CC6
:1030000009F4A7C0883C09F4A4C0883B09F48AC02D
:10301000AAC080919E0310C09091C0038091BF030D
:10302000981770F5E091C00381E08E0F8093C00384
:10303000F0E0E156FC4F80818093BB0085EC86C0B8
:103040008093C1038EC0E091C00381E08E0F809316
:10305000C0038091BB00F0E0E156FC4F808390916B
:10306000C0038091BF036EC0E091C00381E08E0F6A
:103070008093C0038091BB00F0E0E156FC4F808359
:103080008091C20381116DC081E080939D0384EA29
:1030900061C083E08093C30310928C02CFCF8091F4
:1030A0008C02803208F051C0E0918C0281E08E0FDA
:1030B00080938C028091BB00F0E0E459FD4F808347
:1030C000BDCF85EC8093BC001092C30380918C022D
:1030D000803230F4E0918C02F0E0E459FD4F108230
:1030E00060918C0270E0E0916A02F0916B028CE6D4
:1030F00092E0099510928C0236C084E08093C3035D
:103100001092690210926802E0916602F0916702E3
:10311000099580916802811105C081E08093680261
:1031200010924602E091690281E08E0F809369025D
:10313000F0E0EA5BFD4F80818093BB0090916902D3
:1031400080916802981708F479CF85E88093BC00D5
:103150000AC085EC8093BC001092C30304C0109297
:10316000C1030E942515FF91EF91BF91AF919F91EF
:103170008F917F916F915F914F913F912F910F9020
:103180000FBE0F901F90189540916802262F30E0D7
:10319000240F311D21323105DCF42091C30324308A
:1031A000C9F4FC0180E090E0861758F43091680281
:1031B0002191DC01AA5BBD4FA30FB11D2C93019699
:1031C000F3CF80916802680F6093680280E00895F1
:1031D00081E0089582E008951092C30381E0809316
:1031E000C20310929D0361E082E10E94D80B61E06E
:1031F00083E10E94D80BE9EBF0E080818E7F808331
:1032000080818D7F808388E48093B80085E48093FB
:10321000BC0008952091E7039091E603213208F065
:103220004AC08091C3038111FCCF32E03093C303C5
:1032300031E03093C2033FEF3093C1031092C003DB
:103240002093BF03A6ECB3E04FE953E0FA013E2F11
:10325000341B321718F43D913193F9CF10929E032D
:1032600020919E03990F922B90939E0390919D0322
:10327000913061F410929D0390919E039093BB0056
:103280009091BC0093FDF8CF95EC01C095EE909322
:10329000BC009091C3039230E1F39091C1039F3F32
:1032A00079F08091C103803241F08091C103803375
:1032B00031F084E005C081E003C082E001C083E01A
:1032C0001092C5031092E7031092C40308950F9360
:1032D0001F93CF93DF93CDB7DEB729970FB6F8943E
:1032E000DEBF0FBECDBF8091590590915A05892B45
:1032F00009F4A2C00E94660C00915F051091600560
:103300002091610530916205DC01CB01801B910B9E
:10331000A20BB30B8C329140A105B10558F3F89480
:1033200080915505909156059A838983E0915905BE
:10333000F0915A05DF01119680818987909151059E
:10334000E0916305F091640580916505992309F486
:103350002EC09081982B98879081809589238F83A8
:103360008F818C8388E08B8358856F8149853B8171
:103370002C8189819A81508347FD252F3A9520839E
:10338000262F39F0441F00C000006083000000C0F9
:10339000F2CF38E04D9160830000019761F7F09320
:1033A0006405E093630549873B832C8338C0908193
:1033B000982B98879081809589238F838F818E8326
:1033C00088E08D8358856F8149853D812E81898173
:1033D0009A81508347FD252F00C000C0208300C084
:1033E00000C000C000C000C060830000262F3A95D6
:1033F00041F0441F000000C000C000C000C000C079
:10340000E8CF38E04D9100C0608300C0019709F714
:10341000F0936405E093630549873D832E839A8387
:10342000898378940E94660C60935F0570936005B1
:10343000809361059093620529960FB6F894DEBFDC
:103440000FBECDBFDF91CF911F910F910895FC0169
:10345000448155816081718186E496E00C94280A4C
:10346000CF93DF93CDB7DEB728970FB6F894DEBFC2
:103470000FBECDBF1D8290E49E8324E12F8324E5FF
:10348000288719829A8390E19B8390E59C83909191
:103490004D06691710F06FEF690F40914E06262F09
:1034A00030E0FE01E20FF31F403121F4943011F4BB
:1034B000918101C09581682F690F606886E496E06C
:1034C00028960FB6F894DEBF0FBECDBFDF91CF9127
:1034D0000C941012CF93DF93FC01A081B18110975F
:1034E00001F1EC01ED91FC9111970190F081E02D3B
:1034F00069EFCD01099588819981DC01ED91FC91FD
:103500000190F081E02D62E0099588819981DC01CC
:10351000ED91FC910190F081E02D65E0DF91CF917C
:103520000994DF91CF910895CF92DF92EF92FF92AD
:103530000F931F93CF93DF9300D0CDB7DEB78C01ED
:10354000F62E83E590E049835A830E94551560E08A
:10355000F80186850E94D80B82E10E944E154981B0
:10356000E42EC42E5A81D52E8C2D8E198F1530F451
:10357000F60181916F010E944E15F6CF61E0F801CE
:1035800086850E94D80B0F900F90DF91CF911F91ED
:103590000F91FF90EF90DF90CF900C944D154F92CC
:1035A0005F926F927F928F929F92AF92BF92CF92D3
:1035B000DF92EF92FF920F931F93CF93DF9300D090
:1035C000CDB7DEB74C012B01D42E3901E114F10443
:1035D00019F0F701408101C040E0B42EF0E1CF9E28
:1035E000B00C112440E062E0C4010E94090E4FE7D4
:1035F00068E0C4010E94090E40E864E1C4010E9431
:10360000090EA2016D2DC4010E94941A4B2D6AE18E
:10361000C4010E94090E4CE062E0C4010E94090E40
:103620006AE1C4010E94E90D482F40686AE1C401C3
:103630000E94090E80ED482E87E0582E68E0C401F4
:103640000E94E90D982F907341F480FD04C081E041
:10365000481A510899F783E0A0C06CE0C4010E94A9
:10366000E90DD82E837109F097C06114710409F433
:1036700059C00115110509F455C064E1C4010E9447
:10368000E90DB82EF80180818B1508F47FC0B08257
:10369000BB20E9F183E590E00E94551560E0F4015C
:1036A00086850E94D80B82E90E944E15CC20A1F09D
:1036B0008FEF90E02C0101C0440CCA94EAF782E934
:1036C0000E944E1584214094F3019081492284295F
:1036D0008083CC24C39401C0C12CBA944C2C512CAF
:1036E000460C571CCB1438F482E90E944E15F201A7
:1036F0008083C394F3CF80E00E944E15F201808353
:1037000061E0F40186850E94D80B0E944D1568E1A6
:10371000C4010E94E90D8770E114F10421F0F70162
:10372000808301C080E0D3FC33C06114710491F147
:103730000115110579F1AA2069F1F80140814130A4
:1037400019F4843019F420C0423010F487E025C009
:103750008111FCCF42509E012F5F3F4FB301C40146
:103760000E94990E811119C0F8018081680E711CA8
:10377000F3013297908189819813E8CF3196908137
:103780008A819813E3CF06C08FEF07C084E005C09D
:1037900082E003C080E001C081E00F900F90DF91D4
:1037A000CF911F910F91FF90EF90DF90CF90BF903E
:1037B000AF909F908F907F906F905F904F90089503
:1037C000CF93DF9300D0CDB7DEB77A836983A09122
:1037D000D104B091D2041097B1F0682FED91FC9113
:1037E00011976F7060690190F081E02DCD0109950E
:1037F00022E030E0AE014F5F5F4F62E070E081EDAC
:1038000094E00E94EC120F900F90DF91CF910895F9
:103810001F93CF93DF9300D0CDB7DEB7182F7A83F5
:1038200069838091D1049091D204009709F44EC02D
:10383000DC01ED91FC911031A8F46115704490F415
:10384000612F606E0190F081E02D099522E030E05B
:10385000AE014F5F5F4F62E070E081ED94E00E9447
:10386000EC1234C00190F081E02D60EF0995809159
:10387000D1049091D204DC01ED91FC910190F08192
:10388000E02D6FE609958091D1049091D204DC017E
:10389000ED91FC910190F081E02D612F099522E0DE
:1038A00030E0AE014F5F5F4F62E070E081ED94E089
:1038B0000E94EC128091D1049091D204DC01ED9130
:1038C000FC910190F081E02D67EF09950F900F902A
:1038D000DF91CF911F910895A0910F05B091100530
:1038E000ED91FC9111970190F081E02D682FCD01B1
:1038F00009941F93CF93DF93182FEB018091D60487
:103900009091D7046817790748F46091D4047091B6
:10391000D504C60FD71F188380E018C0E0910305B7
:10392000F0910405309711F481E010C081E080939C
:10393000D3048091EF049091F00409958091D6040E
:103940009091D704C817D90778F7DFCFDF91CF91CF
:103950001F910895CF93DF93EC01FB0120E030E04D
:10396000CF01861B970B2C173D0778F4DB01A20FC4
:10397000B31F9C91908311964C914795442747958E
:10398000942B91932E5F3F4FEBCFDF91CF91089512
:10399000DC0112968D919C911397E6E4F6E09383F7
:1039A000828314968C911497848315968C91159725
:1039B000858316968C911697868317968C91179708
:1039C000878318968C911897808719968D919C9172
:1039D0001A97928781871B968C911B9783871C96D9
:1039E0008C911C9784871D968C911D9785871E96B8
:1039F0004D915D916D917C91519746875787608B72
:103A0000718B52968C915297828B53968C915397CF
:103A1000838B54968C915497848B55968D919D9160
:103A20000D90BC91A02D858B968BA78BB08FCF016D
:103A300008954F925F926F927F928F929F92AF9272
:103A4000BF92CF92DF92EF92FF920F931F93CF938B
:103A5000DF93CDB7DEB72D970FB6F894DEBF0FBE5C
:103A6000CDBF10E08091A201181780F5E12EF12C56
:103A7000C701880F991F8E0D9F1D9C012D553E4F2C
:103A80007901F90180818130F9F48181928161E0CD
:103A9000863F994021F4812F0E94080C11C0812F8C
:103AA0000E94080CF701E180F280F8EAEF1AFDEFBE
:103AB000FF0A61E0812F0E94D80BC7010E945B0CB6
:103AC00060E0812F0E94D80B1F5FCCCF10926A0656
:103AD0000FEF13E0F0906A068091A101F81640F50F
:103AE0002091A2012F0D281B30E0F901EE0FFF1FDE
:103AF0002E0F3F1FF901ED55FE4F8081882311F0F5
:103B0000863029F48F2D0E94440CBC0108C08730F8
:103B100049F48F2D0E94440CB801681B790B8F2D3E
:103B20000E94081C80916A068F5F80936A06D2CF3C
:103B300010926A0610916A06212F30E04091A2018E
:103B400050E08091A101481B5109241735075CF50D
:103B5000F901EE0FFF1F2E0F3F1FF901ED55FE4F2C
:103B60008081882311F0863049F4812F0E94AF0BA9
:103B7000009711F08FEF93E0BC010CC0873069F41F
:103B8000812F0E94AF0B892B19F46FEF73E002C0F5
:103B900060E070E0812F0E94E01B80916A068F5FD9
:103BA00080936A06C7CF80916506882309F4EBC02D
:103BB00063E0D62E0BE010E073E2E72EF12CE9E390
:103BC0008E2E912CA12CB12CE0918005F0918105D5
:103BD000908180917A05892B8083E0917C05F0911A
:103BE0007D05908180917A05809589238083C80125
:103BF0000197F1F7E0917C05F0917D05908180912E
:103C00007A05892B8083C7010197F1F7E0917C0544
:103C1000F0917D05908180917A058095892380833C
:103C2000E0918005F0918105908180917A058095E1
:103C300089238083E0917E05F0917F0590818091BA
:103C40007B05892309F077C00E94660C20918205CC
:103C5000309183052901612C712C28EA420E26E15E
:103C6000521E611C711CDC01CB01840D951DA61D2B
:103C7000B71D8093840590938505A0938605B09326
:103C80008705E0917E05F0917F05908180917B050D
:103C9000892381F40E94660C40908405509085052C
:103CA0006090860570908705461657066806790667
:103CB00040F741C00E94660C209182053091830537
:103CC000DC01CB01820F931FA11DB11D80938405E0
:103CD00090938505A0938605B0938705E0917E05B6
:103CE000F0917F05908180917B05892381F00E946E
:103CF000660C409084055090850560908605709014
:103D00008705461657066806790640F714C00E94D4
:103D1000660C2091820530918305A9014550510917
:103D20002091840530918505FA01E21BF30BAF0168
:103D3000460F571F02C040E050E0BA0180E090E01B
:103D4000A50194010E94B8272115310541055105AF
:103D500029F4DA94D11038CF20E030E08091680661
:103D6000909169060A971CF02115310521F03093D6
:103D700069062093680660916806709169068091D3
:103D800064060E94E01B80916306882381F186E629
:103D900095E00E94310E882351F186E695E00E945D
:103DA000490B8111DCC023C085EF0E946C1C80E5AB
:103DB00089831A829E012D5F3F4F42E0BE016F5FF3
:103DC0007F4F86E695E00E94990E811110C0A12CCC
:103DD000C12CE12CF12C00E010E020E030E044E0C8
:103DE000BE016F5F7F4F86E695E00E94CF1A8091FB
:103DF00067068F5F823319F080936706CCC01092FC
:103E0000670680E00E946C1C0E94C50C00913A027B
:103E100010913B0220913C0230913D02DC01CB012C
:103E2000801B910BA20BB30B85369105A105B10543
:103E300038F080912C0290912D02892B09F0A4C0BA
:103E40000E94C50C28EE33E040E050E00E94B82705
:103E50008091610690916206092E000CAA0BBB0BA3
:103E600082179307A407B50720F480912F028111D0
:103E70008FC080916006882309F48DC060915F0631
:103E80008B30C1F4CE0101960E94EA16892B09F00D
:103E900050C0698570E080E090E00E9486266983CA
:103EA0007A838B839C836B8570E080E090E00E9436
:103EB00086263BC0CE0101960E94EA16892BC9F5E1
:103EC000698570E0762F66278A85682B80E090E010
:103ED0000E9486262DEC3CEC4CEC5DE30E94C32650
:103EE00069837A838B839C838B8587FF05C08F775B
:103EF0008B872FEF3FEF02C021E030E08B8590E011
:103F0000982F88274C85842B289FB001299F700DFE
:103F1000389F700D112480E090E00E9486262DECE1
:103F20003CEC4CEC5DE30E94C3266D837E838F8363
:103F3000988780EF0E946C1C69817A818B819C81BB
:103F40000E94DA27862F0E946C1C6D817E818F81F2
:103F500098850E94DA27862F0E946C1C1CC0D09086
:103F6000680585EF0E946C1C89E6E82E85E0F82E36
:103F70008701802F8E198D1508F016CFF8018191D9
:103F80008F010E946C1CF5CF81E080932E0258CFE8
:103F900010922F026ECF2D960FB6F894DEBF0FBE93
:103FA000CDBFDF91CF911F910F91FF90EF90DF90E8
:103FB000CF90BF90AF909F908F907F906F905F90C9
:103FC0004F900895FF920F931F93CF93DF93CDB738
:103FD000DEB769970FB6F894DEBF0FBECDBF109263
:103FE000660610924102109240021092C503109290
:103FF000E7030E94EC1818E000E0FF24F394F0922D
:10400000C4031093E6031092C5031092E7030E94C5
:104010000A1981110CC0809166068F5F8093660635
:1040200061E070E080E090E00E948B0C012F1F5F48
:10403000183729F780916606813051F5073241F132
:104040001C821B8220E731E03A832983198A9FEF83
:10405000988B1F861A8A0C871D861E861B861A86D9
:1040600094E09B8B92E09C8B8D8B80E18E8B80E229
:104070008F8B80E4888F80E8898F40E050E063E098
:10408000CE0101960E948310CE0101960E94C81CA9
:10409000802F69960FB6F894DEBF0FBECDBFDF91BB
:1040A000CF911F910F91FF900895CF93DF93CDB7DC
:1040B000DEB72C970FB6F894DEBF0FBECDBF789455
:1040C00084B5826084BD84B5816084BD85B582601D
:1040D00085BD85B5816085BD80916E0081608093CE
:1040E0006E00109281008091810082608093810037
:1040F0008091810081608093810080918000816047
:10410000809380008091B10084608093B1008091A1
:10411000B00081608093B00080917A0084608093C9
:104120007A0080917A00826080937A0080917A0090
:10413000816080937A0080917A00806880937A0011
:104140001092C10087E191E090939E0180939D01C0
:104150008DE890E090939C0180939B0188E991E029
:10416000909396018093950185E492E09093A0014D
:1041700080939F01E091F803F091F90382E080833E
:10418000E091F803F091F9031082E091F403F091CB
:10419000F5031082E091F603F091F70380E180834C
:1041A00010920004E091FC03F091FD0386E080830F
:1041B000E091FA03F091FB03808180618083E091BC
:1041C000FA03F091FB03808188608083E091FA0319
:1041D000F091FB03808180688083E091FA03F09185
:1041E000FB0380818F7D808380915005811150C0B9
:1041F00061E08DE00E94080C62ED70E080E090E0EC
:104200000E948B0C61E08DE00E94D80B68E270E0A8
:1042100080E090E00E948B0C60E08DE00E94D80B63
:1042200062ED70E080E090E00E948B0C61E08DE038
:104230000E94D80B68E270E080E090E00E948B0C56
:1042400060E08DE00E94D80B6AEF70E080E090E0C3
:104250000E948B0C10E062ED70E080E090E00E9424
:104260008B0C61E08DE00E94D80B68E270E080E08A
:1042700090E00E948B0C60E08DE00E94D80B1F5FE5
:10428000153049F76DE770E080E090E00E948B0CFC
:1042900088EE93E09093100580930F059093D204DD
:1042A0008093D10481ED94E00E946A1A81E994E040
:1042B0000E9493130E94E21F182F20E042E060E169
:1042C00086E496E00E94AB1260E080E00E94301A23
:1042D00040E1612FCE0101960E94A2096CE771E0D6
:1042E000CE0107960E94ED09BE016F5F7F4FCE01A0
:1042F00007960E946B090E94271ACE0107960E941A
:104300009D09CE0101960E949D098091A10190E036
:1043100022EF290F263010F48F5F10C0882371F030
:104320008093A1019093A201D090A2012D2D30E0A5
:10433000E3EAF1E080E090E044E006C09F5F94365D
:1043400039F78093A101F0CF8217930724F44083BB
:1043500001963396F9CF88E08093D9018093DC01F0
:10436000E9EAEE2EE1E0FE2E12E0AA24AA94B12C96
:104370001D1500F5D7010C910023B9F08AEF800FCD
:10438000833098F061E0812F0E94080C013021F405
:10439000F701B282A18209C0D70112961C921E9227
:1043A000119760E0812F0E94D80B1F5FB3E0EB0EE6
:1043B000F11CDECFE8E8F5E080E090E020812111FB
:1043C0002DC023E1289F8001299F100D112408573B
:1043D0001A4F81E0F801808384E190E0A0E0B0E032
:1043E00081839283A383B4838FEF9FEF968385832A
:1043F00089E19DE1928781870E94C50CD8011B96B7
:104400006D937D938D939C931E9750961C921E9254
:104410001F9752961C921E92519705C00196739653
:104420008A30910559F6EE24E394F12C58E4C52E18
:104430005BE0D52E68ECA62EB12C73EE872E71E1D1
:10444000972E80910F0590911005DC01ED91FC9164
:104450000480F581E02D0995892B09F4D1C1809163
:104460000F0590911005DC01ED91FC910680F7811C
:10447000E02D09959C018F3FBFEF9B0711F3982F0B
:104480008091DC04882309F492C0973F09F07EC034
:104490001092DC04A091D404B091D5046C916137E2
:1044A000C1F1693709F05CC0E0910905F0910A0596
:1044B000309739F28091DD049091DE0483309105CC
:1044C00038F420E030E040E050E060E070E01BC0F5
:1044D000BD016D5F7F4F03970E94AA1CBC016D5FF9
:1044E0007F4F80E00E94791CE091D404F091D504C4
:1044F0009F012D5F3F4F428150E0618170E0E0916C
:104500000905F0910A058091EB049091EC0409955E
:1045100098CF8091050590910605892B09F491CFDC
:10452000BD016F5F7F4F8091DD049091DE040197A4
:104530000E94AA1CBC016F5F7F4F80E00E94791C23
:104540006091D4047091D5046F5F7F4FE0910505B1
:10455000F09106058091F1049091F204099571CFD4
:10456000E0910705F0910805309709F46ACF9D01A5
:104570002F5F3F4F4091DD045091DE0441505109BF
:104580008091F3049091F40409955BCF6091DD0470
:104590007091DE04822F0E94791C8091DD0490913D
:1045A000DE0401969093DE048093DD044ACF60918F
:1045B000DA047091DB046115710509F4AFC027FDC1
:1045C000ADC0615071097093DB046093DA04822FEF
:1045D0000E94791C8091DA049091DB04892B09F008
:1045E00030CF8091D804882309F42BCF803D09F483
:1045F0007FC030F4803939F1803C09F466C08BC04B
:10460000843FE1F1853F09F44DC0803E09F083C04D
:10461000E091F704F091F804309709F47CC0A09180
:10462000D404B091D5048C9111964C9150E020E8BF
:10463000829F400D511D11246091D9048091DF04A7
:104640009091E00467C0E091F904F091FA0430978A
:1046500009F461C0A091D404B091D5048C91119655
:104660004C9150E030E8839F400D511D1124609122
:10467000D9048091E1049091E2044CC0E091FF04E0
:10468000F0910005309709F446C0A091D404B09190
:10469000D5044C9150E011966C918091E704909173
:1046A000E80438C0E0910105F0910205309799F1D6
:1046B000A091D404B091D5044C9150E011966C9126
:1046C0008091E9049091EA0425C0E091FB04F09107
:1046D000FC04309701F1A091D404B091D5044C9121
:1046E00050E06091D9048091E3049091E40412C0F9
:1046F000E091FD04F091FE04309769F0A091D4049C
:10470000B091D5044C9150E06091D9048091E504BA
:104710009091E60409951092D80493CE903F30F41E
:10472000822F8F708093D904922F907F903F89F1D0
:1047300058F4903C39F118F49039E9F082CE903D6C
:1047400009F1903EC1F07DCE993F09F44CC028F4A8
:104750008CE0890F823078F074CE9F3F09F071CEE3
:104760001092DB041092DA041092D8041092D9044B
:1047700080E090E016C0A2E0B0E0B093DB04A0932C
:10478000DA0404C0F092DB04E092DA049093D804D7
:1047900058CEB1E0B093DC041092DE041092DD0438
:1047A00050CE2091D6043091D7048217930748F455
:1047B000E091D404F091D504E80FF91F108201961E
:1047C000F0CF1092DC041092DE041092DD04E09130
:1047D0000D05F0910E05309709F433CE8091F50464
:1047E0009091F6040BC0E0910B05F0910C05309709
:1047F00009F427CE8091ED049091EE04099521CE25
:1048000000E915E038E8632E35E0732EF30180816E
:10481000882309F44DC00E94C50C1B012C01F30133
:1048200083859485A585B685B201A101481B590BE6
:104830006A0B7B0B81819281A381B4814817590750
:104840006A077B0730F18081813019F0823059F09E
:1048500016C0D3010184F285E02D51968D919C9173
:10486000529709950CC061E0F8018081811160E0E8
:10487000D8016C93F801319780810E94D80BF30125
:104880002386348645865686878590890196908B47
:104890008787D30115968D919C91169797FD08C037
:1048A0001F962D913C915097281739070CF01C92B8
:1048B000B3E16B0E711C0D5E1F4FE6E46E16E6E071
:1048C0007E0609F0A3CF809130028823E9F0809121
:1048D000EE019091EF01DC01ED91FC910480F581F6
:1048E000E02D0995892B81F084EF0E946C1C80914A
:1048F000EE019091EF01DC01ED91FC910680F781D2
:10490000E02D09950E946C1C80912F02882309F4E8
:1049100052C080912E02882309F44DC080912C0250
:1049200090912D02029708F440C0E898D0920101BE
:10493000C092000181EF0E946C1C80912C0290912A
:104940002D0281500E946C1C01E010E080912C022D
:1049500090912D0208171907E8F4F801EE0FFF1FD8
:10496000E051FE4F80819181F801EE0FFF1FE2516F
:10497000FE4F20813181821B930BB5010E940928D3
:10498000782E862F0E946C1C872D0E946C1C0F5F56
:104990001F4FDCCF9092010180920001809169004D
:1049A0008C7F816080936900E89A10922D021092AA
:1049B0002C0210922E020E94150B43CD81E595E04A
:1049C0000C94D50D1092EB031092EA0388EE93E05D
:1049D000A0E0B0E08093EC039093ED03A093EE038E
:1049E000B093EF032EE131E03093E9032093E80325
:1049F00025EC30E03093F5032093F40324EC30E011
:104A00003093F7032093F60320EC30E03093F90362
:104A10002093F80321EC30E03093FB032093FA035A
:104A200022EC30E03093FD032093FC0326EC30E0D1
:104A30003093FF032093FE031092010410920204AE
:104A400010920304109204041092880410928704B8
:104A50008093890490938A04A0938B04B0938C0470
:104A60008EE291E0909386048093850481E994E03E
:104A70001092D2041092D1049093D5048093D40460
:104A800020E430E03093D7042093D6041092D80469
:104A90001092D9041092DB041092DA041092DC0414
:104AA0001092DE041092DD041092E0041092DF04F4
:104AB0001092E2041092E1041092E4041092E304D4
:104AC0001092E6041092E5041092E8041092E704B4
:104AD0001092EA041092E9041092F0041092EF048C
:104AE0001092F2041092F1041092F4041092F30464
:104AF0001092F6041092F50410920405109203052A
:104B00001092D30410921105109213051092120501
:104B10001092500523EE30E13093F8042093F7040F
:104B200029ED30E13093FA042093F9042BEB30E1C6
:104B30003093FC042093FB0421EB30E13093FE041E
:104B40002093FD042FEC30E1309300052093FF0407
:104B500025EC30E1309302052093010520EB30E194
:104B6000309306052093050525EA30E130930805CA
:104B70002093070525E034E130930A0520930905C9
:104B80009093EC048093EB042CED31E130930C0511
:104B900020930B059093EE048093ED0484EA90E15A
:104BA00090930E0580930D051092490610924806C9
:104BB00080E791E090934706809346061092560650
:104BC0008FEF80935506109254061092570687E295
:104BD000809351061092520610925306109250067E
:104BE00010924F0684E08093580682E08093590625
:104BF00081E080935A0680E180935B0680E2809397
:104C00005C0680E480935D0680E880935E0640E069
:104C100050E063E086E496E00E948310E8E8F5E067
:104C20001082739686E0E634F807D1F720E931E088
:104C30004BE06AE086E795E00E94F9158EE491E08A
:104C4000909367058093660587E08093740588E0FC
:104C500080937505109252051092580510925A05CE
:104C60001092590510925F0510926005109261052F
:104C70001092620581E080935E0580935B0510923F
:104C80005C0592E090935D058093510568E070E0CB
:104C900081E595E00E949B0D66E081E595E00C942E
:104CA000690D4532510520F4423010F00C945C2619
:104CB000FB011082CB010895BB27FB015527AA27D2
:104CC000880F991FAA1FA41710F0A41B8395505199
:104CD000B9F7A05DAA3308F0A95DA193009779F711
:104CE000B111B1931192CB010C947626DC01FC0139
:104CF000672F71917723E1F7329704C07C916D9310
:104D000070836291AE17BF07C8F30895E89409C095
:104D100097FB3EF490958095709561957F4F8F4FEE
:104D20009F4F9923A9F0F92F96E9BB279395F69504
:104D3000879577956795B795F111F8CFFAF4BB0F82
:104D400011F460FF1BC06F5F7F4F8F4F9F4F16C0E6
:104D5000882311F096E911C0772321F09EE8872F70
:104D6000762F05C0662371F096E8862F70E060E02C
:104D70002AF09A95660F771F881FDAF7880F9695A5
:104D8000879597F908950E94D6260C9447270E948C
:104D9000392738F00E94402720F0952311F00C9419
:104DA00030270C94362711240C947B270E94582717
:104DB00070F3959FC1F3950F50E0551F629FF0016E
:104DC000729FBB27F00DB11D639FAA27F00DB11D87
:104DD000AA1F649F6627B00DA11D661F829F222710
:104DE000B00DA11D621F739FB00DA11D621F839F97
:104DF000A00D611D221F749F3327A00D611D231F6D
:104E0000849F600D211D822F762F6A2F11249F57BA
:104E100050409AF0F1F088234AF0EE0FFF1FBB1FBD
:104E2000661F771F881F91505040A9F79E3F51057C
:104E300080F00C9430270C947B275F3FE4F3983E7E
:104E4000D4F3869577956795B795F795E7959F5F26
:104E5000C1F7FE2B880F911D9695879597F90895B8
:104E600097F99F6780E870E060E008959FEF80EC1D
:104E7000089500240A9416161706180609060895C0
:104E800000240A9412161306140605060895092E26
:104E90000394000C11F4882352F0BB0F40F4BF2B95
:104EA00011F460FF04C06F5F7F4F8F4F9F4F0895D5
:104EB00057FD9058440F551F59F05F3F71F04795CB
:104EC000880F97FB991F61F09F3F79F087950895B0
:104ED000121613061406551FF2CF4695F1DF08C0CF
:104EE000161617061806991FF1CF869571056105EC
:104EF00008940895E894BB2766277727CB0197F994
:104F000008952F923F924F925F926F927F928F926D
:104F10009F92AF92BF92CF92DF92EF92FF920F9348
:104F20001F93CF93DF93CDB7DEB7CA1BDB0B0FB652
:104F3000F894DEBF0FBECDBF09942A88398848880F
:104F40005F846E847D848C849B84AA84B984C884A5
:104F5000DF80EE80FD800C811B81AA81B981CE0F9C
:104F6000D11D0FB6F894DEBF0FBECDBFED01089581
:104F7000A1E21A2EAA1BBB1BFD010DC0AA1FBB1F5D
:104F8000EE1FFF1FA217B307E407F50720F0A21BCF
:104F9000B30BE40BF50B661F771F881F991F1A943C
:104FA00069F760957095809590959B01AC01BD0166
:104FB000CF0108950E94602788F09F5798F0B92F7D
:104FC0009927B751B0F0E1F0660F771F881F991F3E
:104FD0001AF0BA95C9F714C0B13091F00E947A273F
:104FE000B1E008950C947A27672F782F8827B85F4F
:104FF00039F0B93FCCF3869577956795B395D9F796
:105000003EF490958095709561957F4F8F4F9F4F9F
:10501000089597FB072E16F4009407D077FD09D06A
:105020000E941D2807FC05D03EF4909581959F4F66
:105030000895709561957F4F0895AA1BBB1B51E1A0
:1050400007C0AA1FBB1FA617B70710F0A61BB70BF8
:10505000881F991F5A95A9F780959095BC01CD019D
:105060000895EE0FFF1F0590F491E02D0994CF9362
:10507000DF938230910510F482E090E0E0916D06BC
:10508000F0916E0620E030E0C0E0D0E0309711F102
:105090004081518148175907C0F04817590761F4FA
:1050A00082819381209719F09B838A832BC09093F0
:1050B0006E0680936D0626C02115310519F0421742
:1050C000530718F49A01BE01DF01EF010280F3815A
:1050D000E02DDCCF2115310509F1281B390B2430D7
:1050E000310590F412968D919C911397611571057D
:1050F00021F0FB019383828304C090936E0680931A
:105100006D06FD01329644C0FD01E20FF31F81934D
:105110009193225031092D933C933AC020916B0614
:1051200030916C06232B41F4209106013091070148
:1051300030936C0620936B06209104013091050199
:105140002115310541F42DB73EB74091080150912A
:105150000901241B350BE0916B06F0916C06E217F8
:10516000F307A0F42E1B3F0B2817390778F0AC018A
:105170004E5F5F4F2417350748F04E0F5F1F509367
:105180006C0640936B068193919302C0E0E0F0E0DF
:10519000CF01DF91CF9108950F931F93CF93DF93AA
:1051A000009709F48CC0FC0132971382128200919F
:1051B0006D0610916E060115110581F42081318173
:1051C000820F931F20916B0630916C0628173907C8
:1051D00079F5F0936C06E0936B0671C0D80140E05E
:1051E00050E0AE17BF0750F412962D913C911397E3
:1051F000AD012115310509F1D901F3CF9D01DA0186
:105200003383228360817181860F971F82179307F2
:1052100069F4EC0128813981260F371F2E5F3F4F3B
:10522000318320838A819B8193838283452B29F458
:10523000F0936E06E0936D0642C01396FC93EE93D6
:105240001297ED01499159919E01240F351FE217E4
:10525000F30771F480819181840F951F0296119656
:105260009C938E938281938113969C938E93129735
:10527000E0E0F0E0D80112968D919C911397009791
:1052800019F0F8018C01F6CF8D919C9198012E5F59
:105290003F4F820F931F20916B0630916C062817A9
:1052A000390769F4309729F410926E0610926D0652
:1052B00002C01382128210936C0600936B06DF917A
:1052C000CF911F910F910895A0E0B0E0EAE6F9E2D6
:1052D0000C948527EC01009721F4CB010E9437281C
:1052E000B8C0FC01E60FF71F9C0122503109E217FC
:1052F000F30708F4ACC0D9010D911C911197061762
:105300001707B0F00530110508F49FC0C8010497D5
:105310008617970708F499C002501109061B170B4E
:10532000019311936D937C93CF010E94CC288DC083
:105330005B01A01AB10A4C01800E911EA0916D066E
:10534000B0916E0640E050E0E12CF12C109709F48A
:105350004AC0A815B905D1F56D907C9011976301ED
:1053600082E0C80ED11CCA14DB0480F1A3014A19E3
:105370005B096A0182E0C80ED11C1296BC9012979C
:105380001396AC91B5E0CB16D10440F0B282A38362
:1053900051834083D9016D937C930AC00E5F1F4FE8
:1053A000C301800F911FF90191838083EB2DFA2FA8
:1053B000E114F10431F0D7011396FC93EE931297A8
:1053C00044C0F0936E06E0936D063FC08D919C91B2
:1053D00011974817590708F4AC017D0112960D90FA
:1053E000BC91A02DB3CF80916B0690916C0688156F
:1053F0009905E1F446175707C8F48091040190918C
:105400000501009741F48DB79EB740910801509176
:105410000901841B950BE817F907C8F4F0936C0693
:10542000E0936B06F901718360830FC0CB010E948A
:1054300037287C01009759F0A801BE010E94332A49
:10544000CE010E94CC28C70104C0CE0102C080E07A
:1054500090E0CDB7DEB7EEE00C94A12781E090E0BC
:10546000F8940C944A2AFB01DC0102C001900D92D1
:1054700041505040D8F70895DC0101C06D93415070
:105480005040E0F70895FB01DC0101900D920020EF
:10549000E1F7089510E0C2E6D0E004C0FE010E94EA
:0E54A00031282196C336D107C9F7F894FFCF03
:1054AE00480B480B00006F068000000000009814A7
:1054BE00280AEC1404157F14971400000000AC0A9F
:1054CE00280A750A530A670AF30A000000001D1124
:1054DE00ED107B103E1530152F1500000000300921
:1054EE00280A300930093009300900000000E50EA5
:1054FE00310E490B000000009710280A2012A3104D
:10550E00A2103009000000003009280A0000000037
:10551E009710280AAB128310C211A11169326320B1
:0C552E00616464726573733A30780000A9
:00000001FF
