:100000000C9463000C94DF0D0C94B80D0C94ED135C
:100010000C94ED130C94ED130C948B000C9467145A
:100020000C948B000C948B000C948B000C94E014BB
:100030000C948B000C948B000C948B000C948B0014
:100040000C946E0D0C948B000C94AB0B0C94850BE4
:100050000C948B000C948B000C948B000C948B00F4
:100060000C948B000C948B000000000024002700EF
:100070002A0000000000250028002B0000000000DE
:1000800023002600290004040404040404040202DA
:100090000202020203030303030301020408102007
:1000A0004080010204081020010204081020000012
:1000B0000008000201000003040700000000000027
:1000C0000000C621E92211241FBECFEFD8E0DEBF19
:1000D000CDBF11E0A0E0B1E0EAE5FBE402C005908D
:1000E0000D92AC34B107D9F726E0ACE4B1E001C021
:1000F0001D92AC38B207E1F710E0C2E6D0E004C0D0
:100100002197FE010E946124C136D107C9F70E94E0
:10011000031D0C94A0250C940000DF92EF92FF9237
:100120000F931F93CF93DF93F82ED62F082F10E055
:10013000F801EE0FFF1FE00FF11FEC5FFD4F808114
:10014000833079F461E08F2D0E94A50C6D2F8F2DE7
:10015000DF91CF911F910F91FF90EF90DF900C9462
:10016000750C81E08F1508F45AC0EF2CEE0CEE0CE4
:10017000EE0C0F5F1F4F93E0000F111F9A95E1F7F0
:10018000C0E0DD24D3942E2D30E020173107F4F4A5
:100190008DE08E15C0F0F901EE0FFF1F2E0F3F1FEF
:1001A000F901EC5FFD4F8081833069F4CD2961E076
:1001B0008E2D0E94A50C61E08D2D8D2309F460E049
:1001C0008E2D0E94750CDD0CE394DDCF8C2F0E94E8
:1001D0001811F1100AC0CC7FF8948BB16C2F609588
:1001E0006823CD23C62BCBB919C06C2F6D23F8948F
:1001F00095B18C2F8F7380958923962F9F73892BB0
:1002000085B988B16295669566956370C295C69505
:10021000C695C370C095C8236C2B68B97894DF91DC
:10022000CF911F910F91FF90EF90DF900895FF9273
:100230000F931F93CF93DF93F82E8B01C82FD0E03D
:10024000FE01EE0FFF1FEC0FFD1FEC5FFD4F8081E5
:10025000823009F05DC061E08F2D0E94A50C61E045
:100260008F2D0E94A50C0115110511F460E004C04A
:100270000F3F110549F461E08F2DDF91CF911F9160
:100280000F91FF900C94750CFE01E255FF4FE49125
:10029000E330F9F048F4E130B9F0E230A1F584B58B
:1002A000806284BD08BD3EC0E730E9F0E83019F156
:1002B000E43049F580918000806280938000109343
:1002C0008B0000938A002EC084B5806884BD07BD72
:1002D00029C08091800080688093800010938900FD
:1002E000009388001FC08091B00080688093B000A8
:1002F0000093B30017C08091B00080628093B0007B
:100300000093B4000FC0003811050CF0B4CFAECF8D
:10031000813041F42AE0269FC001279F900D1124CF
:1003200092838183DF91CF911F910F91FF90089568
:100330000F931F93CF93DF9361157105D1F4282F8D
:1003400030E0F901EE0FFF1FDF01A20FB31FAC5F1A
:10035000BD4F9C91943029F490917C069F5F9093BF
:100360007C062E0F3F1FF901EC5FFD4F108260E00D
:10037000FDC061307105C1F490E0FC01EE0FFF1F7C
:10038000DF01A80FB91FAC5FBD4F2C91243029F4B9
:1003900020917C062F5F20937C068E0F9F1FFC010F
:1003A000EC5FFD4F83E040C06230710519F590911C
:1003B000030250910202292F30E0280F311D251B26
:1003C0003109F901EE0FFF1FDF01A20FB31FAC5F70
:1003D000BD4F4C91443029F440917C064F5F4093CF
:1003E0007C062E0F3F1FF901EC5FFD4F1082951B1D
:1003F00060E0BBC063307105C9F490E0FC01EE0F12
:10040000FF1FDF01A80FB91FAC5FBD4F2C91243037
:1004100029F420917C062F5F20937C068E0F9F1F6E
:10042000FC01EC5FFD4F82E08083E7C06430710522
:10043000C1F490E0FC01EE0FFF1FDF01A80FB91F10
:10044000AC5FBD4F2C91243029F420917C062F5FA6
:1004500020937C068E0F9F1FFC01EC5FFD4F81E017
:10046000E3CF65307105C9F4282F30E0F901EE0FB4
:10047000FF1FDF01A20FB31FAC5FBD4F9C919430F3
:1004800029F490917C069F5F90937C062E0F3F1F6E
:10049000F901EC5FFD4F96E01BC066307105D9F4A1
:1004A000282F30E0F901EE0FFF1FDF01A20FB31F6D
:1004B000AC5FBD4F9C91943029F490917C069F5F76
:1004C00090937C062E0F3F1FF901EC5FFD4F97E0E4
:1004D000908362E04BC06730710509F5909103028B
:1004E00050910202292F30E0280F311D251B3109C0
:1004F000F901EE0FFF1FDF01A20FB31FAC5FBD4F6D
:100500004C91443029F440917C064F5F40937C0627
:100510002E0F3F1FF901EC5FFD4F26E023C068302E
:10052000710551F59091030250910202292F30E09C
:10053000280F311D251B3109F901EE0FFF1FDF01C7
:10054000A20FB31FAC5FBD4F4C91443029F44091D2
:100550007C064F5F40937C062E0F3F1FF901EC5F36
:10056000FD4F27E02083951B62E0890FDF91CF913B
:100570001F910F910C94A50C69307105C1F490E0A6
:10058000FC01EE0FFF1FDF01A80FB91FAC5FBD4FCD
:100590002C91243029F420917C062F5F20937C0637
:1005A0008E0F9F1FFC01EC5FFD4F85E03DCF6A3051
:1005B000710519F5C82FD0E08E01000F111FF80149
:1005C000EC0FFD1FEC5FFD4F9081992319F060E067
:1005D0000E94750CF801EC0FFD1FEC5FFD4F808150
:1005E000843029F080917C06815080937C06C00F76
:1005F000D11FCC5FDD4F84E08883DF91CF911F91C5
:100600000F9108952F923F924F925F926F927F9237
:100610008F929F92AF92BF92CF92DF92EF92FF9212
:100620000F931F93CF93DF93CDB7DEB7A1970FB68C
:10063000F894DEBF0FBECDBF7A012DB73EB73B8F1A
:100640002A8F8F3509F0C3C0DA0111968C9111976A
:100650009C91911178C7082F10E0F801EE0FFF1F51
:10066000E00FF11FEC5FFD4F9081953009F06BC7F3
:1006700061E00E94A50CF70122818381F0E88F9F41
:10068000C0011124820F911DD70114962C9114974B
:100690001596EC90B0E8EB9E70011124E20EF11C6F
:1006A0009C01092E000C440B550B47010F2C000C2C
:1006B000AA08BB08892B29F4C501B4010E94280DA2
:1006C0005BC060E472E48FE090E00E94ED22CA011A
:1006D000B90196958795779567956E8B7F8B888FF7
:1006E000998FF801E656FF4F34900A571F4FF801D3
:1006F0008491E82FF0E0EE0FFF1FEE58FF4FC590FA
:10070000D490F8010491E02FF0E0EE0FFF1FE859BC
:10071000FF4FA591B4918C9183298C9329A338A381
:100720004E8F5F8F0E94620D2B013C01232C209481
:1007300029A138A189016E897F89061B170B0E94A8
:10074000620DDC01CB0184199509A609B70988154A
:100750009905AA05BB0580F4D6018C9183298C9359
:100760008E899F890E94F80CF60180818221808306
:10077000C8010E94F80CE3CFF8EEEF16F3E0FF0695
:100780007CF4C70168EE73E00E944D24009709F4E1
:10079000DAC6BC01990F880B990B0E94280DD3C6AD
:1007A000C70168EE73E00E944D246B0110E0812FB9
:1007B00090E08C159D052CF768EE73E080E090E0EA
:1007C0000E94280D80E00E9418111F5FF0CF8E3527
:1007D00009F045C0DA01DC90D092F30111968C91BA
:1007E000119780937E0612969C91129713960C9106
:1007F00010E0BAE09B9F000D111D1124482F50E01E
:10080000FA01EE0FFF1FDF01A40FB51FAC5FBD4F54
:100810009C91943029F090917C06915090937C06A5
:100820004E0F5F1FFA01EC5FFD4F94E0908360E094
:100830000E94A50C81E080937F06980140917E067E
:100840006D2DCE0101960E948E1482E1FE0131963B
:10085000A2E9B4E001900D928A95E1F774C68D3556
:1008600001F5FA0180818093780691819093790651
:1008700090E0FC01EE0FFF1FDF01A80FB91FAC5F76
:10088000BD4F2C91243029F020917C0621502093DB
:100890007C068E0F9F1FFC01EC5FFD4F84E0808380
:1008A00052C68A3509F048C00DB71EB7DA014C911F
:1008B00050E0CA01880F991FEDB7FEB7E81BF90B8E
:1008C0000FB6F894FEBF0FBEEDBF6DB77EB76F5F7A
:1008D0007F4FA1E09701240F351F8A2F90E0481722
:1008E0005907D4F0F701E80FF91FB081FC013197E7
:1008F000EE0FFF1F6F01C60ED71E820F931FFC0164
:10090000808190E0F8ECBF9F800D911D1124F601CD
:1009100091838083AF5FE1CFCE0101960E945E128A
:1009200062E370E080E090E00E94280D0FB6F8943A
:100930001EBF0FBE0DBF07C68935A1F5DA011C9198
:1009400011960C910E94620D28EE33E040E050E0D9
:100950000E94ED22802F90E0280F391F30937B06F4
:1009600020937A0680910503811114C081E0809361
:1009700005038EE897E19093010180930001809137
:1009800069008C7F816080936900E89A60E082E072
:100990000E94A50C113019F410930103D4C51092D4
:1009A0000103D1C5883509F0DFC1FA0181812281B7
:1009B0009081911120C0DA011396E3E5F1E08D9169
:1009C00022E3829FC00111248193919331E0E336A9
:1009D000F307A9F7F7013B9680E090E02191DC0155
:1009E000AF59BD4F2C93019688329105B9F781E03C
:1009F00080935201A8C530E048EC849F200D311D42
:100A00001124190157E0252233242219330937FF15
:100A100002C0295F3F4FB901E3E075956795EA95FC
:100A2000E1F77F8B6E8B162F185F80915201882320
:100A300019F120E0412F50E040535109822F90E0FE
:100A40008417950754F4F701E80FF91F3381FC016F
:100A5000E757FD4F30832F5FF1CF10925201E3E54E
:100A6000F1E020E030E042ECC42EDD24D39456E4E3
:100A7000A52E55E0B52E1EC0D7011396E3E5F1E093
:100A80008D9172E3879FC00111248193919381E03E
:100A9000E336F807A9F7F7013B9680E090E028E0FD
:100AA000280F2117E0F62191DC01AF59BD4F2C939F
:100AB0000196F5CF40E050E067E070E0C9018F5942
:100AC0009D4F7C01D7018C9190E0062E02C0959538
:100AD00087950A94E2F7DF01A40FB51F80FF05C0D8
:100AE0005196BC92AE92509704C05196DC92CE9231
:100AF0005097615071094E5F5F4F4031510511F7BA
:100B00002F5F3F4F709629303105A1F68091F1019A
:100B10009091F2018C5291409093F2018093F101F7
:100B200040E550E063E571E0CE0101960E945E125F
:100B3000C12ED12CC60108976AE070E00E944D24B6
:100B40003FEF360F00E010E0F12CB9E0EB2E82E130
:100B5000882E912C92EC492E5524539426E4622E33
:100B600025E0722EF31608F055C02E2D201BF4013F
:100B7000E01BF10B822F90E0E817F9079CF15C0174
:100B8000A00EB11EA501A4E0440F551FAA95E1F7E0
:100B9000BA016D537F4F5B0140E050E067E070E0C9
:100BA000DC01AF59BD4FBD8FAC8FAC8DBD8D8C912D
:100BB00090E0062E02C0959587950A94E2F7D5013C
:100BC000A40FB51F80FF03C06D927C9202C04D92AE
:100BD0005C92615071094E5F5F4F4031510529F7BA
:100BE0002F5FC8CF8091F1019091F2018C5291401A
:100BF0009093F2018093F10140E550E063E571E0EC
:100C0000CE01019638A30E945E12F3940A50110996
:100C100038A1A8CF232F220F822F880F880F280FEB
:100C2000275F46EF43037001112450EB530380010B
:100C30001124000F111FC601099772ECC72EDD2485
:100C4000D394E6E4AE2EE5E0BE2EE22FF0E0E81706
:100C5000F907B4F5BF016E0D7F1D695071093B01A5
:100C600054E0660C771C5A95E1F740E050E0A7E0AD
:100C7000B0E0BF016F597D4F4B01F4016081E62F59
:100C8000F0E00A2E02C0F595E7950A94E2F7E0FF3E
:100C900008C0FA01E60DF71DED5AFE4FB182A082A1
:100CA00007C0FA01E00FF11FED53FF4FD182C08260
:100CB00011974E5F5F4F40315105F9F62F5FC5CF59
:100CC0002E892A507AE0379F201911247101A1E062
:100CD000EA1AF108F70130E0A90104E0440F551FBA
:100CE0000A95E1F7BA016D5A7E4F2B0100E010E042
:100CF000DC01AF59BD4F3D0182E0C82ED12C92ECF2
:100D0000A92EBB24B39446E4842E45E0942E8E2D68
:100D10008E1B8215D0F4D3018C9190E00E2E02C070
:100D2000959587950A94E2F7B6010E944D24D20169
:100D3000A00FB11F019719F48D929C9202C0AD9241
:100D4000BC920E5F1F4F3197E2CFA90113E0440F11
:100D5000551F1A95E1F7420D531D63E571E0CE0171
:100D600001960E945E12EFC3873509F06FC0FA0149
:100D70008081811125C08181809362059281909349
:100D8000630561E00E94A50C61E0809163050E940B
:100D9000A50C0E94521B80E40E9449170E943E1B32
:100DA0000E94521B80EC0E9449178FE30E94491752
:100DB0008FE30E9449178FE30E9449178FE338C0E1
:100DC000823029F48181815080935101BCC38130EC
:100DD00009F0B9C380916205882309F4B4C39091E6
:100DE0006305992309F4AFC361E00E94A50C61E09B
:100DF000809163050E94A50C0E94521B80E40E9412
:100E000049170E943E1B0E94521B80EC0E9449170A
:100E1000F70181810E944917D70112968C910E9497
:100E20004917F70183810E944917D70114968C91C5
:100E30000E9449170E943E1B0E94521B8091510143
:100E400088570E9449170E943E1B7DC38635C9F50D
:100E5000FA01108181810281811117C0812F90E0F8
:100E6000FC01EE0FFF1F8E0F9F1FFC01EC5FFD4F7B
:100E70008081833009F067C361E0812F0E94A50C57
:100E8000602F812F0E94750C5EC3813009F05BC317
:100E9000812F90E0FC01EE0FFF1FE80FF91FEC5FC0
:100EA000FD4F8081813009F04EC3DA0113968C9199
:100EB00090E0BAE00B9F800D911D112492838183F5
:100EC00042C3853509F048C0FA01C080D180038152
:100ED000000F8481080F828110E0882309F1E12C42
:100EE000F12CB8010E2C02C0759567950A94E2F7B3
:100EF000617077278C2D0E94750C61E08D2D0E940A
:100F0000750C60E08D2D0E94750CFFEFEF1AFF0A43
:100F100028E0E216F10429F78C2D0E94181113C362
:100F2000E7E0EE2EF12CB8010E2C02C07595679506
:100F30000A94E2F7617077278C2D0E94750C61E0AE
:100F40008D2D0E94750C60E08D2D0E94750C31E096
:100F5000E31AF10840F7E0CF843509F02DC1DA013A
:100F60002C911196BC90C22ED12CA601440F551F76
:100F7000FA01EC0DFD1DEC5FFD4F8081843029F0FE
:100F800080917C06815080937C064C0D5D1DFA019A
:100F9000EC5FFD4F84E08083EB2CF12CA701440F24
:100FA000551FFA01EE0DFF1DEC5FFD4F808184306F
:100FB00029F080917C06815080937C064E0D5F1D48
:100FC000FA01EC5FFD4F84E080838FE190E029A37C
:100FD0000E9467248C01FC011382128288EE93E048
:100FE000A0E0B0E084839583A683B7838EE091E090
:100FF00091838083178A168A118E108E138E128E1B
:10100000158E148E668D6E7F6D7F668F669561700E
:1010100081E068278B2D0E94750C61E08B2D0E946A
:10102000A50CF701E656FF4FE491D8015096EC93DA
:10103000F701EA57FF4FE491F0E0EE0FFF1FEE5883
:10104000FF4F85919491F801928B818B60E029A1EB
:10105000822F0E94A50CD8015E968C9129A181FD5A
:1010600005C061E0822F0E94750C29A1F801248738
:10107000F601E656FF4FE491D8011D96EC93F60178
:10108000EA57FF4FE491F0E0EE0FFF1FE458FF4FE7
:1010900085919491F8019787868710935F0200935A
:1010A0005E02138E128E118E108E178A168A8DE9AB
:1010B00091E0958F848F263108F04CC08DEB90E045
:1010C000978B868B8BE991E0918F808F8CE291E0FA
:1010D000938F828F90916800283050F031E02E304D
:1010E00008F430E081E001C0880F3A95EAF701C0CA
:1010F00084E0892B80936800283028F02E3030F06F
:101100008CE690E005C08DE690E002C08BE690E0B2
:10111000D80154969C938E935397283030F481E0F5
:1011200001C0880F2A95EAF70EC02E3020F4B8E0EF
:10113000CB1AD10803C0EEE0CE1AD10881E001C07D
:10114000880FCA94EAF7D80155968C938DE991E0FF
:101150000197F1F7F801828D938D892B49F1E09188
:101160006605F0916705E017F10711F1309739F046
:10117000A389B4899C918589809589238C93D80112
:101180005E968C915E978E7F5E968C935E971092A2
:1011900064051092650510936705009366055396E4
:1011A000ED91FC915497908155968C91892B808379
:1011B00081E080930603C7C1833509F0FBC0FA01C3
:1011C0008081882309F4F3C001811281802F90E08F
:1011D000FC01EE0FFF1FDF01A80FB91FAC5FBD4F71
:1011E0002C91243029F020917C06215020937C06FC
:1011F0008E0F9F1FFC01EC5FFD4F84E08083212F49
:1012000030E0F901EE0FFF1FDF01A20FB31FAC5F4B
:10121000BD4F8C91843029F080917C068150809361
:101220007C062E0F3F1FF901EC5FFD4F84E08083A9
:10123000FFB6F89480915001811127C0E0E9F0E0F9
:101240009491E4EAF0E08491E92FF0E0EE0FFF1FC3
:10125000E859FF4FA591B491EC91E82321F461E0A6
:101260008AE00E94750C61E08AE00E94A50C8CB5B2
:1012700080618CBD8CB580648CBD61E08DE00E9486
:10128000A50C61E08BE00E94A50C809150018F5F5E
:1012900080935001FFBE8CE0FE013396A4E8B4E0D9
:1012A00001900D928A95E1F70093900410939104B8
:1012B00061E0802F0E94A50C61E0809190040E9463
:1012C000750C809191048F3FA9F061E00E94A50CFC
:1012D000809191040E944C0C892B61F461E0809113
:1012E00091040E94750C62E370E080E090E00E943F
:1012F000280D13C04FE062E082E894E00E94A60E41
:1013000062E370E080E090E00E94280D62E082E8F5
:1013100094E00E94860E84FDF9CF40E064E282E80A
:1013200094E00E94A60E40E066E282E894E00E940B
:10133000A60E46E268E482E894E00E94A60E40E829
:1013400064E582E894E00E94A60E49EA66E582E838
:1013500094E00E94A60E43E068E582E894E00E94D3
:10136000A60E48EE6AE582E894E00E94A60E40E4EC
:101370006AE282E894E00E94A60E4DE362E282E80F
:1013800094E00E94A60E68E282E894E00E94860E35
:10139000982F9370933039F0482F436068E282E8C9
:1013A00094E00E94A60E81E080937D06CCC010924E
:1013B0007D06C9C0823509F0C6C0DA018C91811161
:1013C0003CC011961C91119712968C91682F70E079
:1013D0001A8218861A8619861F86188A198A1A8A06
:1013E00021E02E872B871C8632E03D872983CE01A2
:1013F00001960E94380E612FCE0101960E94060EC2
:1014000085E1FE013196ADE6B4E001900D928A953A
:10141000E1F7CE0101960E94720E8091730487FD60
:1014200008C061E00E94A50C60E0809173040E94F6
:10143000750C81E080936E0484C0813009F075C022
:10144000FA0184819581638172815181252F30E079
:10145000E0916F04F09170042E173F0708F071C0FF
:10146000E92F92FB442740F9A0E84A9F80191124F4
:10147000B0E89B9F7019112490E0A0E0B0E0A72B8A
:10148000E1FB442740F9E0E84E9F60191124962BB8
:101490004D01AA24BB24E82DC92EDA2EEB2EFF2401
:1014A0007C2D682F40917404442391F0E42FF0E0E8
:1014B000E89DB001E99D700DF89D700D1124E72F96
:1014C000C49E600111247D2D849FC0011124692FC9
:1014D00040917A04F091770480917504909176049C
:1014E0004F1306C0F3E05F9F800D911D11240AC0C9
:1014F000220F331F220F331F820F931FDC01A40F13
:10150000B11D1C9220917704DC01A20FB11DEC9358
:1015100020917804FC01E20FF11D70832091790481
:10152000FC01E20FF11D60830CC0409171045091E9
:10153000720460E070E080917504909176040E94DE
:1015400099250E949E112A8D3B8D0FB6F8943EBFBF
:101550000FBE2DBFA1960FB6F894DEBF0FBECDBF54
:10156000DF91CF911F910F91FF90EF90DF90CF907F
:10157000BF90AF909F908F907F906F905F904F90B3
:101580003F902F900895CF92DF92EF92FF920F93AA
:101590001F93CF93DF936C017A018B01C0E0D0E001
:1015A000CE15DF0589F0D8016D918D01D601ED9141
:1015B000FC910190F081E02DC6010995892B11F471
:1015C0007E0102C02196ECCFC701DF91CF911F9120
:1015D0000F91FF90EF90DF90CF900895FC01918DD7
:1015E000828D981761F0828DDF01A80FB11D5D9685
:1015F0008C91928D9F5F9F73928F90E008958FEFF3
:101600009FEF0895FC01918D828D981731F0828DA6
:10161000E80FF11D858D90E008958FEF9FEF0895FD
:1016200080E193E00E94DD0B21E0892B09F420E0AA
:10163000822F08950E949425EF92FF920F931F939B
:10164000CF93DF93EC0181E0888F9B8D8C8D981375
:1016500005C0E889F989808185FD24C0F62E0B8DAF
:1016600010E00F5F1F4F0F731127E02E8C8DE812D3
:101670000CC00FB607FCFACFE889F989808185FF95
:10168000F5CFCE010E942B0CF1CF8B8DFE01E80F20
:10169000F11DE35AFF4FF0820B8FEA89FB898081AD
:1016A000806207C0EE89FF896083E889F9898081BB
:1016B0008064808381E090E0DF91CF911F910F9152
:1016C000FF90EF900895CF93DF93EC01888D8823EE
:1016D000C9F0EA89FB89808185FD05C0A889B9899F
:1016E0008C9186FD0FC00FB607FCF5CF808185FF7A
:1016F000F2CFA889B9898C9185FFEDCFCE010E94E8
:101700002B0CE7CFDF91CF9108951F920F920FB668
:101710000F9211242F933F934F935F936F937F9377
:101720008F939F93AF93BF93EF93FF9380E193E0E9
:101730000E942B0CFF91EF91BF91AF919F918F91E0
:101740007F916F915F914F913F912F910F900FBEBD
:101750000F901F9018951F920F920FB60F921124A1
:101760002F938F939F93EF93FF93E0912003F0913A
:1017700021038081E0912603F091270382FD12C0AE
:101780009081809129038F5F8F7320912A038217A4
:1017900051F0E0912903F0E0E05FFC4F958F8093DA
:1017A000290301C08081FF91EF919F918F912F912B
:1017B0000F900FBE0F901F901895FC01918D228DF8
:1017C000892F90E0805C9F4F821B91098F7399272E
:1017D000089580E090E0892B29F00E94100B811180
:1017E0000C9400000895833081F028F4813099F042
:1017F0008230A1F008958730A9F08830B9F08430A4
:10180000D1F4809180008F7D03C0809180008F771C
:1018100080938000089584B58F7702C084B58F7D52
:1018200084BD08958091B0008F7703C08091B0008F
:101830008F7D8093B00008950895DC01ED91FD91B6
:10184000BD010190F081E02D40E0099591E081110A
:1018500090E0892F0895FC01848DDF01A80FB11D50
:10186000A35ABF4F2C91848D90E001968F739927D6
:10187000848FA689B7892C93A089B1898C918064C3
:101880008C93938D848D981306C00288F389E02D84
:1018900080818F7D80830895CF93DF93282F30E060
:1018A000F901E255FF4F8491F901E656FF4FD491BB
:1018B000F901EA57FF4FC491CC2391F081110E94A6
:1018C000F30BEC2FF0E0EE0FFF1FE458FF4FA59154
:1018D000B491EC91ED2381E090E021F480E002C02E
:1018E00080E090E0DF91CF9108951F93CF93DF9335
:1018F000282F30E0F901E255FF4F8491F901E656B7
:10190000FF4FD491F901EA57FF4FC491CC23C9F09E
:10191000162F81110E94F30BEC2FF0E0EE0FFF1F4A
:10192000EE58FF4FA591B4918FB7F894111105C0EF
:101930009C91ED2FE095E92302C0EC91ED2BEC9307
:101940008FBFDF91CF911F910895CF93DF9390E0E8
:10195000FC01E656FF4F2491FC01EA57FF4F8491AA
:10196000882361F190E0880F991FFC01E859FF4F2F
:10197000C591D491FC01EE58FF4FA591B49161112E
:1019800009C09FB7F8948881209582238883EC91C1
:101990002E230BC0623061F49FB7F8943881822FF8
:1019A000809583238883EC912E2B2C939FBF06C0B8
:1019B0008FB7F894E8812E2B28838FBFDF91CF91CA
:1019C00008958E3008F08E508770806480937C007C
:1019D00080917A00806480937A0080917A0086FDFD
:1019E000FCCF809178002091790090E0922B0895AF
:1019F0008230910538F0880F991F880F991F05973D
:101A00000197F1F708953FB7F89480910C039091F6
:101A10000D03A0910E03B0910F0326B5A89B05C03E
:101A20002F3F19F00196A11DB11D3FBFBA2FA92F5D
:101A3000982F8827820F911DA11DB11DBC01CD01DA
:101A400042E0660F771F881F991F4A95D1F70895C6
:101A50008F929F92AF92BF92CF92DF92EF92FF92BE
:101A60006B017C010E94030D4B015C01C114D10488
:101A7000E104F104F1F00E94030DDC01CB018819AF
:101A80009909AA09BB09883E9340A105B10570F3E5
:101A900021E0C21AD108E108F10888EE880E83E03F
:101AA000981EA11CB11CC114D104E104F10419F762
:101AB000DDCFFF90EF90DF90CF90BF90AF909F90E1
:101AC0008F9008952FB7F8946091080370910903DF
:101AD00080910A0390910B032FBF08951F920F92DC
:101AE0000FB60F9211242F933F938F939F93AF9331
:101AF000BF938091080390910903A0910A03B091CC
:101B00000B033091070323E0230F2D3720F40196B8
:101B1000A11DB11D05C026E8230F0296A11DB11D10
:101B2000209307038093080390930903A0930A036B
:101B3000B0930B0380910C0390910D03A0910E03C1
:101B4000B0910F030196A11DB11D80930C039093DA
:101B50000D03A0930E03B0930F03BF91AF919F911C
:101B60008F913F912F910F900FBE0F901F9018955E
:101B70001F920F920FB60F9211242F933F934F9302
:101B80005F936F937F938F939F93AF93BF93EF93E5
:101B9000FF93E0910201F09103010995FF91EF910C
:101BA000BF91AF919F918F917F916F915F914F9175
:101BB0003F912F910F900FBE0F901F9018951F927D
:101BC0000F920FB60F9211242F933F934F935F9371
:101BD0006F937F938F939F93AF93BF93EF93FF93F5
:101BE000E0910001F09101010995FF91EF91BF9102
:101BF000AF919F918F917F916F915F914F913F91A5
:101C00002F910F900FBE0F901F9018951F93CF9399
:101C1000DF93EC01162F8981882331F08E8187FDB7
:101C200003C060E00E94A50C1E838981882341F0D7
:101C300061E0812F0E94A50C60E0812F0E94750C4D
:101C4000812F90E0FC01EA57FF4FE491F0E0EE0FA6
:101C5000FF1FEE58FF4F259134913B8B2A8BFC01DF
:101C6000E656FF4FE491EC8BDF91CF911F910895E1
:101C7000EF92FF920F931F93CF93DF93EC017B01C1
:101C800088859985009711F00E94FC249D858A859E
:101C9000981719F084E090E002C083E090E08E9DF8
:101CA00080018F9D100D9E9D100D11241D830C83AE
:101CB000C8010E94672499878887009741F0A8018E
:101CC00060E070E00E949925FB82EA8204C01D82D8
:101CD0001C821B821A82DF91CF911F910F91FF907E
:101CE000EF900895CF93DF93EC0188859985009755
:101CF00011F00E94FC248E8187FD05C060E0DF9119
:101D0000CF910C94A50CDF91CF9108951F93CF93A1
:101D1000DF93EC01162F83E590E00E94EA1360E068
:101D20008E850E94750C812F80680E94E31380E0ED
:101D30000E94E313182F61E08E850E94750C0E94AB
:101D4000E213812FDF91CF911F910895EF92FF92BF
:101D50001F93CF93DF931F92CDB7DEB77C01162F71
:101D600083E590E049830E94EA1360E0F7018685ED
:101D70000E94750C812F0E94E3134981842F0E94D9
:101D8000E31361E0F70186850E94750C0F90DF91E7
:101D9000CF911F91FF90EF900C94E2138F929F923E
:101DA000AF92CF92EF92FF920F931F93CF93DF9357
:101DB00000D000D01F92CDB7DEB74C0182E08D83FA
:101DC00040E064E2C4010E94A60E40E066E2C40165
:101DD0000E94A60E46E268E4C4010E94A60E86E2B6
:101DE0008C838D81823040F16CE1C4010E94860EAB
:101DF000482F4F776CE1C4010E94A60E87E08B83C9
:101E0000A12CC12CCE0103967C018E010B5F1F4FCC
:101E10009E012F5F3F4F41E0BE016C5F7F4FC401C9
:101E20000E94661B81110BC08D81823039F481E0E4
:101E30009B81911104C008C084E001C081E091E061
:101E4000823019F090E001C091E0892F0F900F903F
:101E50000F900F900F90DF91CF911F910F91FF90F6
:101E6000EF90CF90AF909F908F900895CF92DF9298
:101E7000EF92FF920F931F93CF93DF93EC016B01CF
:101E8000142F790140E062E00E94A60E44E06AE06F
:101E9000CE010E94A60E40E864E1CE010E94A60E8B
:101EA000A601612FCE010E94B11243E062E0CE0193
:101EB0000E94A60E08E813E16AE0CE010E94860E99
:101EC00082FF13C040E062E0CE010E94A60E64E4EF
:101ED000CE010E94860EF701808362E4CE010E944B
:101EE000860EF701818380E004C00150110921F7BB
:101EF00083E0DF91CF911F910F91FF90EF90DF90E2
:101F0000CF9008952F923F924F925F926F927F925F
:101F10008F929F92AF92BF92CF92DF92EF92FF92F9
:101F20000F931F93CF93DF93CDB7DEB72D970FB6E7
:101F3000F894DEBF0FBECDBF413508F010C1342E7E
:101F40003B014C016CE10E94860E482F4F776CE1FB
:101F5000C4010E94A60EBB24B39422E0B21691F0F5
:101F600033E0B316E1F041E0B412FDC083E98983A8
:101F70003320D1F081E0F3019081953008F480E0C6
:101F8000D12C17C085E98983332081F081E0F301EA
:101F90009081983008F480E053E0D52E0AC087E99C
:101FA000898346E0D42E04C0D12C02C033E0D32E66
:101FB00080E0532DF8EFDF9E500D112457FD50E0C7
:101FC000882321F098E89B8343E001C042E021E0B0
:101FD000952F977009F420E0952F959595959595F7
:101FE000290F21F4882311F1585F20C0811102C00C
:101FF00094E001C093E0291708F4922F20E030E02C
:102000006D2D70E0E42FE20FA1E0B0E0AC0FBD1F3A
:10201000AE0FB11DF901E60FF71FE60DF71DE181C7
:10202000EC932F5F3F4F291768F3DCCF23E0222E7C
:102030005032FCF020E72A839C818B8189279D8187
:1020400089279E8189278F839E01285F3F4F47E024
:10205000BE016F5F7F4FC4015D870E94360F5D85B3
:102060008111CDC01B862A86CE0107962C0179E00E
:102070001EC0952F97709B87252F25952595259513
:1020800082E0820F392FE0E18E9F300D11243A83D8
:1020900071E0911101C070E0780F44244394512CF9
:1020A0004C0E5D1E480E511C87E0821B8A87CB8434
:1020B0004C2D4295407F4C0D6AE1C4015D877C87C1
:1020C0000E94A60EA12C9E01255F3F4F79018E0133
:1020D000065F1F4F92017C85472FBE016F5F7F4FC8
:1020E000C4010E94661B5D85823099F56CE1C401D4
:1020F0000E94860E5D8585FD34C08F7109F480E2F3
:10210000282F30E0452F550F550B421753075CF52C
:10211000582FC901019787709927259525952595F1
:1021200031E0320F21E0009709F420E0230FE1E0D5
:10213000F0E0EC0FFD1FE20FF11D21E030E002C0E6
:10214000220F331F8A95E2F7C9019081892B808382
:102150006FCF811154C0503244F450E26BCF86E00F
:102160004EC082E04CC085E04AC08B81883809F0BF
:1021700043C033E023E080E090E06D2D70E0FC018F
:10218000E60FF71FE60DF71D432F480FA1E0B0E063
:10219000AC0FBD1FA40FB11D4C9141830196821756
:1021A00070F38A85833021F58B85811121C09E01D2
:1021B0002D5F3F4F41E0B201C4010E94360F8111F3
:1021C0001EC09B81F2018181981314C09C81828181
:1021D000981310C0808182FF02C0B394BECEF30179
:1021E00083878B2D880FB80EB394B08280E007C030
:1021F00081E005C087E003C032E024E0BCCF2D962B
:102200000FB6F894DEBF0FBECDBFDF91CF911F9107
:102210000F91FF90EF90DF90CF90BF90AF909F9085
:102220008F907F906F905F904F903F902F90089588
:10223000A0912B04B0912C04ED91FC911197019089
:10224000F081E02D682FCD0109941F93CF93DF9388
:10225000182FEB018091F2039091F303681779072F
:1022600048F46091F0037091F103C60FD71F1883F3
:1022700080E018C0E0911F04F0912004309711F421
:1022800081E010C081E08093EF0380910B04909176
:102290000C0409958091F2039091F303C817D907B4
:1022A00078F7DFCFDF91CF911F910895CF93DF9320
:1022B000EC01FB0120E030E0CF01861B970B2C17CF
:1022C0003D0778F4DB01A20FB31F9C919083119618
:1022D0004C91479544274795942B91932E5F3F4F00
:1022E000EBCFDF91CF910895CF93DF93FC01A081D5
:1022F000B181109701F1EC01ED91FC9111970190E2
:10230000F081E02D69EFCD01099588819981DC018B
:10231000ED91FC910190F081E02D62E009958881BA
:102320009981DC01ED91FC910190F081E02D65E057
:10233000DF91CF910994DF91CF9108950F931F936F
:10234000CF93DF93CDB7DEB729970FB6F894DEBFF2
:102350000FBECDBF8091750490917604892B09F44E
:10236000A2C00E94030D00917B0410917C04209177
:102370007D0430917E04DC01CB01801B910BA20B0C
:10238000B30B8C329140A105B10558F3F8948091BC
:102390007104909172049A838983E0917504F0919D
:1023A0007604DF0111968081898790916D04E09118
:1023B0007F04F091800480918104992309F42EC058
:1023C0009081982B98879081809589238F838F8126
:1023D0008C8388E08B8358856F8149853B812C8174
:1023E00089819A81508347FD252F3A952083262F96
:1023F00039F0441F00C000006083000000C0F2CF2D
:1024000038E04D9160830000019761F7F0938004FC
:10241000E0937F0449873B832C8338C09081982BBD
:1024200098879081809589238F838F818E8388E020
:102430008D8358856F8149853D812E8189819A815F
:10244000508347FD252F00C000C0208300C000C07E
:1024500000C000C000C060830000262F3A9541F004
:10246000441F000000C000C000C000C000C0E8CF92
:1024700038E04D9100C0608300C0019709F7F093E8
:102480008004E0937F0449873D832E839A83898368
:1024900078940E94030D60937B0470937C04809376
:1024A0007D0490937E0429960FB6F894DEBF0FBE8C
:1024B000CDBFDF91CF911F910F910895CF92DF9201
:1024C000EF92FF920F931F93CF93DF931F92CDB79D
:1024D000DEB7162F7A011092700061E083E07983F5
:1024E0000E94A50C60E083E00E94750C81E080935F
:1024F000B00089E08093B10082ED8093B30086E460
:102500008093B400C12E7981D72E00E010E00E1523
:102510001F05C4F4F601208131819091B00000FFC5
:1025200002C09F7D01C090629093B00021153105DB
:1025300019F0C9010E94F80C0F5F1F4FF2E0CF0E97
:10254000D11CE5CF8091B0008F7D8093B0000F90BB
:10255000DF91CF911F910F91FF90EF90DF90CF907F
:102560000895CF92DF92EF92FF920F931F93CF9334
:10257000DF9300D0CDB7DEB78C01F62E83E590E077
:1025800049835A830E94EA1360E0F80186850E941D
:10259000750C82E10E94E3134981E42EC42E5A8116
:1025A000D52E8C2D8E198F1530F4F60181916F0187
:1025B0000E94E313F6CF61E0F80186850E94750C56
:1025C0000F900F90DF91CF911F910F91FF90EF909F
:1025D000DF90CF900C94E21320916605309167054F
:1025E0002817390771F49091650580916405981753
:1025F00041F0E0916505F0E0E85CF94F808190E002
:1026000008958FEF9FEF089508951F93CF93DF9361
:10261000DC015C962D913C915D972115310539F4D3
:1026200081E090E013969C938E9312973DC0519653
:10263000ED91FC91529750969C915097892F8095DF
:102640001FB75E964C915E9741FB772770F941FD6D
:102650006095F8944081772311F0492B01C04823FD
:102660004083E9012197F1F748E0508160FF02C003
:10267000592B01C058235083E9012197F1F7669542
:10268000415099F7772321F090818923808303C0FB
:102690008081982B90831FBF5C968D919C915D9754
:1026A0000197F1F721E030E0C901DF91CF911F914F
:1026B000089520916605309167052817390771F450
:1026C000809164052091650590E0805C9F4F821B9E
:1026D000910960E470E00E944D24089580E090E04C
:1026E0000895209166053091670528173907B9F4D8
:1026F0009091650580916405981789F0E0916505D2
:10270000F0E0E85CF94F80812091650530E02F5FB3
:102710003F4F2F7333272093650590E008958FEF87
:102720009FEF08950895862F642FE0910002F091A5
:102730000102309711F0A901099408950895862F98
:10274000E091F801F091F901309711F0BA01099484
:102750000895862FE091FA01F091FB01309711F076
:10276000BA0109940895862FE091F401F091F501E2
:10277000309711F0BA0109940895862FE091F6017F
:10278000F091F701309711F0BA0109940895862F5E
:10279000E091FC01F091FD01309711F0BA0109942C
:1027A0000895862FE091FE01F091FF01309711F01E
:1027B000BA0109940895009721F0805C9F4F0C9412
:1027C0007411089508958EBD00000DB407FEFDCF6D
:1027D0008EB508958CBD9DBD08951F920F920FB6C2
:1027E0000F9211242F933F934F935F936F937F9397
:1027F0008F939F93AF93BF93EF93FF93E091660501
:10280000F0916705309709F451C0968DA685B7857C
:10281000858591FF04C09C91892329F447C09C9130
:10282000892309F043C0A389B4899C918589809547
:1028300089238C93868997890197F1F7608D718D33
:10284000A685B785558538E020E0CB010197F1F7E3
:10285000822F90E095958795282F4C91452309F07C
:102860002068315091F7868D81FD20958091640517
:1028700090E001968F73992730916505381749F0DC
:10288000A0916405B0E0A85CB94F2C9380936405D7
:1028900003C0868D8160868F828D938D0197F1F7BD
:1028A000A389B4899C918589892B8C93FF91EF91A1
:1028B000BF91AF919F918F917F916F915F914F9158
:1028C0003F912F910F900FBE0F901F9018951F9260
:1028D0000F920FB60F9211242F933F934F935F9354
:1028E0006F937F938F939F93AF93BF93EF93FF93D8
:1028F000E0913606F09137060995FF91EF91BF916F
:10290000AF919F918F917F916F915F914F913F9187
:102910002F910F900FBE0F901F901895DC0170E063
:10292000FB01E656FF4FE4911496EC93149750E0A8
:10293000FA01E656FF4FE4911596EC9315976A5706
:102940007F4FFB018491E82FF0E0EE0FFF1FEE5860
:10295000FF4F8591949117969C938E931697FA0149
:10296000EA57FF4F449150E0440F551F44585F4FC2
:10297000FA018591949119969C938E931897FB0177
:102980006491E62FF0E0EE0FFF1FE859FF4F8591AD
:1029900094911B969C938E931A972F5F3F4F49E318
:1029A000429FC001439F900D11248E38FFE69F0780
:1029B00010F08DE89FE61D969C938E931C970895CA
:1029C0001F920F920FB60F9211242F933F934F93A4
:1029D0005F936F937F938F939F93AF93BF93EF9387
:1029E000FF93809168050E944C0C20916B053091FB
:1029F0006C052F5F3F4F30936C0520936B059091D2
:102A00003506943618F095E0909369059091690524
:102A10009330B9F018F4923039F057C0943059F12E
:102A2000953009F44CC051C081114FC020916B0505
:102A300030916C052436310508F443C010923506F8
:102A40001CC0813009F041C0E091350691E09E0F35
:102A500090933506F0E020916B0530916C05EE0FF8
:102A6000FF1FE859FA4F3683258310926C051092A8
:102A70006B0594E021C0811117C0E091350691E00B
:102A80009E0F90933506F0E020916B0530916C0518
:102A9000EE0FFF1FE859FA4F3683258310926C051D
:102AA00010926B0593E008C020916B0530916C0586
:102AB0002536310550F095E09093690506C08111E7
:102AC00004C010926C0510926B0590916A059923D1
:102AD00029F0811102C02D9A01C02D98FF91EF912C
:102AE000BF91AF919F918F917F916F915F914F9126
:102AF0003F912F910F900FBE0F901F9018954F92FE
:102B00005F926F927F928F929F92BF92CF92DF924D
:102B1000EF92FF920F931F93CF93DF938C01C62FF9
:102B2000FC011086118612861386148661E08C2FB4
:102B30000E94A50C60E08C2F0E94750C64E170E08F
:102B400080E090E00E94280D61E08C2F0E94750CBF
:102B50008BE990E00197F1F760E08C2F0E94A50CC3
:102B600051E1E52E57E2F52E8C2F0E944C0C892B5B
:102B700039F4F1E0EF1AF108B9F78EEF9FEF5BC07F
:102B800041E1E42E47E2F42E8C2F0E944C0C019779
:102B900029F481E0E81AF108B9F7EFCF28E2E22E34
:102BA000F12CB12CD7E0CC24C394D12C91E1892E07
:102BB00097E2992E8C2F0E944C0C892B29F4E1E08E
:102BC0008E1A9108B9F7D9CF0E94030D2B013C0151
:102BD00081E1882E87E2982E8C2F0E944C0C019761
:102BE00029F4F1E08F1A9108B9F7C7CF0E94030DBD
:102BF000DC01CB0184199509A609B7098997A105BC
:102C0000B10560F0F801EB0DF11D2085C6010D2E18
:102C100001C0880F0A94EAF7822B8087D11103C084
:102C2000B394D7E001C0D15081E0E81AF10809F06F
:102C3000BDCF80E090E0DF91CF911F910F91FF9089
:102C4000EF90DF90CF90BF909F908F907F906F908C
:102C50005F904F9008952F923F925F926F927F9274
:102C60008F929F92AF92BF92CF92DF92EF92FF929C
:102C70000F931F93CF93DF937C013901DA015C90AE
:102C8000232B19F466246A94762C8A011A01260EE5
:102C9000371EC0E0D0E0812C912C87E0C82ED12CCB
:102CA0000215130509F444C08614970408F068C09F
:102CB0005801F70180819181FC01A081B181F80167
:102CC00021918F01E22F0C2E01C0EE0F0A94EAF73A
:102CD000652D6E2B6F77ED91FC9109958FEF881A1A
:102CE000980AD5016C9170E0C6018C1B9D0B02C047
:102CF000759567958A95E2F7562E2196C730D105CE
:102D000078F28614970461F2F70180819181DC01E9
:102D1000ED91FC91652D6F770190F081E02D099583
:102D2000BFEF8B1A9B0A551C5524551C2797E6CFDD
:102D3000209731F18614970418F5F701808191816D
:102D4000DC01ED91FC9161E070E001C0660FCA9575
:102D5000EAF7615065210190F081E02DDF91CF917C
:102D60001F910F91FF90EF90DF90CF90BF90AF90A9
:102D70009F908F907F906F905F903F902F900994DD
:102D8000DF91CF911F910F91FF90EF90DF90CF9047
:102D9000BF90AF909F908F907F906F905F903F908B
:102DA0002F900895DF92EF92FF920F931F93CF938E
:102DB000DF93FC01E058FF4FD080DD2009F45CC0B8
:102DC000319600811181D8011196FC901197EC90F9
:102DD000EC01C05CDF4F88819981009709F44CC0F9
:102DE000DC01ED91FC910190F081E02D60EF0995FF
:102DF00088819981DC01ED91FC910190F081E02DB9
:102E000069E7099588819981DC01ED91FC91019038
:102E1000F081E02D6E2D099588819981DC01ED917D
:102E2000FC910190F081E02D6F2D09957801B2E0C1
:102E3000EB0EF11C0D0D111DE016F10661F020E006
:102E400030E0A70161E070E0CE010E942B16EFEFA9
:102E5000EE1AFE0AF1CF88819981DC01ED91FC9197
:102E60000190F081E02D67EFDF91CF911F910F91DD
:102E7000FF90EF90DF900994DF91CF911F910F9118
:102E8000FF90EF90DF900895009711F00C94D21608
:102E900008951F93CF93DF93182FC8E0D091630557
:102EA00060E08D2F0E94750C10FF02C061E001C030
:102EB00060E0809162050E94750C169561E08D2F8F
:102EC0000E94750CC15051F760E08D2F0E94750C67
:102ED000C091620561E08C2F0E94750C61E08D2F1E
:102EE0000E94750C60E08C2F0E94A50CD8EC8C2FF2
:102EF0000E944C0C892B59F0D150C9F761E08C2FFE
:102F00000E94A50C60E08C2F0E94750CEFCF61E051
:102F10008C2FDF91CF911F910C94A50CCF93DF9351
:102F20008091020390910303893E934008F0AAC068
:102F300080910503882309F4A5C0809101038823AB
:102F400009F47EC080916002811107C081E0809306
:102F5000600210920303109202030E94030D20915D
:102F6000020330910303232BA1F0E0910203F091BF
:102F700003033197E770FF272091D9023091DA02DD
:102F8000AB01421B530BEE0FFF1FEB53FD4F518361
:102F900040837093DA026093D9028091020390918A
:102FA00003030897A9F480E090E0FC01EE0FFF1FF7
:102FB000EB53FD4F20813181FC01EE0FFF1FE552E5
:102FC000FD4F3183208301968830910571F72EC023
:102FD0002091020330910303277033272115310517
:102FE00029F580910203909103034097F8F080E067
:102FF000F901EE0FFF1FEB53FD4F40815181880F08
:10300000483E534008F08F5F2F5F3F4F2830310517
:1030100079F7E0910203F0910303709793E0F6953E
:10302000E7959A95E1F7EF59FD4F80838091020370
:10303000909103030196909303038093020312C0BF
:10304000C0910203D0910303CE0101969093030334
:10305000809302030E94030DCC0FDD1FCB53DD4F85
:10306000798368838091020390910303892B51F047
:103070000E94620D60938406709385068093860695
:1030800090938706DF91CF9108954F925F926F9250
:103090007F928F929F92AF92BF92CF92DF92EF92E8
:1030A000FF920F931F93CF93DF93CDB7DEB72D978A
:1030B0000FB6F894DEBF0FBECDBF10E080910302C3
:1030C000181780F5E12EF12CC701880F991F8E0D7E
:1030D0009F1D9C012C5F3D4F7901F901808181305A
:1030E000F9F48181928161E0863F994021F4812F3A
:1030F0000E94A50C11C0812F0E94A50CF701E18050
:10310000F280F8EAEF1AFDEFFF0A61E0812F0E94DA
:10311000750CC7010E94F80C60E0812F0E94750CAD
:103120001F5FCCCF109283060FEF13E0F090830661
:1031300080910202F81640F5209103022F0D281B02
:1031400030E0F901EE0FFF1F2E0F3F1FF901EC5F7A
:10315000FD4F8081882311F0863029F48F2D0E9445
:10316000E10CBC0108C0873049F48F2D0E94E10CAE
:10317000B801681B790B8F2D0E949F1C80918306DC
:103180008F5F80938306D2CF1092830610918306BF
:10319000212F30E04091030250E080910202481B51
:1031A0005109241735075CF5F901EE0FFF1F2E0FAB
:1031B0003F1FF901EC5FFD4F8081882311F08630BD
:1031C00049F4812F0E944C0C009711F08FEF93E08F
:1031D000BC010CC0873069F4812F0E944C0C892BF4
:1031E00019F46FEF73E002C060E070E0812F0E947D
:1031F000771C809183068F5F80938306C7CF809171
:103200007F06882309F4EBC073E0D72E0BE010E0B3
:10321000E3E2EE2EF12CF9E38F2E912CA12CB12CB0
:10322000E0919C04F0919D04908180919604892BFB
:103230008083E0919804F0919904908180919604A4
:10324000809589238083C8010197F1F7E091980464
:10325000F0919904908180919604892B8083C70115
:103260000197F1F7E0919804F09199049081809191
:103270009604809589238083E0919C04F0919D04BD
:10328000908180919604809589238083E0919A04AF
:10329000F0919B04908180919704892309F077C075
:1032A0000E94030D20919E0430919F042901612CFE
:1032B000712C28EA420E26E1521E611C711CDC01B1
:1032C000CB01840D951DA61DB71D8093A00490937E
:1032D000A104A093A204B093A304E0919A04F091F6
:1032E0009B04908180919704892381F40E94030DAF
:1032F0004090A0045090A1046090A2047090A30498
:10330000461657066806790640F741C00E94030D2D
:1033100020919E0430919F04DC01CB01820F931F0A
:10332000A11DB11D8093A0049093A104A093A204B9
:10333000B093A304E0919A04F0919B049081809152
:103340009704892381F00E94030D4090A0045090BF
:10335000A1046090A2047090A30446165706680664
:10336000790640F714C00E94030D20919E0430910D
:103370009F04A901455051092091A0043091A10456
:10338000FA01E21BF30BAF01460F571F02C040E0EA
:1033900050E0BA0180E090E0A50194010E94ED2286
:1033A000211531054105510529F4DA94D11038CFA2
:1033B00020E030E080918106909182060A971CF00F
:1033C0002115310521F0309382062093810660910A
:1033D00081067091820680917E060E94771C809102
:1033E0007D06882381F182E894E00E94CE0E882336
:1033F00051F182E894E00E941D0C81110CC123C0A0
:1034000085EF0E94181180E589831A829E012D5F45
:103410003F4F42E0BE016F5F7F4F82E894E00E9421
:10342000360F811110C0A12CC12CE12CF12C00E031
:1034300010E020E030E044E0BE016F5F7F4F82E8A3
:1034400094E00E94661B809180068F5F823319F0A2
:1034500080938006FCC01092800682EF0E941811B3
:1034600080917C060E9418111AE002E0809103020C
:10347000081730F5802F90E0FC01EE0FFF1F8E0F34
:103480009F1FFC01EC5FFD4F8081882321F09AEFA4
:10349000980F923010F4812F0EC0833011F481E028
:1034A00009C0823039F0813011F483E003C08530E7
:1034B00021F484E0810F0E9418110F5F1B5FD6CFAB
:1034C0000E94620D00918406109185062091860667
:1034D00030918706DC01CB01801B910BA20BB30B53
:1034E00085369105A105B10538F0809102039091D0
:1034F0000303892B09F0A4C00E94620D28EE33E07B
:1035000040E050E00E94ED2280917A0690917B0687
:10351000092E000CAA0BBB0B82179307A407B50753
:1035200020F48091050381118FC080917906882352
:1035300009F48DC0609178068B30C1F4CE010196FC
:103540000E947F15892B09F050C0698570E080E0EA
:1035500090E00E943E2369837A838B839C836B85F2
:1035600070E080E090E00E943E233BC0CE010196D7
:103570000E947F15892BC9F5698570E0762F662733
:103580008A85682B80E090E00E943E232DEC3CEC85
:103590004CEC5DE30E94A42369837A838B839C8334
:1035A0008B8587FF05C08F778B872FEF3FEF02C09A
:1035B00021E030E08B8590E0982F88274C85842B84
:1035C000289FB001299F700D389F700D112480E055
:1035D00090E00E943E232DEC3CEC4CEC5DE30E941D
:1035E000A4236D837E838F83988780EF0E941811B8
:1035F00069817A818B819C810E940F23862F0E9492
:1036000018116D817E818F8198850E940F23862FEE
:103610000E9418111CC0D090840485EF0E941811DC
:1036200085E8E82E84E0F82E8701802F8E198D150D
:1036300008F0E6CEF80181918F010E941811F5CFB4
:1036400081E08093040358CF109205036ECF2D962E
:103650000FB6F894DEBF0FBECDBFDF91CF911F91A3
:103660000F91FF90EF90DF90CF90BF90AF909F9021
:103670008F907F906F905F904F90089560E0809161
:1036800063050E94750C60E0809162050E94750CD4
:1036900061E0809163050E94750C61E08091620594
:1036A0000C94750C61E0809163050E94750C61E0DB
:1036B000809162050E94750C60E0809162050E9415
:1036C000750C60E0809163050C94750C4F925F92CD
:1036D0006F927F928F929F92AF92BF92CF92DF9222
:1036E000EF92FF920F931F93CF93DF9300D0CDB74C
:1036F000DEB74C012B01D42E3901E114F10419F08D
:10370000F701408101C040E0B42EF0E1CF9EB00C43
:10371000112440E062E0C4010E94A60E4FE768E079
:10372000C4010E94A60E40E864E1C4010E94A60EF6
:10373000A2016D2DC4010E94B1124B2D6AE1C4019A
:103740000E94A60E4CE062E0C4010E94A60E6AE14F
:10375000C4010E94860E482F40686AE1C4010E949D
:10376000A60E80ED482E87E0582E68E0C4010E9426
:10377000860E982F907341F480FD04C081E0481AB2
:10378000510899F783E0A0C06CE0C4010E94860E46
:10379000D82E837109F097C06114710409F459C0DF
:1037A0000115110509F455C064E1C4010E94860E9B
:1037B000B82EF80180818B1508F47FC0B082BB2041
:1037C000E9F183E590E00E94EA1360E0F401868568
:1037D0000E94750C82E90E94E313CC20A1F08FEFC8
:1037E00090E02C0101C0440CCA94EAF782E90E94DF
:1037F000E31384214094F30190814922842980833A
:10380000CC24C39401C0C12CBA944C2C512C460C2E
:10381000571CCB1438F482E90E94E313F201808331
:10382000C394F3CF80E00E94E313F201808361E050
:10383000F40186850E94750C0E94E21368E1C401C0
:103840000E94860E8770E114F10421F0F701808355
:1038500001C080E0D3FC33C06114710491F1011503
:10386000110579F1AA2069F1F8014081413019F47C
:10387000843019F420C0423010F487E025C0811153
:10388000FCCF42509E012F5F3F4FB301C4010E9405
:10389000360F811119C0F8018081680E711CF30187
:1038A0003297908189819813E8CF319690818A81EF
:1038B0009813E3CF06C08FEF07C084E005C082E015
:1038C00003C080E001C081E00F900F90DF91CF91A5
:1038D0001F910F91FF90EF90DF90CF90BF90AF902E
:1038E0009F908F907F906F905F904F900895CF93AF
:1038F000DF9300D0CDB7DEB77A836983A091ED0363
:10390000B091EE031097B1F0682FED91FC911197F3
:103910006F7060690190F081E02DCD01099522E082
:1039200030E0AE014F5F5F4F62E070E08DEE93E0FC
:103930000E942B160F900F90DF91CF9108951F9347
:10394000CF93DF9300D0CDB7DEB7182F7A8369838A
:103950008091ED039091EE03009709F44EC0DC01D5
:10396000ED91FC911031A8F46115704490F4612F31
:10397000606E0190F081E02D099522E030E0AE010B
:103980004F5F5F4F62E070E08DEE93E00E942B1678
:1039900034C00190F081E02D60EF09958091ED0336
:1039A0009091EE03DC01ED91FC910190F081E02D0E
:1039B0006FE609958091ED039091EE03DC01ED91A6
:1039C000FC910190F081E02D612F099522E030E01B
:1039D000AE014F5F5F4F62E070E08DEE93E00E94BA
:1039E0002B168091ED039091EE03DC01ED91FC919B
:1039F0000190F081E02D67EF09950F900F90DF9116
:103A0000CF911F910895789484B5826084BD84B568
:103A1000816084BD85B5826085BD85B5816085BDC9
:103A200080916E00816080936E0010928100809181
:103A30008100826080938100809181008160809309
:103A40008100809180008160809380008091B1002E
:103A500084608093B1008091B00081608093B00059
:103A600080917A00846080937A0080917A008260ED
:103A700080937A0080917A00816080937A008091AF
:103A80007A00806880937A001092C10087E191E00B
:103A90009093FF018093FE018DE890E09093FD01EB
:103AA0008093FC0188E991E09093F7018093F601FF
:103AB00082E093E09093010280930002E091200362
:103AC000F091210382E08083E0912003F0912103B3
:103AD0001082E0911C03F0911D031082E0911E03FF
:103AE000F0911F0380E1808310922803E09124036A
:103AF000F091250386E08083E0912203F091230377
:103B0000808180618083E0912203F0912303808192
:103B100088608083E0912203F09123038081806894
:103B20008083E0912203F091230380818F7D808345
:103B300080916C04811150C061E08DE00E94A50C61
:103B400062ED70E080E090E00E94280D61E08DE081
:103B50000E94750C68E270E080E090E00E94280D01
:103B600060E08DE00E94750C62ED70E080E090E016
:103B70000E94280D61E08DE00E94750C68E270E003
:103B800080E090E00E94280D60E08DE00E94750CBE
:103B90006AEF70E080E090E00E94280DC0E062EDE6
:103BA00070E080E090E00E94280D61E08DE00E94CE
:103BB000750C68E270E080E090E00E94280D60E003
:103BC0008DE00E94750CCF5FC53049F76DE770E05E
:103BD00080E090E00E94280D80E193E090932C0417
:103BE00080932B049093EE038093ED038DEE93E08E
:103BF0000E9474118DEA93E00E94D2168091020215
:103C000090E022EF290F263010F48F5F0DC088233B
:103C100059F08093020290930302F0900302E4E0D3
:103C2000F2E080E094E006C09F5F943651F7809305
:103C30000202F3CF8F1521F090838F5F3396FACF76
:103C40000AE012E0C2E0CC24CA94D12CCF15F8F4DB
:103C5000D801DC91DD23B9F08AEF8D0F823098F026
:103C600061E08C2F0E94A50CD13021F4F801D282A2
:103C7000C18209C0D80112961C921E92119760E071
:103C80008C2F0E94750CCF5F0D5F1F4FDFCFE4EAD2
:103C9000F4E080E090E02081211125C023E1289FFD
:103CA000E001299FD00D1124CC55DB4F81E08883A2
:103CB00084E190E0A0E0B0E089839A83AB83BC8389
:103CC0008FEF9FEF9E838D8385E498E19A878987A4
:103CD0000E94620D6B877C878D879E87188A1F865E
:103CE0001A8A198A05C0019673968A30910599F649
:103CF000E2E02E2E312CCC24C394D12CACE1AA2EA0
:103D0000ACE0BA2EB8ECEB2EF12C02E310E080917F
:103D10002B0490912C04DC01ED91FC910480F58141
:103D2000E02D0995892B09F4CFC180912B04909146
:103D30002C04DC01ED91FC910680F781E02D0995C2
:103D40009C018F3FBFEF9B0711F3982F8091F803E1
:103D5000882309F492C0973F09F07EC01092F803BF
:103D6000A091F003B091F1036C916137C1F1693713
:103D700009F05CC0E0912504F0912604309739F2F7
:103D80008091F9039091FA038330910538F420E093
:103D900030E040E050E060E070E01BC0BD016D5FCE
:103DA0007F4F03970E945611BC016D5F7F4F80E0EB
:103DB0000E942511E091F003F091F1039F012D5F26
:103DC0003F4F428150E0618170E0E0912504F09125
:103DD00026048091070490910804099598CF80915A
:103DE000210490912204892B09F491CFBD016F5FCA
:103DF0007F4F8091F9039091FA0301970E94561129
:103E0000BC016F5F7F4F80E00E9425116091F0033D
:103E10007091F1036F5F7F4FE0912104F0912204D4
:103E200080910D0490910E04099571CFE0912304C7
:103E3000F0912404309709F46ACF9D012F5F3F4F22
:103E40004091F9035091FA034150510980910F04B8
:103E50009091100409955BCF6091F9037091FA037A
:103E6000822F0E9425118091F9039091FA03019607
:103E70009093FA038093F9034ACF6091F60370910F
:103E8000F7036115710509F4AFC027FDADC061509E
:103E900071097093F7036093F603822F0E94251136
:103EA0008091F6039091F703892B09F030CF809130
:103EB000F403882309F42BCF803D09F47FC030F44C
:103EC000803939F1803C09F466C08BC0843FE1F150
:103ED000853F09F44DC0803E09F083C0E091130492
:103EE000F0911404309709F47CC0A091F003B091D4
:103EF000F1038C9111964C9150E090E8899F400D10
:103F0000511D11246091F5038091FB039091FC03F6
:103F100067C0E0911504F0911604309709F461C070
:103F2000A091F003B091F1038C9111964C9150E067
:103F3000A0E88A9F400D511D11246091F5038091E6
:103F4000FD039091FE034CC0E0911B04F0911C0412
:103F5000309709F446C0A091F003B091F1034C9161
:103F600050E011966C91809103049091040438C044
:103F7000E0911D04F0911E04309799F1A091F00397
:103F8000B091F1034C9150E011966C918091050431
:103F90009091060425C0E0911704F0911804309721
:103FA00001F1A091F003B091F1034C9150E06091C8
:103FB000F5038091FF039091000412C0E091190471
:103FC000F0911A04309769F0A091F003B091F103D9
:103FD0004C9150E06091F5038091010490910204AE
:103FE00009951092F40393CE903F30F4822F8F7096
:103FF0008093F503922F907F903F79F158F4903C95
:1040000029F118F49039E9F082CE903DF9F0903E14
:10401000C1F07DCE993F09F44AC028F48CE0890FA5
:10402000823078F074CE9F3F09F071CE1092F70382
:104030001092F6031092F4031092F50380E090E0E2
:1040400014C03092F7032092F60304C0D092F70315
:10405000C092F6039093F4035ACEB1E0B093F80304
:104060001092FA031092F90352CE2091F20330918C
:10407000F3038217930748F4E091F003F091F10302
:10408000E80FF91F10820196F0CF1092F8031092FA
:10409000FA031092F903E0912904F0912A04309771
:1040A00009F435CE80911104909112040BC0E09177
:1040B0002704F0912804309709F429CE809109044F
:1040C00090910A04099523CE7CEA872E74E0972EFE
:1040D000C4EAD4E08881882309F442C00E94620DBA
:1040E0002B013C018B859C85AD85BE85B301A2016A
:1040F000481B590B6A0B7B0B89819A81AB81BC8170
:10410000481759076A077B0708F18881813019F041
:10411000823039F012C0E985FA8589899A89099532
:104120000CC061E0F4018081811160E0D4016C93E6
:10413000F401319780810E94750C4B865C866D86F8
:104140007E868F8598890196988B8F878D819E8139
:1041500097FD06C02F853889281739070CF018827B
:104160006396B3E18B0E911CE5E0C236DE0709F0E1
:10417000B1CF809106038823E9F080915E0290918F
:104180005F02DC01ED91FC910480F581E02D099541
:10419000892B81F084EF0E94181180915E0290912A
:1041A0005F02DC01ED91FC910680F781E02D09951D
:1041B0000E94181180910503882309F4E4C08091BE
:1041C0000403882309F4DFC0809102039091030364
:1041D000039708F4D2C0E898B0920101A0920001C0
:1041E00080910103882309F48AC083EF0E9418118B
:1041F00080910203909103030197B7010E94392433
:10420000862F0E9418118091020390910303019759
:10421000B7010E9439240E941811CBE0D0E04E0172
:10422000880C991CF401EB53FD4F80819181B801FA
:104230000E943924499728F480819181208131811D
:1042400006C080819181208131812E5C3F4FB80171
:104250000E943924281B390B31832083F401EB534E
:10426000FD4F80819181B8010E943924862F0E94E0
:1042700018112196C331D10591F6C0E08091020357
:10428000909103032C2F30E0089753E09695879583
:104290005A95E1F72817390740F4F901EF59FD4F16
:1042A00080810E941811CF5FE9CF80910203909125
:1042B0000303019787709927892B09F44FC090E079
:1042C00080E04091020350910303292F30E04150D8
:1042D0005109477055272417350770F4220F331FF3
:1042E000F901EB53FD4F20813181880F283E334087
:1042F00008F08F5F9F5FE5CF0E9418112FC081EFFC
:104300000E941811809102039091030381500E9432
:104310001811C1E0D0E08091020390910303C81707
:10432000D907E0F4FE01EE0FFF1FEB53FD4F808134
:104330009181FE01EE0FFF1FED53FD4F2081318172
:10434000821B930BB7010E944D24982E862F0E944A
:104350001811892D0E9418112196DDCF8EE897E162
:104360009093010180930001809169008C7F8160AE
:1043700080936900E89A10926002109203031092F1
:104380000203109204030E94E90BC1CC10921303A4
:104390001092120388EE93E0A0E0B0E08093140343
:1043A00090931503A0931603B09317038EE191E049
:1043B000909311038093100385EC90E090931D037C
:1043C00080931C0384EC90E090931F0380931E0362
:1043D00080EC90E0909321038093200381EC90E0A7
:1043E000909323038093220382EC90E09093250323
:1043F0008093240386EC90E0909327038093260318
:104400001092290310922A0310922B0310922C036E
:104410008DEA93E01092EE031092ED039093F10376
:104420008093F00320E430E03093F3032093F20311
:104430001092F4031092F5031092F7031092F60312
:104440001092F8031092FA031092F9031092FC03F1
:104450001092FB031092FE031092FD0310920004D1
:104460001092FF03109202041092010410920404AF
:1044700010920304109206041092050410920C048A
:1044800010920B0410920E0410920D04109210045E
:1044900010920F0410921204109211041092200432
:1044A00010921F041092EF0310922D0410922F040B
:1044B00010922E0410926C0421ED33E13093140419
:1044C0002093130427EC33E1309316042093150452
:1044D00029EA33E130931804209317042FE933E1DC
:1044E00030931A04209319042DEB33E130931C040C
:1044F00020931B0423EB33E130931E0420931D040F
:104500002EE933E1309322042093210423E933E19F
:10451000309324042093230424E437E130932604C9
:104520002093250490930804809307042BED33E136
:10453000309328042093270490930A04809309045D
:1045400082E993E190932A0480932904E4EAF4E059
:104550001082739685E0E236F807D1F720E931E062
:104560004BE06AE082E994E00E948E1486E491E0D8
:10457000909383048093820487E08093900488E082
:104580008093910410926E04109274041092760439
:104590001092750410927B0410927C0410927D049A
:1045A00010927E0481E080937A04809377041092C5
:1045B000780492E09093790480936D0468E070E051
:1045C0008DE694E00E94380E66E08DE694E00C944F
:1045D000060E8DE694E00C94720EA1E21A2EAA1B30
:1045E000BB1BFD010DC0AA1FBB1FEE1FFF1FA217A3
:1045F000B307E407F50720F0A21BB30BE40BF50BA0
:10460000661F771F881F991F1A9469F76095709528
:10461000809590959B01AC01BD01CF0108950E944A
:10462000832388F09F5798F0B92F9927B751B0F09E
:10463000E1F0660F771F881F991F1AF0BA95C9F726
:1046400014C0B13091F00E949D23B1E008950C9404
:104650009D23672F782F8827B85F39F0B93FCCF3B7
:10466000869577956795B395D9F73EF490958095A3
:10467000709561957F4F8F4F9F4F0895E89409C0C3
:1046800097FB3EF490958095709561957F4F8F4F85
:104690009F4F9923A9F0F92F96E9BB279395F6959B
:1046A000879577956795B795F111F8CFFAF4BB0F19
:1046B00011F460FF1BC06F5F7F4F8F4F9F4F16C07D
:1046C000882311F096E911C0772321F09EE8872F07
:1046D000762F05C0662371F096E8862F70E060E0C3
:1046E0002AF09A95660F771F881FDAF7880F96953C
:1046F000879597F9089557FD9058440F551F59F025
:104700005F3F71F04795880F97FB991F61F09F3FBE
:1047100079F087950895121613061406551FF2CFE7
:104720004695F1DF08C0161617061806991FF1CF37
:1047300086957105610508940895E894BB2766275E
:104740007727CB0197F908950E94B7230C9428246A
:104750000E941A2438F00E94212420F0952311F0A1
:104760000C9411240C94172411240C949E230E9461
:104770007B2370F3959FC1F3950F50E0551F629F07
:10478000F001729FBB27F00DB11D639FAA27F00DAA
:10479000B11DAA1F649F6627B00DA11D661F829FD1
:1047A0002227B00DA11D621F739FB00DA11D621FB6
:1047B000839FA00D611D221F749F3327A00D611DD3
:1047C000231F849F600D211D822F762F6A2F1124B5
:1047D0009F5750409AF0F1F088234AF0EE0FFF1FE8
:1047E000BB1F661F771F881F91505040A9F79E3F3F
:1047F000510580F00C9411240C949E235F3FE4F348
:10480000983ED4F3869577956795B795F795E79594
:104810009F5FC1F7FE2B880F911D9695879597F99D
:10482000089597F99F6780E870E060E008959FEF32
:1048300080EC089500240A94161617061806090637
:10484000089500240A941216130614060506089506
:10485000092E0394000C11F4882352F0BB0F40F48E
:10486000BF2B11F460FF04C06F5F7F4F8F4F9F4FCE
:104870000895AA1BBB1B51E107C0AA1FBB1FA617A7
:10488000B70710F0A61BB70B881F991F5A95A9F7F9
:1048900080959095BC01CD01089597FB072E16F4E5
:1048A000009407D077FD09D00E94392407FC05D079
:1048B0003EF4909581959F4F0895709561957F4F37
:1048C0000895EE0FFF1F0590F491E02D0994CF930A
:1048D000DF938230910510F482E090E0E0918A0647
:1048E000F0918B0620E030E0C0E0D0E0309711F18D
:1048F0004081518148175907C0F04817590761F4A2
:1049000082819381209719F09B838A832BC0909397
:104910008B0680938A0626C02115310519F04217AF
:10492000530718F49A01BE01DF01EF010280F38101
:10493000E02DDCCF2115310509F1281B390B24307E
:10494000310590F412968D919C9113976115710524
:1049500021F0FB019383828304C090938B068093A4
:104960008A06FD01329644C0FD01E20FF31F8193D8
:104970009193225031092D933C933AC0209188069F
:1049800030918906232B41F42091060130910701D3
:104990003093890620938806209104013091050107
:1049A0002115310541F42DB73EB7409108015091D2
:1049B0000901241B350BE0918806F0918906E21766
:1049C000F307A0F42E1B3F0B2817390778F0AC0132
:1049D0004E5F5F4F2417350748F04E0F5F1F50930F
:1049E0008906409388068193919302C0E0E0F0E04D
:1049F000CF01DF91CF9108950F931F93CF93DF9352
:104A0000009709F48CC0FC01329713821282009146
:104A10008A0610918B060115110581F420813181E0
:104A2000820F931F20918806309189062817390735
:104A300079F5F0938906E093880671C0D80140E0CB
:104A400050E0AE17BF0750F412962D913C9113978A
:104A5000AD012115310509F1D901F3CF9D01DA012D
:104A60003383228360817181860F971F821793079A
:104A700069F4EC0128813981260F371F2E5F3F4FE3
:104A8000318320838A819B8193838283452B29F400
:104A9000F0938B06E0938A0642C01396FC93EE9344
:104AA0001297ED01499159919E01240F351FE2178C
:104AB000F30771F480819181840F951F02961196FE
:104AC0009C938E938281938113969C938E931297DD
:104AD000E0E0F0E0D80112968D919C911397009739
:104AE00019F0F8018C01F6CF8D919C9198012E5F01
:104AF0003F4F820F931F2091880630918906281717
:104B0000390769F4309729F410928B0610928A06BF
:104B100002C0138212821093890600938806DF91E7
:104B2000CF911F910F91089581E090E0F8940C943B
:104B3000A025DC0101C06D9341505040E0F708957D
:104B400010E0C2E6D0E004C0FE010E94612421967C
:0A4B5000C336D107C9F7F894FFCF70
:104B5A001C0C1C0C00008C068000000000000513D1
:104B6A00C30A59137113EC120413000000001C0B42
:104B7A00C30ADD0BEE0A020B630B000000001A0BDE
:104B8A00C30A1A0B1A0B1A0B1A0B000000001A0B95
:0C4B9A00C30A00000000820FCE0E1D0CAC
:00000001FF
