:100000000C9466000C948E000C948E000C948E0060
:100010000C948E000C948E000C948E000C948E0028
:100020000C948E000C948E000C948E000C948E0018
:100030000C948E000C948E000C948E000C948E0008
:100040000C94A7050C948E000C9410090C94420992
:100050000C948E000C948E000C948E000C948E00E8
:100060000C948E000C948E00000000080002010029
:100070000003040700000000000000000102040863
:100080001020408001020408102001020408102002
:10009000040404040404040402020202020203032E
:1000A00003030303000000002300260029000000D2
:1000B0000000250028002B0000000000240027007D
:1000C0002A00ED01BB04BF047209FB0911241FBE05
:1000D000CFEFD8E0DEBFCDBF11E0A0E0B1E0EEEEA3
:1000E000F5E102C005900D92AE31B107D9F723E0DA
:1000F000AEE1B1E001C01D92A03EB207E1F710E011
:10010000CCECD0E004C02297FE010E94F10AC23C70
:10011000D107C9F70E94BD0A0C94F50A0C9400009F
:10012000EF92FF920F931F93CF93DF93CFE1D1E034
:10013000F12C8AE0E82E288139812130310501F542
:100140002A813B8161E08F2D2F3F310519F40E94F8
:10015000330712C00E9433072A813B81E29E80014F
:10016000E39E100D1124085A1D4F61E08F2D0E944F
:100170006C07C8010E94480660E08F2D0E946C0742
:10018000F39424968EE0F812D6CFDF91CF911F9191
:100190000F91FF90EF90089510921E0180911E0123
:1001A000863078F40E948E06AC0160911E0183EDCA
:1001B00092E00E94100380911E018F5F80931E01C8
:1001C000EDCF82E00E94A207892B19F04FEF53E098
:1001D00002C040E050E066E083ED92E00E94100330
:1001E00083E00E94A207892B19F04FEF53E002C071
:1001F00040E050E067E083ED92E00C9410031F9321
:10020000CF93DF93182FEB0184E0189FF0011124A6
:10021000E15EFE4F208131812230310559F461E0E9
:10022000812F0E943307BE01812FDF91CF911F9153
:100230000C94AB062130310511F473836283DF9196
:10024000CF911F910895CF93DF93C82FD62F84E0CD
:10025000C89FF0011124E15EFE4F208131812330DF
:10026000310551F461E08C2F0E9433076D2F8C2FE4
:10027000DF91CF910C946C07DF91CF91089583EDBE
:1002800092E00E949702892B29F083ED92E00E9470
:100290007103F5CF85E192E00E942F0587E591E09B
:1002A0000C942F051092200110921F01109224012E
:1002B00010922301109228011092270110922C0114
:1002C00010922B0121E030E03093300120932F0178
:1002D00082E090E090933401809333019093380151
:1002E0008093370130933C0120933B0130934001D0
:1002F00020933F01909344018093430183E090E079
:10030000909348018093470190934C0180934B0157
:100310009093500180934F01909354018093530127
:100320000895FF920F931F93CF93DF93CFE1D1E016
:10033000F12C0FEF10E028813981232B91F061E03F
:100340008F2D0E943307288139812130310519F41E
:100350001B830A8306C01B821A8260E08F2D0E94D5
:100360006C07F39424968EE0F812E5CFDF91CF91DD
:100370001F910F91FF9008950F931F934FEF50E03F
:1003800060EE83ED92E00E94290343E251E060E9D0
:1003900083ED92E00E94290383ED92E00E94B50470
:1003A0000E9452010E94910100E010E020E930E03B
:1003B00044E150E060E070E085E192E00E94990540
:1003C0002CEC30E044E150E060E070E087E591E043
:1003D0000E9499051F910F91089585E192E00E9476
:1003E0001B0587E591E00C941B050F931F93CF939A
:1003F000DF93EC018B0188819981DC01ED91FC9107
:100400006F770190F081E02D099588819981DC0159
:10041000ED91FC91B801660F672F661F770B6F7720
:100420000190F081E02DDF91CF911F910F91099400
:10043000DC018D919C91DC01ED91FC910190F081AA
:10044000E02D60EF0994DC018D919C91DC01ED9130
:10045000FC910190F081E02D67EF0994CF93DF9339
:10046000EC0188819981DC01ED91FC910190F08192
:10047000E02D69EF099588819981DC01ED91FC916E
:100480000190F081E02D62E0099588819981DC017D
:10049000ED91FC910190F081E02D64E0DF91CF912E
:1004A00009941F93CF93DF93EC018A818823D9F1BC
:1004B000CE010E94180288819981DC01ED91FC91A6
:1004C0000190F081E02D69E7099588819981DC012F
:1004D000ED91FC91AB81BC810190F081E02D6C919C
:1004E000099588819981DC01ED91FC91AB81BC81FA
:1004F0000190F081E02D11966C91099512E08A81AE
:10050000181758F4EB81FC81E10FF11D608170E058
:10051000CE010E94F5011F5FF2CFCE01DF91CF9196
:100520001F910C942302DF91CF911F910895DC015C
:100530008D919C91DC01ED91FC910480F581E02D81
:1005400009940F931F93CF93DF93FC0120852137EC
:1005500049F0293709F049C0DF91CF911F910F91E0
:100560000C945102FC01E95AFF4F0190F081E02DFB
:10057000309709F450C0DC01A75BBF4F4D915C91EF
:100580009A012150310937FD9A01B9017595679596
:10059000062F40E050E020E030E04E5F5F4F201734
:1005A000A0F4EC01C40FD51F1F81DC01A20FB31F03
:1005B00018961C931897C885D0E8CD9F1019112460
:1005C00018961C932F5F3F4FE8CFDC01A60FB11D9B
:1005D00017962C911797222311F018961C920896C3
:1005E000DF91CF911F910F910994FC01E75AFF4FC2
:1005F0000190F081E02D309771F0AC01475F5F4FC3
:10060000DC01A75BBF4F6C916150822FDF91CF91CE
:100610001F910F910994DF91CF911F910F91089530
:100620000F931F93CF93DF93EC018A018881998107
:10063000DC01ED91FC916F70606E0190F081E02D16
:100640000995B801CE01DF91CF911F910F910C94C4
:10065000F501603DB9F028F4603961F0603C71F05B
:100660000895603E19F0643F89F00895FC01E55B50
:10067000FF4F0FC0FC01E35BFF4F0BC0FC01E15BD0
:10068000FF4F07C0FC01EF5AFF4F03C0FC01ED5ABA
:10069000FF4F518340830895FC0115821682178213
:1006A00080E090E0DF01A80FB91F18961C92019618
:1006B00080349105B9F7DF01A85BBF4F1C921196FA
:1006C0001D921C92EB5AFF4F0190F081E02D309764
:1006D00009F009940895FC011282148213820C948B
:1006E0004C03CF93DF93EC0188819981DC01ED917C
:1006F000FC910680F781E02D0995FE01E85BFF4F34
:1007000020812223B1F0873F910531F41082CE0180
:10071000DF91CF910C94A102FE01E75BFF4F208196
:100720003181C20FD31F88872F5F3F4F31832083D2
:100730009DC02D81222309F45EC0803891050CF004
:100740005AC09FEF920F9D83FE01E90FF11D808734
:1007500091118CC08E81882309F488C0803DE9F115
:1007600048F48039E9F0803C09F043C0FE01E15BC8
:10077000FF4F36C0803E19F0843F19F13AC0FE01A8
:10078000E55BFF4F0190F081E02D309791F1888576
:10079000698570E0B0E88B9F600D711D112427C042
:1007A000FE01E35BFF4F0190F081E02D309709F1EE
:1007B0008885698570E090E8899F600D711D11241E
:1007C00016C0FE01ED5AFF4F0190F081E02D3097E9
:1007D00081F0688570E089850BC0FE01EF5AFF4FFC
:1007E0000190F081E02D309721F0688570E08F81D5
:1007F00009951E823BC0803F91052CF4282F2F7055
:100800002F83807F9927803E910521F154F4803C0D
:10081000910511F1803D9105F9F08039910531F58F
:1008200019C0843F9105B1F054F4803F9105F1F473
:1008300081E08083C75BDF4F1982188217C0893F30
:10084000910571F08F3F910589F4CE01DF91CF9131
:100850000C944C0392E001C091E09D838E8306C00E
:1008600083ED92E0DF91CF910C942E02DF91CF9136
:1008700008958F929F92AF92BF92CF92DF92EF92A4
:10088000FF921F93CF93DF93EB014A01690161E06F
:100890008DE00E94330710E0EE24D7FCE094FE2C9C
:1008A000AA2497FCA094BA2C812F90E08C179D0766
:1008B00094F4C701B6010E94200661E08DE00E9419
:1008C0006C07C501B4010E94200660E08DE00E9423
:1008D0006C071F5FE9CFDF91CF911F91FF90EF90E1
:1008E000DF90CF90BF90AF909F908F900895CF935F
:1008F000DF93EC0161E08DE00E94330722ED30E0F0
:1009000048E250E062E070E0CE010E9439046AEFF4
:1009100070E080E090E00E94200622ED30E048E2A6
:1009200050E064E070E0CE010E9439046DE770E0B1
:1009300080E090E0DF91CF910C942006CF93DF937D
:10094000EC0126E08DE393E00E94AE088DE393E096
:1009500099838883CE010E947704CE010E942E02E3
:10096000CE01DF91CF910C94510240E051EE60E056
:1009700070E00C949E0483ED92E00C946B030F9353
:1009800000E020E040E060E08EE293E00E94EF09AA
:100990000F910895FC0110820895CF92DF92EF929B
:1009A000FF92CF93DF93EC010E94F1056B017C0174
:1009B0008B859C85AD85BE85A7019601281B390BCB
:1009C0004A0B5B0BDA01C90149815A816B817C8139
:1009D00084179507A607B707E8F08881813019F0DA
:1009E000823039F00EC0E985FA8589899A8909959E
:1009F00008C061E08885811160E068878F810E946E
:100A00006C07CB86DC86ED86FE868F8598890196FD
:100A1000988B8F878D819E8197FD06C02F853889A1
:100A2000281739070CF01882DF91CF91FF90EF90D3
:100A3000DF90CF9008950F931F93CF93DF93EC0136
:100A40008C0102541F4FCE010E94CA046396C01746
:100A5000D107C9F7DF91CF911F910F9108951F938F
:100A6000CF93DF93EC011AE08881882319F0CE013F
:100A70000E94CD04115063961111F6CFDF91CF91F2
:100A80001F91089520E0FC013081332331F02F5F66
:100A900043962A30C1F78FEF0895822F0895AF92C1
:100AA000BF92CF92DF92EF92FF920F931F93CF935B
:100AB000DF9300D000D0CDB7DEB75C016901498378
:100AC0005A836B837C830E944205282F49815A8177
:100AD0006B817C818F3FE9F083E12802A00CB11C7F
:100AE000112481E0F5018083418352836383748301
:100AF00016830583D286C18629830E94F105F501FC
:100B00006387748785879687108A1786F28AE18AB9
:100B10002981822F0F900F900F900F90DF91CF912E
:100B20001F910F91FF90EF90DF90CF90BF90AF900B
:100B30000895EF92FF920F931F9378010FEF1FEF2D
:100B40000E944F051F910F91FF90EF9008951F9203
:100B50000F920FB60F9211242F933F938F939F9371
:100B6000AF93BF938091350390913603A0913703E3
:100B7000B09138033091340323E0230F2D3720F454
:100B80000196A11DB11D05C026E8230F0296A11DE7
:100B9000B11D209334038093350390933603A093C3
:100BA0003703B09338038091390390913A03A091B1
:100BB0003B03B0913C030196A11DB11D8093390305
:100BC00090933A03A0933B03B0933C03BF91AF9142
:100BD0009F918F913F912F910F900FBE0F901F907B
:100BE00018952FB7F8946091350370913603809172
:100BF0003703909138032FBF08953FB7F894809141
:100C0000390390913A03A0913B03B0913C0326B580
:100C1000A89B05C02F3F19F00196A11DB11D3FBF34
:100C20006627782F892F9A2F620F711D811D911DC4
:100C300042E0660F771F881F991F4A95D1F70895E4
:100C4000CF92DF92EF92FF92CF93DF936B017C0103
:100C50000E94FD05EB01C114D104E104F10489F007
:100C60000E94CC0A0E94FD056C1B7D0B683E734000
:100C700090F381E0C81AD108E108F108C851DC4FAF
:100C8000EACFDF91CF91FF90EF90DF90CF90089562
:100C90008230910538F0880F991F880F991F0597AA
:100CA0000197F1F70895789484B5826084BD84B586
:100CB000816084BD85B5826085BD85B5816085BD57
:100CC000EEE6F0E0808181608083E1E8F0E0108270
:100CD000808182608083808181608083E0E8F0E0B1
:100CE000808181608083E1EBF0E08081846080839B
:100CF000E0EBF0E0808181608083EAE7F0E08081D2
:100D00008460808380818260808380818160808331
:100D10008081806880831092C10008958E3008F031
:100D20008E5087702091060190E4299F9001112434
:100D3000822B80937C0080917A00806480937A007B
:100D400080917A0086FDFCCF809178002091790017
:100D500090E0922B08951F93CF93DF93182FEB0110
:100D600061E00E943307209711F460E004C0CF3F98
:100D7000D10539F461E0812FDF91CF911F910C945F
:100D80006C07E12FF0E0E859FF4FE491E330F9F010
:100D900048F4E130B9F0E230A1F584B5806284BD59
:100DA000C8BD34C0E730E9F0E83019F1E43049F566
:100DB00080918000806280938000D0938B00C093EC
:100DC0008A0024C084B5806884BDC7BD1FC08091DF
:100DD0008000806880938000D0938900C093880051
:100DE00015C08091B00080688093B000C093B300BC
:100DF0000DC08091B00080628093B000C093B400B9
:100E000005C0C038D1050CF0B5CFAFCFDF91CF9181
:100E10001F910895833081F028F4813099F0823059
:100E2000A1F008958730A9F08830B9F08430D1F46A
:100E3000809180008F7D03C0809180008F778093A8
:100E40008000089584B58F7702C084B58F7D84BDFE
:100E500008958091B0008F7703C08091B0008F7D9E
:100E60008093B0000895CF93DF9390E0FC01E458A5
:100E7000FF4F2491FC01E057FF4F8491882349F1F3
:100E800090E0880F991FFC01E854FF4FA591B491A1
:100E900082559F4FFC01C591D4919FB7611108C045
:100EA000F8948C91209582238C93888182230AC0A8
:100EB000623051F4F8948C91322F309583238C93C7
:100EC0008881822B888304C0F8948C91822B8C9328
:100ED0009FBFDF91CF9108950F931F93CF93DF931F
:100EE0001F92CDB7DEB7282F30E0F901E859FF4F48
:100EF0008491F901E458FF4F1491F901E057FF4F35
:100F000004910023C9F0882321F069830E940A0715
:100F10006981E02FF0E0EE0FFF1FE255FF4FA59132
:100F2000B4919FB7F8948C91611103C010958123FF
:100F300001C0812B8C939FBF0F90DF91CF911F91A8
:100F40000F910895CF93DF93282F30E0F901E859EE
:100F5000FF4F8491F901E458FF4FD491F901E05714
:100F6000FF4FC491CC2391F081110E940A07EC2F0E
:100F7000F0E0EE0FFF1FEC55FF4FA591B4912C91BF
:100F80002D2381E090E021F480E002C080E090E039
:100F9000DF91CF910895FC01818D228D90E0805CDE
:100FA0009F4F821B91098F7399270895FC01918DA2
:100FB000828D981731F0828DE80FF11D858D90E0BC
:100FC00008958FEF9FEF0895FC01918D828D981702
:100FD00061F0828DDF01A80FB11D5D968C91928D1D
:100FE0009F5F9F73928F90E008958FEF9FEF08951A
:100FF00088E699E0892B49F080E090E0892B29F080
:101000000E94680981110C9400000895FC01848DF0
:10101000DF01A80FB11DA35ABF4F2C91848D90E022
:1010200001968F739927848FA689B7892C93A089FD
:10103000B1898C9180648C93938D848D981306C0B4
:101040000288F389E02D80818F7D80830895CF937E
:10105000DF93EC01888D8823C9F0EA89FB898081C0
:1010600085FD05C0A889B9898C9186FD0FC00FB692
:1010700007FCF5CF808185FFF2CFA889B9898C91D3
:1010800085FFEDCFCE010E940608E7CFDF91CF911B
:101090000895CF92DF92FF920F931F93CF93DF9328
:1010A0001F92CDB7DEB76C0181E0D60158968C93C4
:1010B00058975B969C915B975C968C915C97981384
:1010C00007C05096ED91FC915197808185FD2EC00F
:1010D000F601038D10E00F5F1F4F0F731127F02EE5
:1010E000F601848DF81211C00FB607FCF9CFD601B6
:1010F0005096ED91FC915197808185FFF1CFC6010B
:1011000069830E9406086981EBCF838DE80FF11D8A
:10111000E35AFF4F6083D6015B960C935B97529620
:10112000ED91FC915397808180620CC0D601569658
:10113000ED91FC91579760835096ED91FC915197FA
:1011400080818064808381E090E00F90DF91CF9177
:101150001F910F91FF90DF90CF900895BF92CF9293
:10116000DF92EF92FF92CF93DF93EC016A017B0154
:10117000B22EE889F98982E08083411581EE580713
:1011800061057105A1F060E079E08DE390E0A701D1
:1011900096010E94CD0A2150310941095109569505
:1011A000479537952795211580E1380798F0E8890C
:1011B000F989108260E874E88EE190E0A701960159
:1011C0000E94CD0A21503109410951095695479590
:1011D00037952795EC85FD853083EE85FF85208347
:1011E000188EEC89FD89B082EA89FB898081806153
:1011F0008083EA89FB89808188608083EA89FB8912
:10120000808180688083EA89FB8980818F7D8083EB
:10121000DF91CF91FF90EF90DF90CF90BF90089536
:101220001F920F920FB60F9211242F938F939F93BB
:10123000EF93FF93E0914D03F0914E038081E09195
:101240005303F091540382FD12C0908180915603A4
:101250008F5F8F7320915703821751F0E0915603EF
:10126000F0E0E35CFC4F958F8093560301C08081D2
:10127000FF91EF919F918F912F910F900FBE0F9043
:101280001F9018951F920F920FB60F9211242F9353
:101290003F934F935F936F937F938F939F93AF93FE
:1012A000BF93EF93FF938DE393E00E940608FF91B5
:1012B000EF91BF91AF919F918F917F916F915F91CE
:1012C0004F913F912F910F900FBE0F901F90189547
:1012D0008DE393E00E94CB0721E0892B09F420E005
:1012E000822F08951092400310923F0388EE93E0FE
:1012F000A0E0B0E08093410390934203A0934303A6
:10130000B09344038BE091E090933E0380933D03C0
:1013100085EC90E090934A038093490384EC90E03D
:1013200090934C0380934B0380EC90E090934E039A
:1013300080934D0381EC90E09093500380934F0392
:1013400082EC90E0909352038093510386EC90E0FE
:1013500090935403809353031092560310925703B3
:1013600010925803109259030895AF92BF92CF92F2
:10137000DF92EF92FF920F931F93CF93DF936C0155
:101380007B01C0E0D0E000E010E0F601EC0FFD1FB3
:101390004AE050E06281C7010E94B50A5C016EE23A
:1013A000C7010E94480A8A0D9B1D080F191F21962C
:1013B000C330D10551F74AE050E0F6016581C7011D
:1013C0000E94B50A800F911FDF91CF911F910F915D
:1013D000FF90EF90DF90CF90BF90AF9008950F9364
:1013E000FC018BE191E091838083628343832483BA
:1013F00005830F9108958BE191E09093DB03809337
:10140000DA031092DC031092DD031092DE031092D7
:10141000DF030895CF92DF92EF92FF920F931F9315
:10142000CF93DF937C016A01EB0100E010E00C1523
:101430001D0571F06991D701ED91FC910190F0814A
:10144000E02DC7010995892B19F00F5F1F4FEFCFD2
:10145000C801DF91CF911F910F91FF90EF90DF9026
:10146000CF9008956115710581F0DB010D9000208A
:10147000E9F7AD0141505109461B570BDC01ED91D5
:10148000FC910280F381E02D099480E090E00895C2
:10149000DC01ED91FC910190F081E02D09948F9297
:1014A0009F92AF92BF92CF92DF92EF92FF920F93F3
:1014B0001F93CF93DF93CDB7DEB7A1970FB6F89404
:1014C000DEBF0FBECDBF7C01C42EE52FCB01D22ED7
:1014D00019A221E02D1510F02AE0D22E8E010F5D09
:1014E0001F4F8D2C912CA12CB12C6C2D7E2FA50182
:1014F00094010E94CD0A8C2DD29E80191124015096
:1015000011098A3014F4805D01C0895CF801808380
:10151000211531054105510521F0C22EE32FCA01E5
:10152000E4CFB801C7010E94320AA1960FB6F89421
:10153000DEBF0FBECDBFDF91CF911F910F91FF9006
:10154000EF90DF90CF90BF90AF909F908F900895D5
:101550002115310541F4DC01ED91FC910190F08100
:10156000E02D642F09940C944F0A9A01462F50E005
:1015700060E070E00C94A80A08950E9453060E944F
:10158000BC0A0E94BC01C8EFD7E00E943F0120972F
:10159000E1F30E94F807F9CF0895A1E21A2EAA1BE1
:1015A000BB1BFD010DC0AA1FBB1FEE1FFF1FA21713
:1015B000B307E407F50720F0A21BB30BE40BF50B10
:1015C000661F771F881F991F1A9469F76095709599
:1015D000809590959B01AC01BD01CF010895EE0F60
:0E15E000FF1F0590F491E02D0994F894FFCFC1
:1015EE000000E0038000010000000049080A0ACB59
:0E15FE0007E407D607270800000000B5090023
:00000001FF
